{
  "contractName": "KeysManager",
  "abi": [
    {
      "anonymous": false,
      "inputs": [
        {
          "indexed": false,
          "name": "key",
          "type": "address"
        },
        {
          "indexed": false,
          "name": "action",
          "type": "string"
        }
      ],
      "name": "MiningKeyChanged",
      "type": "event"
    },
    {
      "anonymous": false,
      "inputs": [
        {
          "indexed": false,
          "name": "key",
          "type": "address"
        },
        {
          "indexed": true,
          "name": "miningKey",
          "type": "address"
        },
        {
          "indexed": false,
          "name": "action",
          "type": "string"
        }
      ],
      "name": "VotingKeyChanged",
      "type": "event"
    },
    {
      "anonymous": false,
      "inputs": [
        {
          "indexed": false,
          "name": "key",
          "type": "address"
        },
        {
          "indexed": true,
          "name": "miningKey",
          "type": "address"
        },
        {
          "indexed": false,
          "name": "action",
          "type": "string"
        }
      ],
      "name": "PayoutKeyChanged",
      "type": "event"
    },
    {
      "anonymous": false,
      "inputs": [
        {
          "indexed": true,
          "name": "miningKey",
          "type": "address"
        },
        {
          "indexed": true,
          "name": "votingKey",
          "type": "address"
        },
        {
          "indexed": true,
          "name": "payoutKey",
          "type": "address"
        }
      ],
      "name": "ValidatorInitialized",
      "type": "event"
    },
    {
      "anonymous": false,
      "inputs": [
        {
          "indexed": true,
          "name": "initialKey",
          "type": "address"
        },
        {
          "indexed": false,
          "name": "time",
          "type": "uint256"
        },
        {
          "indexed": false,
          "name": "initialKeysCount",
          "type": "uint256"
        }
      ],
      "name": "InitialKeyCreated",
      "type": "event"
    },
    {
      "anonymous": false,
      "inputs": [
        {
          "indexed": false,
          "name": "name",
          "type": "string"
        },
        {
          "indexed": false,
          "name": "key",
          "type": "address"
        }
      ],
      "name": "Migrated",
      "type": "event"
    },
    {
      "constant": true,
      "inputs": [
        {
          "name": "_currentKey",
          "type": "address"
        },
        {
          "name": "_newKey",
          "type": "address"
        }
      ],
      "name": "checkIfMiningExisted",
      "outputs": [
        {
          "name": "",
          "type": "bool"
        }
      ],
      "payable": false,
      "stateMutability": "view",
      "type": "function"
    },
    {
      "constant": true,
      "inputs": [],
      "name": "maxLimitValidators",
      "outputs": [
        {
          "name": "",
          "type": "uint256"
        }
      ],
      "payable": false,
      "stateMutability": "pure",
      "type": "function"
    },
    {
      "constant": true,
      "inputs": [],
      "name": "maxOldMiningKeysDeepCheck",
      "outputs": [
        {
          "name": "",
          "type": "uint256"
        }
      ],
      "payable": false,
      "stateMutability": "pure",
      "type": "function"
    },
    {
      "constant": true,
      "inputs": [],
      "name": "masterOfCeremony",
      "outputs": [
        {
          "name": "",
          "type": "address"
        }
      ],
      "payable": false,
      "stateMutability": "view",
      "type": "function"
    },
    {
      "constant": true,
      "inputs": [],
      "name": "previousKeysManager",
      "outputs": [
        {
          "name": "",
          "type": "address"
        }
      ],
      "payable": false,
      "stateMutability": "view",
      "type": "function"
    },
    {
      "constant": true,
      "inputs": [],
      "name": "proxyStorage",
      "outputs": [
        {
          "name": "",
          "type": "address"
        }
      ],
      "payable": false,
      "stateMutability": "view",
      "type": "function"
    },
    {
      "constant": true,
      "inputs": [],
      "name": "poaNetworkConsensus",
      "outputs": [
        {
          "name": "",
          "type": "address"
        }
      ],
      "payable": false,
      "stateMutability": "view",
      "type": "function"
    },
    {
      "constant": true,
      "inputs": [],
      "name": "maxNumberOfInitialKeys",
      "outputs": [
        {
          "name": "",
          "type": "uint256"
        }
      ],
      "payable": false,
      "stateMutability": "pure",
      "type": "function"
    },
    {
      "constant": true,
      "inputs": [],
      "name": "initialKeysCount",
      "outputs": [
        {
          "name": "",
          "type": "uint256"
        }
      ],
      "payable": false,
      "stateMutability": "view",
      "type": "function"
    },
    {
      "constant": true,
      "inputs": [
        {
          "name": "_initialKey",
          "type": "address"
        }
      ],
      "name": "getInitialKeyStatus",
      "outputs": [
        {
          "name": "",
          "type": "uint256"
        }
      ],
      "payable": false,
      "stateMutability": "view",
      "type": "function"
    },
    {
      "constant": true,
      "inputs": [
        {
          "name": "_payoutKey",
          "type": "address"
        }
      ],
      "name": "miningKeyByPayout",
      "outputs": [
        {
          "name": "",
          "type": "address"
        }
      ],
      "payable": false,
      "stateMutability": "view",
      "type": "function"
    },
    {
      "constant": true,
      "inputs": [
        {
          "name": "_votingKey",
          "type": "address"
        }
      ],
      "name": "miningKeyByVoting",
      "outputs": [
        {
          "name": "",
          "type": "address"
        }
      ],
      "payable": false,
      "stateMutability": "view",
      "type": "function"
    },
    {
      "constant": true,
      "inputs": [
        {
          "name": "_miningKey",
          "type": "address"
        }
      ],
      "name": "miningKeyHistory",
      "outputs": [
        {
          "name": "",
          "type": "address"
        }
      ],
      "payable": false,
      "stateMutability": "view",
      "type": "function"
    },
    {
      "constant": true,
      "inputs": [
        {
          "name": "_miningKey",
          "type": "address"
        }
      ],
      "name": "successfulValidatorClone",
      "outputs": [
        {
          "name": "",
          "type": "bool"
        }
      ],
      "payable": false,
      "stateMutability": "view",
      "type": "function"
    },
    {
      "constant": true,
      "inputs": [
        {
          "name": "_miningKey",
          "type": "address"
        }
      ],
      "name": "validatorKeys",
      "outputs": [
        {
          "name": "validatorVotingKey",
          "type": "address"
        },
        {
          "name": "validatorPayoutKey",
          "type": "address"
        },
        {
          "name": "isValidatorMiningActive",
          "type": "bool"
        },
        {
          "name": "isValidatorVotingActive",
          "type": "bool"
        },
        {
          "name": "isValidatorPayoutActive",
          "type": "bool"
        }
      ],
      "payable": false,
      "stateMutability": "view",
      "type": "function"
    },
    {
      "constant": true,
      "inputs": [],
      "name": "initDisabled",
      "outputs": [
        {
          "name": "",
          "type": "bool"
        }
      ],
      "payable": false,
      "stateMutability": "view",
      "type": "function"
    },
    {
      "constant": false,
      "inputs": [
        {
          "name": "_previousKeysManager",
          "type": "address"
        }
      ],
      "name": "init",
      "outputs": [],
      "payable": false,
      "stateMutability": "nonpayable",
      "type": "function"
    },
    {
      "constant": false,
      "inputs": [
        {
          "name": "_miningKey",
          "type": "address"
        }
      ],
      "name": "migrateMiningKey",
      "outputs": [],
      "payable": false,
      "stateMutability": "nonpayable",
      "type": "function"
    },
    {
      "constant": false,
      "inputs": [
        {
          "name": "_initialKey",
          "type": "address"
        }
      ],
      "name": "migrateInitialKey",
      "outputs": [],
      "payable": false,
      "stateMutability": "nonpayable",
      "type": "function"
    },
    {
      "constant": false,
      "inputs": [
        {
          "name": "_initialKey",
          "type": "address"
        }
      ],
      "name": "initiateKeys",
      "outputs": [],
      "payable": false,
      "stateMutability": "nonpayable",
      "type": "function"
    },
    {
      "constant": false,
      "inputs": [
        {
          "name": "_miningKey",
          "type": "address"
        },
        {
          "name": "_votingKey",
          "type": "address"
        },
        {
          "name": "_payoutKey",
          "type": "address"
        }
      ],
      "name": "createKeys",
      "outputs": [],
      "payable": false,
      "stateMutability": "nonpayable",
      "type": "function"
    },
    {
      "constant": true,
      "inputs": [],
      "name": "getTime",
      "outputs": [
        {
          "name": "",
          "type": "uint256"
        }
      ],
      "payable": false,
      "stateMutability": "view",
      "type": "function"
    },
    {
      "constant": true,
      "inputs": [],
      "name": "getVotingToChangeKeys",
      "outputs": [
        {
          "name": "",
          "type": "address"
        }
      ],
      "payable": false,
      "stateMutability": "view",
      "type": "function"
    },
    {
      "constant": true,
      "inputs": [
        {
          "name": "_key",
          "type": "address"
        }
      ],
      "name": "isMiningActive",
      "outputs": [
        {
          "name": "",
          "type": "bool"
        }
      ],
      "payable": false,
      "stateMutability": "view",
      "type": "function"
    },
    {
      "constant": true,
      "inputs": [
        {
          "name": "_votingKey",
          "type": "address"
        }
      ],
      "name": "isVotingActive",
      "outputs": [
        {
          "name": "",
          "type": "bool"
        }
      ],
      "payable": false,
      "stateMutability": "view",
      "type": "function"
    },
    {
      "constant": true,
      "inputs": [
        {
          "name": "_miningKey",
          "type": "address"
        }
      ],
      "name": "isVotingActiveByMiningKey",
      "outputs": [
        {
          "name": "",
          "type": "bool"
        }
      ],
      "payable": false,
      "stateMutability": "view",
      "type": "function"
    },
    {
      "constant": true,
      "inputs": [
        {
          "name": "_miningKey",
          "type": "address"
        }
      ],
      "name": "isPayoutActive",
      "outputs": [
        {
          "name": "",
          "type": "bool"
        }
      ],
      "payable": false,
      "stateMutability": "view",
      "type": "function"
    },
    {
      "constant": true,
      "inputs": [
        {
          "name": "_miningKey",
          "type": "address"
        }
      ],
      "name": "getVotingByMining",
      "outputs": [
        {
          "name": "",
          "type": "address"
        }
      ],
      "payable": false,
      "stateMutability": "view",
      "type": "function"
    },
    {
      "constant": true,
      "inputs": [
        {
          "name": "_miningKey",
          "type": "address"
        }
      ],
      "name": "getPayoutByMining",
      "outputs": [
        {
          "name": "",
          "type": "address"
        }
      ],
      "payable": false,
      "stateMutability": "view",
      "type": "function"
    },
    {
      "constant": true,
      "inputs": [
        {
          "name": "_miningKey",
          "type": "address"
        }
      ],
      "name": "getMiningKeyHistory",
      "outputs": [
        {
          "name": "",
          "type": "address"
        }
      ],
      "payable": false,
      "stateMutability": "view",
      "type": "function"
    },
    {
      "constant": true,
      "inputs": [
        {
          "name": "_votingKey",
          "type": "address"
        }
      ],
      "name": "getMiningKeyByVoting",
      "outputs": [
        {
          "name": "",
          "type": "address"
        }
      ],
      "payable": false,
      "stateMutability": "view",
      "type": "function"
    },
    {
      "constant": false,
      "inputs": [
        {
          "name": "_key",
          "type": "address"
        }
      ],
      "name": "addMiningKey",
      "outputs": [
        {
          "name": "",
          "type": "bool"
        }
      ],
      "payable": false,
      "stateMutability": "nonpayable",
      "type": "function"
    },
    {
      "constant": false,
      "inputs": [
        {
          "name": "_key",
          "type": "address"
        },
        {
          "name": "_miningKey",
          "type": "address"
        }
      ],
      "name": "addVotingKey",
      "outputs": [
        {
          "name": "",
          "type": "bool"
        }
      ],
      "payable": false,
      "stateMutability": "nonpayable",
      "type": "function"
    },
    {
      "constant": false,
      "inputs": [
        {
          "name": "_key",
          "type": "address"
        },
        {
          "name": "_miningKey",
          "type": "address"
        }
      ],
      "name": "addPayoutKey",
      "outputs": [
        {
          "name": "",
          "type": "bool"
        }
      ],
      "payable": false,
      "stateMutability": "nonpayable",
      "type": "function"
    },
    {
      "constant": false,
      "inputs": [
        {
          "name": "_key",
          "type": "address"
        }
      ],
      "name": "removeMiningKey",
      "outputs": [
        {
          "name": "",
          "type": "bool"
        }
      ],
      "payable": false,
      "stateMutability": "nonpayable",
      "type": "function"
    },
    {
      "constant": false,
      "inputs": [
        {
          "name": "_miningKey",
          "type": "address"
        }
      ],
      "name": "removeVotingKey",
      "outputs": [
        {
          "name": "",
          "type": "bool"
        }
      ],
      "payable": false,
      "stateMutability": "nonpayable",
      "type": "function"
    },
    {
      "constant": false,
      "inputs": [
        {
          "name": "_miningKey",
          "type": "address"
        }
      ],
      "name": "removePayoutKey",
      "outputs": [
        {
          "name": "",
          "type": "bool"
        }
      ],
      "payable": false,
      "stateMutability": "nonpayable",
      "type": "function"
    },
    {
      "constant": false,
      "inputs": [
        {
          "name": "_key",
          "type": "address"
        },
        {
          "name": "_oldMiningKey",
          "type": "address"
        }
      ],
      "name": "swapMiningKey",
      "outputs": [
        {
          "name": "",
          "type": "bool"
        }
      ],
      "payable": false,
      "stateMutability": "nonpayable",
      "type": "function"
    },
    {
      "constant": false,
      "inputs": [
        {
          "name": "_key",
          "type": "address"
        },
        {
          "name": "_miningKey",
          "type": "address"
        }
      ],
      "name": "swapVotingKey",
      "outputs": [
        {
          "name": "",
          "type": "bool"
        }
      ],
      "payable": false,
      "stateMutability": "nonpayable",
      "type": "function"
    },
    {
      "constant": false,
      "inputs": [
        {
          "name": "_key",
          "type": "address"
        },
        {
          "name": "_miningKey",
          "type": "address"
        }
      ],
      "name": "swapPayoutKey",
      "outputs": [
        {
          "name": "",
          "type": "bool"
        }
      ],
      "payable": false,
      "stateMutability": "nonpayable",
      "type": "function"
    }
  ],
  "bytecode": "0x608060405234801561001057600080fd5b506133e4806100206000396000f3006080604052600436106101d45763ffffffff60e060020a6000350416631770650781146101d957806319ab453c1461020c5780631e48e1461461022f5780631e534e71146102645780632a968f49146102855780632befe2e1146102a65780632d260227146102e357806338949514146103045780634433418f14610325578063458779da1461033a57806349285b581461035b57806352a3693814610370578063557ed1ba146103855780635c0569f81461039a57806362907170146103f657806362b46d641461040b578063651ebb5f1461042c578063731fcb9a14610453578063771ae2991461047a5780637cded930146104a15780637ebf43fc146104c257806381b03427146104e357806385b84ccb146104f85780638743e882146105195780639503ab721461053a57806398943eb6146105615780639bc91c2214610582578063a5a36dee146105a3578063ae4b1b5b146105c4578063b9bdaa07146105d9578063c04455b5146105ee578063c6232a151461060f578063d2acbc121461063c578063d33eb5ae14610651578063d44379cf14610678578063db7cf00b1461069f578063e7f57c83146106c0578063fa46eacd146106d5578063fa81b200146106f6578063fee092851461070b575b600080fd5b3480156101e557600080fd5b506101fa600160a060020a036004351661072c565b60408051918252519081900360200190f35b34801561021857600080fd5b5061022d600160a060020a03600435166107f1565b005b34801561023b57600080fd5b50610250600160a060020a0360043516610a24565b604080519115158252519081900360200190f35b34801561027057600080fd5b50610250600160a060020a0360043516610aea565b34801561029157600080fd5b50610250600160a060020a0360043516610b2f565b3480156102b257600080fd5b506102c7600160a060020a0360043516610b64565b60408051600160a060020a039092168252519081900360200190f35b3480156102ef57600080fd5b506102c7600160a060020a0360043516610c49565b34801561031057600080fd5b50610250600160a060020a0360043516610c5a565b34801561033157600080fd5b506102c7610e01565b34801561034657600080fd5b506102c7600160a060020a0360043516610e79565b34801561036757600080fd5b506102c7610efa565b34801561037c57600080fd5b50610250610f41565b34801561039157600080fd5b506101fa610f85565b3480156103a657600080fd5b506103bb600160a060020a0360043516610f89565b60408051600160a060020a03968716815294909516602085015291151583850152151560608301521515608082015290519081900360a00190f35b34801561040257600080fd5b506102c7610fd1565b34801561041757600080fd5b50610250600160a060020a036004351661101b565b34801561043857600080fd5b50610250600160a060020a0360043581169060243516611039565b34801561045f57600080fd5b50610250600160a060020a03600435811690602435166110be565b34801561048657600080fd5b50610250600160a060020a036004358116906024351661117d565b3480156104ad57600080fd5b506102c7600160a060020a03600435166111e0565b3480156104ce57600080fd5b50610250600160a060020a036004351661127a565b3480156104ef57600080fd5b506101fa6115ba565b34801561050457600080fd5b5061022d600160a060020a03600435166115c0565b34801561052557600080fd5b5061022d600160a060020a0360043516611b5c565b34801561054657600080fd5b50610250600160a060020a0360043581169060243516611c56565b34801561056d57600080fd5b5061022d600160a060020a0360043516611cc3565b34801561058e57600080fd5b50610250600160a060020a0360043516611e90565b3480156105af57600080fd5b506102c7600160a060020a0360043516611f2a565b3480156105d057600080fd5b506102c7611f35565b3480156105e557600080fd5b506101fa611f7f565b3480156105fa57600080fd5b506102c7600160a060020a0360043516611f84565b34801561061b57600080fd5b5061022d600160a060020a0360043581169060243581169060443516612005565b34801561064857600080fd5b506101fa6122d3565b34801561065d57600080fd5b50610250600160a060020a0360043581169060243516612314565b34801561068457600080fd5b50610250600160a060020a036004358116906024351661236e565b3480156106ab57600080fd5b50610250600160a060020a0360043516612605565b3480156106cc57600080fd5b506101fa61269f565b3480156106e157600080fd5b506102c7600160a060020a03600435166126a4565b34801561070257600080fd5b506102c7612725565b34801561071757600080fd5b50610250600160a060020a036004351661276c565b604080517f696e697469616c4b657953746174757300000000000000000000000000000000602080830191909152600160a060020a0384168284015282518083038401815260609092019283905281516000936002938593909282918401908083835b602083106107ae5780518252601f19909201916020918201910161078f565b51815160209384036101000a600019018019909216911617905260408051929094018290039091208652850195909552929092016000205493505050505b919050565b604080517f6f776e6572000000000000000000000000000000000000000000000000000000815281519081900360050190206000908152600460205290812054819033600160a060020a039091161461084957600080fd5b610851610f41565b1561085b57600080fd5b610863612725565b9150600160a060020a038216151561087a57600080fd5b610882610e01565b600160a060020a038381169116141561089a57600080fd5b6108a5600083612806565b6108b060008361290b565b6108bb6001836129a5565b6108c6600083612a8e565b6108d1600083612b28565b6108dc600183612bc2565b60408051600160a060020a03841660208201528181526009818301527f6d696e696e674b65790000000000000000000000000000000000000000000000606082015290517f495f7fdbe153771103489f5c94591c07cd8e655814d1f12739f591b94411ec079181900360800190a1600160a060020a038316156109d75761096283612c43565b8290506109d781600160a060020a031663d2acbc126040518163ffffffff1660e060020a028152600401602060405180830381600087803b1580156109a657600080fd5b505af11580156109ba573d6000803e3d6000fd5b505050506040513d60208110156109d057600080fd5b5051612cae565b5050604080517f696e697444697361626c656400000000000000000000000000000000000000008152815190819003600c0190206000908152600660205220805460ff1916600117905550565b604080517f7375636365737366756c56616c696461746f72436c6f6e650000000000000000602080830191909152600160a060020a0384168284015282518083038401815260609092019283905281516000936006938593909282918401908083835b60208310610aa65780518252601f199092019160209182019101610a87565b51815160209384036101000a600019018019909216911617905260408051929094018290039091208652850195909552929092016000205460ff1695945050505050565b6000610af4610efa565b600160a060020a03163314610b0857600080fd5b610b1182612cee565b15610b2757610b1f82612d25565b5060016107ec565b506000919050565b6000610b39610efa565b600160a060020a03163314610b4d57600080fd5b610b5682612db9565b15610b2757610b1f82612dda565b60408051600080516020613379833981519152602080830191909152600160a060020a038416828401527f766f74696e674b657900000000000000000000000000000000000000000000006060808401919091528351808403909101815260809092019283905281516000936004938593909282918401908083835b60208310610bff5780518252601f199092019160209182019101610be0565b51815160209384036101000a6000190180199092169116179052604080519290940182900390912086528501959095529290920160002054600160a060020a031695945050505050565b6000610c54826126a4565b92915050565b6000610c64610efa565b600160a060020a03163314610c7857600080fd5b610c80612e6e565b1515610c8e575060006107ec565b610c96610f41565b1515610ca4575060006107ec565b610cac610e01565b604080517f21a3fb85000000000000000000000000000000000000000000000000000000008152600160a060020a03858116600483015260016024830152915192909116916321a3fb85916044808201926020929091908290030181600087803b158015610d1957600080fd5b505af1158015610d2d573d6000803e3d6000fd5b505050506040513d6020811015610d4357600080fd5b50511515610d53575060006107ec565b610d5e600083612806565b610d6960008361290b565b610d746001836129a5565b610d7f600083612a8e565b610d8a600083612b28565b60408051600160a060020a0384168152602081018290526005818301527f6164646564000000000000000000000000000000000000000000000000000000606082015290517f31511048ccdf9fbe46c149f8f729923c1232debeff658d242292f37365b457189181900360800190a1506001919050565b6000610e0b611f35565b600160a060020a0316638b8414c46040518163ffffffff1660e060020a028152600401602060405180830381600087803b158015610e4857600080fd5b505af1158015610e5c573d6000803e3d6000fd5b505050506040513d6020811015610e7257600080fd5b5051905090565b604080517f6d696e696e674b6579486973746f727900000000000000000000000000000000602080830191909152600160a060020a03841682840152825180830384018152606090920192839052815160009360049385939092829184019080838360208310610bff5780518252601f199092019160209182019101610be0565b6000610f04611f35565b600160a060020a03166349285b586040518163ffffffff1660e060020a028152600401602060405180830381600087803b158015610e4857600080fd5b604080517f696e697444697361626c656400000000000000000000000000000000000000008152815190819003600c01902060009081526006602052205460ff1690565b4290565b6000806000806000610f9a86610b64565b9450610fa5866111e0565b9350610fb086611e90565b9250610fbb86612605565b9150610fc68661276c565b905091939590929450565b604080517f70726576696f75734b6579734d616e616765720000000000000000000000000081528151908190036013019020600090815260046020522054600160a060020a031690565b600080611027836126a4565b905061103281612605565b9392505050565b6000611043610efa565b600160a060020a0316331461105757600080fd5b6110608261276c565b801561107e57506000611072836111e0565b600160a060020a031614155b156110945761108d838361117d565b9050610c54565b61109e8383612ef4565b156110b5576110ad8383612f45565b506001610c54565b50600092915050565b60008080808060443610156110d257600080fd5b6110db86611e90565b156110e95760019450611173565b600160a060020a03871615156111025760009450611173565b86935061110d611f7f565b9250600091505b8282101561116e5761112584611f2a565b9050600160a060020a03811615156111405760009450611173565b85600160a060020a031681600160a060020a031614156111635760019450611173565b925060010182611114565b600094505b5050505092915050565b6000611187610efa565b600160a060020a0316331461119b57600080fd5b6111a482612cee565b15806111b757506111b58383612ef4565b155b156111c457506000610c54565b6111cd82612d25565b6111d78383612f45565b50600192915050565b60408051600080516020613379833981519152602080830191909152600160a060020a038416828401527f7061796f75744b6579000000000000000000000000000000000000000000000060608084019190915283518084039091018152608090920192839052815160009360049385939092829184019080838360208310610bff5780518252601f199092019160209182019101610be0565b6000806000611287610efa565b600160a060020a0316331461129b57600080fd5b6112a3610f41565b15156112b257600092506115b3565b6112bb84611e90565b15156112ca57600092506115b3565b6112d2612725565b600160a060020a031684600160a060020a03161480156112ff57506112f561269f565b6112fd6122d3565b105b1561130d57600092506115b3565b611315610e01565b604080517ff89a77b1000000000000000000000000000000000000000000000000000000008152600160a060020a038781166004830152600160248301529151929091169163f89a77b1916044808201926020929091908290030181600087803b15801561138257600080fd5b505af1158015611396573d6000803e3d6000fd5b505050506040513d60208110156113ac57600080fd5b505115156113bd57600092506115b3565b6113c684610b64565b91506113d1846111e0565b90506113de826000612fdc565b6113e9816000613076565b6113f28461310c565b6113fa613146565b600160a060020a031663885c69b5856040518263ffffffff1660e060020a0281526004018082600160a060020a0316600160a060020a03168152602001915050600060405180830381600087803b15801561145457600080fd5b505af1158015611468573d6000803e3d6000fd5b505060408051600160a060020a038816815260208101829052600781830152600080516020613399833981519152606082015290517f31511048ccdf9fbe46c149f8f729923c1232debeff658d242292f37365b457189350908190036080019150a1600160a060020a0382161561153c5760408051600160a060020a0384811682526020820183905260078284015260008051602061339983398151915260608301529151918616917f3c12ed73d04c6ac636caa62bedf7896dc1452a189bd7fcdbcae6e9765233ca559181900360800190a25b600160a060020a038116156115ae5760408051600160a060020a0383811682526020820183905260078284015260008051602061339983398151915260608301529151918616917f568d585fdb4f8eee3a22e8b798c49e9d6ac5fbfced5bc1b872a74808e3be7c7d9181900360800190a25b600192505b5050919050565b6107d090565b604080517f6f776e657200000000000000000000000000000000000000000000000000000081528151908190036005019020600090815260046020529081205481908190819081908190819033600160a060020a039091161461162257600080fd5b600061162c610fd1565b600160a060020a0316141561164057600080fd5b611648610fd1565b9650600160a060020a038816151561165f57600080fd5b86600160a060020a0316639bc91c22896040518263ffffffff1660e060020a0281526004018082600160a060020a0316600160a060020a03168152602001915050602060405180830381600087803b1580156116ba57600080fd5b505af11580156116ce573d6000803e3d6000fd5b505050506040513d60208110156116e457600080fd5b505115156116f157600080fd5b6116fa88611e90565b1561170457600080fd5b61170d88610a24565b1561171757600080fd5b86600160a060020a0316632befe2e1896040518263ffffffff1660e060020a0281526004018082600160a060020a0316600160a060020a03168152602001915050602060405180830381600087803b15801561177257600080fd5b505af1158015611786573d6000803e3d6000fd5b505050506040513d602081101561179c57600080fd5b5051604080517f7cded930000000000000000000000000000000000000000000000000000000008152600160a060020a038b81166004830152915192985090891691637cded930916024808201926020929091908290030181600087803b15801561180657600080fd5b505af115801561181a573d6000803e3d6000fd5b505050506040513d602081101561183057600080fd5b5051945061183e8689612806565b611848858961290b565b6118d887600160a060020a0316639bc91c228a6040518263ffffffff1660e060020a0281526004018082600160a060020a0316600160a060020a03168152602001915050602060405180830381600087803b1580156118a657600080fd5b505af11580156118ba573d6000803e3d6000fd5b505050506040513d60208110156118d057600080fd5b5051896129a5565b61196887600160a060020a03166362b46d64886040518263ffffffff1660e060020a0281526004018082600160a060020a0316600160a060020a03168152602001915050602060405180830381600087803b15801561193657600080fd5b505af115801561194a573d6000803e3d6000fd5b505050506040513d602081101561196057600080fd5b505189612a8e565b6119f887600160a060020a031663fee092858a6040518263ffffffff1660e060020a0281526004018082600160a060020a0316600160a060020a03168152602001915050602060405180830381600087803b1580156119c657600080fd5b505af11580156119da573d6000803e3d6000fd5b505050506040513d60208110156119f057600080fd5b505189612b28565b611a028689612fdc565b611a0c8589613076565b611a17600189612bc2565b879350611a22611f7f565b9250600091505b82821015611ae45786600160a060020a031663a5a36dee856040518263ffffffff1660e060020a0281526004018082600160a060020a0316600160a060020a03168152602001915050602060405180830381600087803b158015611a8c57600080fd5b505af1158015611aa0573d6000803e3d6000fd5b505050506040513d6020811015611ab657600080fd5b50519050600160a060020a0381161515611acf57611ae4565b611ad9848261318d565b925060010182611a29565b60408051600160a060020a038a1660208201528181526009818301527f6d696e696e674b65790000000000000000000000000000000000000000000000606082015290517f495f7fdbe153771103489f5c94591c07cd8e655814d1f12739f591b94411ec079181900360800190a15050505050505050565b6000611b66612725565b600160a060020a03163314611b7a57600080fd5b600160a060020a0382161515611b8f57600080fd5b6000611b9a8361072c565b14611ba457600080fd5b611bac612725565b600160a060020a0383811691161415611bc457600080fd5b611bcc6122d3565b9050611bd661269f565b8110611be157600080fd5b611bec60018361320e565b611bfd81600163ffffffff6132d216565b9050611c0881612cae565b81600160a060020a03167f8f0993529f6c865998786a88a06fce1f0261f632bf90ee1b50fa640338d5e936611c3b610f85565b60408051918252602082018590528051918290030190a25050565b6000611c60610efa565b600160a060020a03163314611c7457600080fd5b611c7d82612605565b8015611c9b57506000611c8f83610b64565b600160a060020a031614155b15611caa5761108d8383612314565b611cb48383612ef4565b156110b5576110ad83836132e1565b604080517f6f776e6572000000000000000000000000000000000000000000000000000000815281519081900360050190206000908152600460205290812054819033600160a060020a0390911614611d1b57600080fd5b6000611d268461072c565b14611d3057600080fd5b600160a060020a0383161515611d4557600080fd5b6000611d4f610fd1565b600160a060020a03161415611d6357600080fd5b611d6b610fd1565b915081600160a060020a031663b5cd46db846040518263ffffffff1660e060020a0281526004018082600160a060020a0316600160a060020a03168152602001915050602060405180830381600087803b158015611dc857600080fd5b505af1158015611ddc573d6000803e3d6000fd5b505050506040513d6020811015611df257600080fd5b505160ff1690506001811480611e085750600281145b1515611e1357600080fd5b611e1d818461320e565b60408051600160a060020a0385166020820152818152600a818301527f696e697469616c4b657900000000000000000000000000000000000000000000606082015290517f495f7fdbe153771103489f5c94591c07cd8e655814d1f12739f591b94411ec079181900360800190a1505050565b60408051600080516020613379833981519152602080830191909152600160a060020a038416828401527f69734d696e696e6741637469766500000000000000000000000000000000000060608084019190915283518084039091018152608090920192839052815160009360069385939092829184019080838360208310610aa65780518252601f199092019160209182019101610a87565b6000610c5482610e79565b604080517f70726f787953746f7261676500000000000000000000000000000000000000008152815190819003600c019020600090815260046020522054600160a060020a031690565b601990565b604080517f6d696e696e674b657942795061796f7574000000000000000000000000000000602080830191909152600160a060020a03841682840152825180830384018152606090920192839052815160009360049385939092829184019080838360208310610bff5780518252601f199092019160209182019101610be0565b60016120103361072c565b1461201a57600080fd5b612022612e6e565b151561202d57600080fd5b600160a060020a038316151561204257600080fd5b600160a060020a038216151561205757600080fd5b600160a060020a038116151561206c57600080fd5b600160a060020a03838116908316141561208557600080fd5b600160a060020a03838116908216141561209e57600080fd5b600160a060020a0382811690821614156120b757600080fd5b600160a060020a0383163314156120cd57600080fd5b600160a060020a0382163314156120e357600080fd5b600160a060020a0381163314156120f957600080fd5b61210283611e90565b1561210c57600080fd5b6000612117836126a4565b600160a060020a03161461212a57600080fd5b600061213582611f84565b600160a060020a03161461214857600080fd5b600061215384610b64565b600160a060020a03161461216657600080fd5b6000612171846111e0565b600160a060020a03161461218457600080fd5b61218c610e01565b604080517f21a3fb85000000000000000000000000000000000000000000000000000000008152600160a060020a03868116600483015260016024830152915192909116916321a3fb85916044808201926020929091908290030181600087803b1580156121f957600080fd5b505af115801561220d573d6000803e3d6000fd5b505050506040513d602081101561222357600080fd5b5051151561223057600080fd5b61223a8284612806565b612244818461290b565b61224f6001846129a5565b61225a600184612a8e565b612265600184612b28565b61226f8284612fdc565b6122798184613076565b61228460023361320e565b80600160a060020a031682600160a060020a031684600160a060020a03167f09b714df46e3a39ff284866b80612984e10c731561c157cd03aca91e436808a560405160405180910390a4505050565b604080517f696e697469616c4b657973436f756e74000000000000000000000000000000008152815190819003601001902060009081526002602052205490565b600061231e610efa565b600160a060020a0316331461233257600080fd5b61233b82612db9565b158061234e575061234c8383612ef4565b155b1561235b57506000610c54565b61236482612dda565b6111d783836132e1565b600080600061237b610efa565b600160a060020a0316331461238f57600080fd5b83600160a060020a031685600160a060020a031614156123b257600092506125fd565b6123bb84611e90565b15156123ca57600092506125fd565b6123d2610e01565b604080517f879736b2000000000000000000000000000000000000000000000000000000008152600160a060020a03888116600483015287811660248301529151929091169163879736b2916044808201926020929091908290030181600087803b15801561244057600080fd5b505af1158015612454573d6000803e3d6000fd5b505050506040513d602081101561246a57600080fd5b5051151561247b57600092506125fd565b612485858561318d565b61248e84610b64565b9150612499846111e0565b90506124a58286612806565b6124af818661290b565b6124ba6001866129a5565b6124cc6124c68361101b565b86612a8e565b6124de6124d88561276c565b86612b28565b6124e78461310c565b6124f18286612fdc565b6124fb8186613076565b612503613146565b604080517fc2d0916f000000000000000000000000000000000000000000000000000000008152600160a060020a03878116600483015288811660248301529151929091169163c2d0916f9160448082019260009290919082900301818387803b15801561257057600080fd5b505af1158015612584573d6000803e3d6000fd5b505060408051600160a060020a0389168152602081018290526007818301527f7377617070656400000000000000000000000000000000000000000000000000606082015290517f31511048ccdf9fbe46c149f8f729923c1232debeff658d242292f37365b457189350908190036080019150a1600192505b505092915050565b60408051600080516020613379833981519152602080830191909152600160a060020a038416828401527f6973566f74696e6741637469766500000000000000000000000000000000000060608084019190915283518084039091018152608090920192839052815160009360069385939092829184019080838360208310610aa65780518252601f199092019160209182019101610a87565b600c90565b604080517f6d696e696e674b65794279566f74696e67000000000000000000000000000000602080830191909152600160a060020a03841682840152825180830384018152606090920192839052815160009360049385939092829184019080838360208310610bff5780518252601f199092019160209182019101610be0565b600061272f610e01565b600160a060020a031663fa81b2006040518163ffffffff1660e060020a028152600401602060405180830381600087803b158015610e4857600080fd5b60408051600080516020613379833981519152602080830191909152600160a060020a038416828401527f69735061796f757441637469766500000000000000000000000000000000000060608084019190915283518084039091018152608090920192839052815160009360069385939092829184019080838360208310610aa65780518252601f199092019160209182019101610a87565b60408051600080516020613379833981519152602080830191909152600160a060020a038416828401527f766f74696e674b657900000000000000000000000000000000000000000000006060808401919091528351808403909101815260809092019283905281518593600493600093909282918401908083835b602083106128a15780518252601f199092019160209182019101612882565b51815160209384036101000a60001901801990921691161790526040805192909401829003909120865285019590955292909201600020805473ffffffffffffffffffffffffffffffffffffffff1916600160a060020a0395909516949094179093555050505050565b60408051600080516020613379833981519152602080830191909152600160a060020a038416828401527f7061796f75744b65790000000000000000000000000000000000000000000000606080840191909152835180840390910181526080909201928390528151859360049360009390928291840190808383602083106128a15780518252601f199092019160209182019101612882565b60408051600080516020613379833981519152602080830191909152600160a060020a038416828401527f69734d696e696e674163746976650000000000000000000000000000000000006060808401919091528351808403909101815260809092019283905281518593600693600093909282918401908083835b60208310612a405780518252601f199092019160209182019101612a21565b51815160209384036101000a60001901801990921691161790526040805192909401829003909120865285019590955292909201600020805460ff1916941515949094179093555050505050565b60408051600080516020613379833981519152602080830191909152600160a060020a038416828401527f6973566f74696e6741637469766500000000000000000000000000000000000060608084019190915283518084039091018152608090920192839052815185936006936000939092829184019080838360208310612a405780518252601f199092019160209182019101612a21565b60408051600080516020613379833981519152602080830191909152600160a060020a038416828401527f69735061796f757441637469766500000000000000000000000000000000000060608084019190915283518084039091018152608090920192839052815185936006936000939092829184019080838360208310612a405780518252601f199092019160209182019101612a21565b604080517f7375636365737366756c56616c696461746f72436c6f6e650000000000000000602080830191909152600160a060020a03841682840152825180830384018152606090920192839052815185936006936000939092829184019080838360208310612a405780518252601f199092019160209182019101612a21565b604080517f70726576696f75734b6579734d616e61676572000000000000000000000000008152815190819003601301902060009081526004602052208054600160a060020a0390921673ffffffffffffffffffffffffffffffffffffffff19909216919091179055565b604080517f696e697469616c4b657973436f756e740000000000000000000000000000000081528151908190036010019020600090815260026020522055565b6000612cf8610f41565b1515612d06575060006107ec565b612d0f8261276c565b1515612d1d575060006107ec565b506001919050565b6000612d30826111e0565b9050612d3d60008361290b565b612d48600083612b28565b612d53816000613076565b60408051600160a060020a0383811682526020820183905260078284015260008051602061339983398151915260608301529151918416917f568d585fdb4f8eee3a22e8b798c49e9d6ac5fbfced5bc1b872a74808e3be7c7d9181900360800190a25050565b6000612dc3610f41565b1515612dd1575060006107ec565b612d0f82612605565b6000612de582610b64565b9050612df2600083612806565b612dfd600083612a8e565b612e08816000612fdc565b60408051600160a060020a0383811682526020820183905260078284015260008051602061339983398151915260608301529151918416917f3c12ed73d04c6ac636caa62bedf7896dc1452a189bd7fcdbcae6e9765233ca559181900360800190a25050565b600080612e79610e01565b9050612e836115ba565b81600160a060020a0316630eaba26a6040518163ffffffff1660e060020a028152600401602060405180830381600087803b158015612ec157600080fd5b505af1158015612ed5573d6000803e3d6000fd5b505050506040513d6020811015612eeb57600080fd5b50511091505090565b6000612efe610f41565b1515612f0c57506000610c54565b612f1582611e90565b1515612f2357506000610c54565b81600160a060020a031683600160a060020a031614156111d757506000610c54565b612f4f828261290b565b612f5a600182612b28565b612f648282613076565b60408051600160a060020a038481168252602082018390526005828401527f616464656400000000000000000000000000000000000000000000000000000060608301529151918316917f568d585fdb4f8eee3a22e8b798c49e9d6ac5fbfced5bc1b872a74808e3be7c7d9181900360800190a25050565b600160a060020a0382161515612ff157613072565b604080517f6d696e696e674b65794279566f74696e67000000000000000000000000000000602080830191909152600160a060020a038516828401528251808303840181526060909201928390528151849360049360009390928291840190808383602083106128a15780518252601f199092019160209182019101612882565b5050565b600160a060020a038216151561308b57613072565b604080517f6d696e696e674b657942795061796f7574000000000000000000000000000000602080830191909152600160a060020a038516828401528251808303840181526060909201928390528151849360049360009390928291840190808383602083106128a15780518252601f199092019160209182019101612882565b613117600082612806565b61312260008261290b565b61312d6000826129a5565b613138600082612a8e565b613143600082612b28565b50565b6000613150611f35565b600160a060020a031663b1339de36040518163ffffffff1660e060020a028152600401602060405180830381600087803b158015610e4857600080fd5b604080517f6d696e696e674b6579486973746f727900000000000000000000000000000000602080830191909152600160a060020a038516828401528251808303840181526060909201928390528151849360049360009390928291840190808383602083106128a15780518252601f199092019160209182019101612882565b604080517f696e697469616c4b657953746174757300000000000000000000000000000000602080830191909152600160a060020a0384168284015282518083038401815260609092019283905281518593600293600093909282918401908083835b602083106132905780518252601f199092019160209182019101613271565b51815160209384036101000a60001901801990921691161790526040805192909401829003909120865285019590955292909201600020939093555050505050565b60008282018381101561103257fe5b6132eb8282612806565b6132f6600182612a8e565b6133008282612fdc565b60408051600160a060020a038481168252602082018390526005828401527f616464656400000000000000000000000000000000000000000000000000000060608301529151918316917f3c12ed73d04c6ac636caa62bedf7896dc1452a189bd7fcdbcae6e9765233ca559181900360800190a25050560076616c696461746f724b6579730000000000000000000000000000000000000072656d6f76656400000000000000000000000000000000000000000000000000a165627a7a72305820ceddd968795716d5b8af6213bb6eb367f654152c5fb3a12cf7a1fa3b0f6774de0029",
  "source": "pragma solidity ^0.4.24;\n\nimport \"./libs/SafeMath.sol\";\nimport \"./interfaces/IPoaNetworkConsensus.sol\";\nimport \"./interfaces/IKeysManager.sol\";\nimport \"./interfaces/IProxyStorage.sol\";\nimport \"./interfaces/IValidatorMetadata.sol\";\nimport \"./eternal-storage/EternalStorage.sol\";\n\n\ncontract KeysManager is EternalStorage, IKeysManager {\n    using SafeMath for uint256;\n\n    bytes32 internal constant INIT_DISABLED =\n        keccak256(\"initDisabled\");\n    \n    bytes32 internal constant INITIAL_KEYS_COUNT =\n        keccak256(\"initialKeysCount\");\n    \n    bytes32 internal constant OWNER =\n        keccak256(\"owner\");\n    \n    bytes32 internal constant PREVIOUS_KEYS_MANAGER =\n        keccak256(\"previousKeysManager\");\n    \n    bytes32 internal constant PROXY_STORAGE =\n        keccak256(\"proxyStorage\");\n\n    bytes32 internal constant INITIAL_KEY_STATUS = \"initialKeyStatus\";\n    bytes32 internal constant IS_MINING_ACTIVE = \"isMiningActive\";\n    bytes32 internal constant IS_PAYOUT_ACTIVE = \"isPayoutActive\";\n    bytes32 internal constant IS_VOTING_ACTIVE = \"isVotingActive\";\n    bytes32 internal constant MINING_KEY_BY_PAYOUT = \"miningKeyByPayout\";\n    bytes32 internal constant MINING_KEY_BY_VOTING = \"miningKeyByVoting\";\n    bytes32 internal constant MINING_KEY_HISTORY = \"miningKeyHistory\";\n    bytes32 internal constant PAYOUT_KEY = \"payoutKey\";\n    bytes32 internal constant SUCCESSFUL_VALIDATOR_CLONE = \"successfulValidatorClone\";\n    bytes32 internal constant VALIDATOR_KEYS = \"validatorKeys\";\n    bytes32 internal constant VOTING_KEY = \"votingKey\";\n\n    enum InitialKeyState {Invalid, Activated, Deactivated}\n\n    event MiningKeyChanged(address key, string action);\n    event VotingKeyChanged(address key, address indexed miningKey, string action);\n    event PayoutKeyChanged(address key, address indexed miningKey, string action);\n    \n    event ValidatorInitialized(\n        address indexed miningKey,\n        address indexed votingKey,\n        address indexed payoutKey\n    );\n\n    event InitialKeyCreated(\n        address indexed initialKey,\n        uint256 time,\n        uint256 initialKeysCount\n    );\n    \n    event Migrated(string name, address key);\n\n    modifier onlyOwner() {\n        require(msg.sender == addressStorage[OWNER]);\n        _;\n    }\n\n    modifier onlyVotingToChangeKeys() {\n        require(msg.sender == getVotingToChangeKeys());\n        _;\n    }\n\n    modifier onlyValidInitialKey() {\n        require(getInitialKeyStatus(msg.sender) == uint256(InitialKeyState.Activated));\n        _;\n    }\n\n    function checkIfMiningExisted(address _currentKey, address _newKey)\n        public\n        view\n        returns(bool)\n    {\n        require(msg.data.length >= 32*2 + 4);\n\n        if (isMiningActive(_newKey)) {\n            return true;\n        }\n\n        if (_currentKey == address(0)) {\n            return false;\n        }\n        \n        address currentKey = _currentKey;\n        uint256 maxDeep = maxOldMiningKeysDeepCheck();\n        \n        for (uint256 i = 0; i < maxDeep; i++) {\n            address oldMiningKey = getMiningKeyHistory(currentKey);\n            if (oldMiningKey == address(0)) {\n                return false;\n            }\n            if (oldMiningKey == _newKey) {\n                return true;\n            }\n            currentKey = oldMiningKey;\n        }\n        \n        return false;\n    }\n\n    function maxLimitValidators() public pure returns(uint256) {\n        return 2000;\n    }\n\n    function maxOldMiningKeysDeepCheck() public pure returns(uint256) {\n        return 25;\n    }\n\n    function masterOfCeremony() public view returns(address) {\n        return IPoaNetworkConsensus(poaNetworkConsensus()).masterOfCeremony();\n    }\n\n    function previousKeysManager() public view returns(address) {\n        return addressStorage[PREVIOUS_KEYS_MANAGER];\n    }\n\n    function proxyStorage() public view returns(address) {\n        return addressStorage[PROXY_STORAGE];\n    }\n\n    function poaNetworkConsensus() public view returns(address) {\n        return IProxyStorage(proxyStorage()).getPoaConsensus();\n    }\n\n    function maxNumberOfInitialKeys() public pure returns(uint256) {\n        return 12;\n    }\n\n    function initialKeysCount() public view returns(uint256) {\n        return uintStorage[INITIAL_KEYS_COUNT];\n    }\n\n    function getInitialKeyStatus(address _initialKey) public view returns(uint256) {\n        return uintStorage[\n            keccak256(abi.encode(INITIAL_KEY_STATUS, _initialKey))\n        ];\n    }\n\n    function miningKeyByPayout(address _payoutKey) public view returns(address) {\n        return addressStorage[\n            keccak256(abi.encode(MINING_KEY_BY_PAYOUT, _payoutKey))\n        ];\n    }\n\n    function miningKeyByVoting(address _votingKey) public view returns(address) {\n        return addressStorage[\n            keccak256(abi.encode(MINING_KEY_BY_VOTING, _votingKey))\n        ];\n    }\n\n    function miningKeyHistory(address _miningKey) public view returns(address) {\n        return addressStorage[\n            keccak256(abi.encode(MINING_KEY_HISTORY, _miningKey))\n        ];\n    }\n\n    function successfulValidatorClone(address _miningKey) public view returns(bool) {\n        return boolStorage[\n            keccak256(abi.encode(SUCCESSFUL_VALIDATOR_CLONE, _miningKey))\n        ];\n    }\n\n    function validatorKeys(address _miningKey) public view returns(\n        address validatorVotingKey,\n        address validatorPayoutKey,\n        bool isValidatorMiningActive,\n        bool isValidatorVotingActive,\n        bool isValidatorPayoutActive\n    ) {\n        validatorVotingKey = getVotingByMining(_miningKey);\n        validatorPayoutKey = getPayoutByMining(_miningKey);\n        isValidatorMiningActive = isMiningActive(_miningKey);\n        isValidatorVotingActive = isVotingActiveByMiningKey(_miningKey);\n        isValidatorPayoutActive = isPayoutActive(_miningKey);\n    }\n\n    function initDisabled() public view returns(bool) {\n        return boolStorage[INIT_DISABLED];\n    }\n\n    function init(\n        address _previousKeysManager\n    ) public onlyOwner {\n        require(!initDisabled());\n        address _masterOfCeremony = masterOfCeremony();\n        require(_masterOfCeremony != address(0));\n        require(_masterOfCeremony != poaNetworkConsensus());\n        _setVotingKey(address(0), _masterOfCeremony);\n        _setPayoutKey(address(0), _masterOfCeremony);\n        _setIsMiningActive(true, _masterOfCeremony);\n        _setIsVotingActive(false, _masterOfCeremony);\n        _setIsPayoutActive(false, _masterOfCeremony);\n        _setSuccessfulValidatorClone(true, _masterOfCeremony);\n        emit Migrated(\"miningKey\", _masterOfCeremony);\n        if (_previousKeysManager != address(0)) {\n            _setPreviousKeysManager(_previousKeysManager);\n            IKeysManager previous = IKeysManager(_previousKeysManager);\n            _setInitialKeysCount(previous.initialKeysCount());\n        }\n        boolStorage[INIT_DISABLED] = true;\n    }\n\n    function migrateMiningKey(\n        address _miningKey\n    ) public onlyOwner {\n        require(previousKeysManager() != address(0));\n        IKeysManager previous = IKeysManager(previousKeysManager());\n        require(_miningKey != address(0));\n        require(previous.isMiningActive(_miningKey));\n        require(!isMiningActive(_miningKey));\n        require(!successfulValidatorClone(_miningKey));\n        address votingKey = previous.getVotingByMining(_miningKey);\n        address payoutKey = previous.getPayoutByMining(_miningKey);\n        _setVotingKey(votingKey, _miningKey);\n        _setPayoutKey(payoutKey, _miningKey);\n        _setIsMiningActive(previous.isMiningActive(_miningKey), _miningKey);\n        _setIsVotingActive(previous.isVotingActive(votingKey), _miningKey);\n        _setIsPayoutActive(previous.isPayoutActive(_miningKey), _miningKey);\n        _setMiningKeyByVoting(votingKey, _miningKey);\n        _setMiningKeyByPayout(payoutKey, _miningKey);\n        _setSuccessfulValidatorClone(true, _miningKey);\n        address currentMiningKey = _miningKey;\n        uint256 maxMiningKeyHistoryDeep = maxOldMiningKeysDeepCheck();\n        for (uint256 i = 0; i < maxMiningKeyHistoryDeep; i++) {\n            address oldMiningKey = previous.getMiningKeyHistory(currentMiningKey);\n            if (oldMiningKey == address(0)) {\n                break;\n            }\n            _setMiningKeyHistory(currentMiningKey, oldMiningKey);\n            currentMiningKey = oldMiningKey;\n        }\n        emit Migrated(\"miningKey\", _miningKey);\n    }\n\n    function migrateInitialKey(address _initialKey) public onlyOwner {\n        require(getInitialKeyStatus(_initialKey) == uint256(InitialKeyState.Invalid));\n        require(_initialKey != address(0));\n        require(previousKeysManager() != address(0));\n        IKeysManagerPrev previous = IKeysManagerPrev(previousKeysManager());\n        uint256 status = previous.getInitialKey(_initialKey);\n        require(\n            status == uint256(InitialKeyState.Activated) ||\n            status == uint256(InitialKeyState.Deactivated)\n        );\n        _setInitialKeyStatus(status, _initialKey);\n        emit Migrated(\"initialKey\", _initialKey);\n    }\n\n    function initiateKeys(address _initialKey) public {\n        require(msg.sender == masterOfCeremony());\n        require(_initialKey != address(0));\n        require(getInitialKeyStatus(_initialKey) == uint256(InitialKeyState.Invalid));\n        require(_initialKey != masterOfCeremony());\n        uint256 _initialKeysCount = initialKeysCount();\n        require(_initialKeysCount < maxNumberOfInitialKeys());\n        _setInitialKeyStatus(uint256(InitialKeyState.Activated), _initialKey);\n        _initialKeysCount = _initialKeysCount.add(1);\n        _setInitialKeysCount(_initialKeysCount);\n        emit InitialKeyCreated(_initialKey, getTime(), _initialKeysCount);\n    }\n\n    function createKeys(\n        address _miningKey,\n        address _votingKey,\n        address _payoutKey\n    )\n        public\n        onlyValidInitialKey\n    {\n        require(_withinTotalLimit());\n        require(_miningKey != address(0));\n        require(_votingKey != address(0));\n        require(_payoutKey != address(0));\n        require(_miningKey != _votingKey);\n        require(_miningKey != _payoutKey);\n        require(_votingKey != _payoutKey);\n        require(_miningKey != msg.sender);\n        require(_votingKey != msg.sender);\n        require(_payoutKey != msg.sender);\n        require(!isMiningActive(_miningKey));\n        require(miningKeyByVoting(_votingKey) == address(0));\n        require(miningKeyByPayout(_payoutKey) == address(0));\n        require(getVotingByMining(_miningKey) == address(0));\n        require(getPayoutByMining(_miningKey) == address(0));\n        if (!IPoaNetworkConsensus(poaNetworkConsensus()).addValidator(_miningKey, true)) {\n            revert();\n        }\n        _setVotingKey(_votingKey, _miningKey);\n        _setPayoutKey(_payoutKey, _miningKey);\n        _setIsMiningActive(true, _miningKey);\n        _setIsVotingActive(true, _miningKey);\n        _setIsPayoutActive(true, _miningKey);\n        _setMiningKeyByVoting(_votingKey, _miningKey);\n        _setMiningKeyByPayout(_payoutKey, _miningKey);\n        _setInitialKeyStatus(uint256(InitialKeyState.Deactivated), msg.sender);\n        emit ValidatorInitialized(_miningKey, _votingKey, _payoutKey);\n    }\n\n    function getTime() public view returns(uint256) {\n        return now;\n    }\n\n    function getVotingToChangeKeys() public view returns(address) {\n        return IProxyStorage(proxyStorage()).getVotingToChangeKeys();\n    }\n\n    function isMiningActive(address _key) public view returns(bool) {\n        return boolStorage[\n            keccak256(abi.encode(VALIDATOR_KEYS, _key, IS_MINING_ACTIVE))\n        ];\n    }\n\n    function isVotingActive(address _votingKey) public view returns(bool) {\n        address miningKey = miningKeyByVoting(_votingKey);\n        return isVotingActiveByMiningKey(miningKey);\n    }\n\n    function isVotingActiveByMiningKey(address _miningKey) public view returns(bool) {\n        return boolStorage[\n            keccak256(abi.encode(VALIDATOR_KEYS, _miningKey, IS_VOTING_ACTIVE))\n        ];\n    }\n\n    function isPayoutActive(address _miningKey) public view returns(bool) {\n        return boolStorage[\n            keccak256(abi.encode(VALIDATOR_KEYS, _miningKey, IS_PAYOUT_ACTIVE))\n        ];\n    }\n\n    function getVotingByMining(address _miningKey) public view returns(address) {\n        return addressStorage[\n            keccak256(abi.encode(VALIDATOR_KEYS, _miningKey, VOTING_KEY))\n        ];\n    }\n\n    function getPayoutByMining(address _miningKey) public view returns(address) {\n        return addressStorage[\n            keccak256(abi.encode(VALIDATOR_KEYS, _miningKey, PAYOUT_KEY))\n        ];\n    }\n\n    function getMiningKeyHistory(address _miningKey) public view returns(address) {\n        return miningKeyHistory(_miningKey);\n    }\n\n    function getMiningKeyByVoting(address _votingKey) public view returns(address) {\n        return miningKeyByVoting(_votingKey);\n    }\n\n    function addMiningKey(address _key) public onlyVotingToChangeKeys returns(bool) {\n        if (!_withinTotalLimit()) return false;\n        if (!initDisabled()) return false;\n        if (!IPoaNetworkConsensus(poaNetworkConsensus()).addValidator(_key, true)) {\n            return false;\n        }\n        _setVotingKey(address(0), _key);\n        _setPayoutKey(address(0), _key);\n        _setIsMiningActive(true, _key);\n        _setIsVotingActive(false, _key);\n        _setIsPayoutActive(false, _key);\n        emit MiningKeyChanged(_key, \"added\");\n        return true;\n    }\n\n    function addVotingKey(address _key, address _miningKey) public onlyVotingToChangeKeys returns(bool) {\n        if (isVotingActiveByMiningKey(_miningKey) && getVotingByMining(_miningKey) != address(0)) {\n            return swapVotingKey(_key, _miningKey);\n        }\n        if (_addVotingPayoutKeyAllowed(_key, _miningKey)) {\n            _addVotingKey(_key, _miningKey);\n            return true;\n        }\n        return false;\n    }\n\n    function addPayoutKey(address _key, address _miningKey) public onlyVotingToChangeKeys returns(bool) {\n        if (isPayoutActive(_miningKey) && getPayoutByMining(_miningKey) != address(0)) {\n            return swapPayoutKey(_key, _miningKey);\n        }\n        if (_addVotingPayoutKeyAllowed(_key, _miningKey)) {\n            _addPayoutKey(_key, _miningKey);\n            return true;\n        }\n        return false;\n    }\n\n    function removeMiningKey(address _key) public onlyVotingToChangeKeys returns(bool) {\n        if (!initDisabled()) return false;\n        if (!isMiningActive(_key)) return false;\n        if (_key == masterOfCeremony() && initialKeysCount() < maxNumberOfInitialKeys()) return false;\n        if (!IPoaNetworkConsensus(poaNetworkConsensus()).removeValidator(_key, true)) return false;\n        address votingKey = getVotingByMining(_key);\n        address payoutKey = getPayoutByMining(_key);\n        _setMiningKeyByVoting(votingKey, address(0));\n        _setMiningKeyByPayout(payoutKey, address(0));\n        _clearMiningKey(_key);\n        _getValidatorMetadata().clearMetadata(_key);\n        emit MiningKeyChanged(_key, \"removed\");\n        if (votingKey != address(0)) {\n            emit VotingKeyChanged(votingKey, _key, \"removed\");\n        }\n        if (payoutKey != address(0)) {\n            emit PayoutKeyChanged(payoutKey, _key, \"removed\");\n        }\n        return true;\n    }\n\n    function removeVotingKey(address _miningKey) public onlyVotingToChangeKeys returns(bool) {\n        if (_removeVotingKeyAllowed(_miningKey)) {\n            _removeVotingKey(_miningKey);\n            return true;\n        }\n        return false;\n    }\n\n    function removePayoutKey(address _miningKey) public onlyVotingToChangeKeys returns(bool) {\n        if (_removePayoutKeyAllowed(_miningKey)) {\n            _removePayoutKey(_miningKey);\n            return true;\n        }\n        return false;\n    }\n\n    function swapMiningKey(address _key, address _oldMiningKey)\n        public\n        onlyVotingToChangeKeys\n        returns(bool)\n    {\n        if (_key == _oldMiningKey) return false;\n        if (!isMiningActive(_oldMiningKey)) return false;\n        if (!IPoaNetworkConsensus(poaNetworkConsensus()).swapValidatorKey(_key, _oldMiningKey)) {\n            return false;\n        }\n        _setMiningKeyHistory(_key, _oldMiningKey);\n        address votingKey = getVotingByMining(_oldMiningKey);\n        address payoutKey = getPayoutByMining(_oldMiningKey);\n        _setVotingKey(votingKey, _key);\n        _setPayoutKey(payoutKey, _key);\n        _setIsMiningActive(true, _key);\n        _setIsVotingActive(isVotingActive(votingKey), _key);\n        _setIsPayoutActive(isPayoutActive(_oldMiningKey), _key);\n        _clearMiningKey(_oldMiningKey);\n        _setMiningKeyByVoting(votingKey, _key);\n        _setMiningKeyByPayout(payoutKey, _key);\n        _getValidatorMetadata().moveMetadata(_oldMiningKey, _key);\n        emit MiningKeyChanged(_key, \"swapped\");\n        return true;\n    }\n\n    function swapVotingKey(address _key, address _miningKey) public onlyVotingToChangeKeys returns(bool) {\n        if (!_removeVotingKeyAllowed(_miningKey) || !_addVotingPayoutKeyAllowed(_key, _miningKey)) return false;\n        _removeVotingKey(_miningKey);\n        _addVotingKey(_key, _miningKey);\n        return true;\n    }\n\n    function swapPayoutKey(address _key, address _miningKey) public onlyVotingToChangeKeys returns(bool) {\n        if (!_removePayoutKeyAllowed(_miningKey) || !_addVotingPayoutKeyAllowed(_key, _miningKey)) return false;\n        _removePayoutKey(_miningKey);\n        _addPayoutKey(_key, _miningKey);\n        return true;\n    }\n\n    function _addVotingKey(address _key, address _miningKey) private {\n        _setVotingKey(_key, _miningKey);\n        _setIsVotingActive(true, _miningKey);\n        _setMiningKeyByVoting(_key, _miningKey);\n        emit VotingKeyChanged(_key, _miningKey, \"added\");\n    }\n\n    function _addVotingPayoutKeyAllowed(address _key, address _miningKey) private view returns(bool) {\n        if (!initDisabled()) return false;\n        if (!isMiningActive(_miningKey)) return false;\n        if (_key == _miningKey) return false;\n        return true;\n    }\n\n    function _addPayoutKey(address _key, address _miningKey) private {\n        _setPayoutKey(_key, _miningKey);\n        _setIsPayoutActive(true, _miningKey);\n        _setMiningKeyByPayout(_key, _miningKey);\n        emit PayoutKeyChanged(_key, _miningKey, \"added\");\n    }\n\n    function _clearMiningKey(address _miningKey) private {\n        _setVotingKey(address(0), _miningKey);\n        _setPayoutKey(address(0), _miningKey);\n        _setIsMiningActive(false, _miningKey);\n        _setIsVotingActive(false, _miningKey);\n        _setIsPayoutActive(false, _miningKey);\n    }\n\n    function _getValidatorMetadata() private view returns(IValidatorMetadata) {\n        return IValidatorMetadata(IProxyStorage(proxyStorage()).getValidatorMetadata());\n    }\n\n    function _removeVotingKey(address _miningKey) private {\n        address oldVoting = getVotingByMining(_miningKey);\n        _setVotingKey(address(0), _miningKey);\n        _setIsVotingActive(false, _miningKey);\n        _setMiningKeyByVoting(oldVoting, address(0));\n        emit VotingKeyChanged(oldVoting, _miningKey, \"removed\");\n    }\n\n    function _removeVotingKeyAllowed(address _miningKey) private view returns(bool) {\n        if (!initDisabled()) return false;\n        if (!isVotingActiveByMiningKey(_miningKey)) return false;\n        return true;\n    }\n\n    function _removePayoutKey(address _miningKey) private {\n        address oldPayout = getPayoutByMining(_miningKey);\n        _setPayoutKey(address(0), _miningKey);\n        _setIsPayoutActive(false, _miningKey);\n        _setMiningKeyByPayout(oldPayout, address(0));\n        emit PayoutKeyChanged(oldPayout, _miningKey, \"removed\");\n    }\n\n    function _removePayoutKeyAllowed(address _miningKey) private view returns(bool) {\n        if (!initDisabled()) return false;\n        if (!isPayoutActive(_miningKey)) return false;\n        return true;\n    }\n\n    function _setPreviousKeysManager(address _keysManager) private {\n        addressStorage[PREVIOUS_KEYS_MANAGER] = _keysManager;\n    }\n\n    function _setInitialKeysCount(uint256 _count) private {\n        uintStorage[INITIAL_KEYS_COUNT] = _count;\n    }\n\n    function _setInitialKeyStatus(uint256 _status, address _initialKey) private {\n        uintStorage[\n            keccak256(abi.encode(INITIAL_KEY_STATUS, _initialKey))\n        ] = _status;\n    }\n\n    function _setVotingKey(address _key, address _miningKey) private {\n        addressStorage[\n            keccak256(abi.encode(VALIDATOR_KEYS, _miningKey, VOTING_KEY))\n        ] = _key;\n    }\n\n    function _setPayoutKey(address _key, address _miningKey) private {\n        addressStorage[\n            keccak256(abi.encode(VALIDATOR_KEYS, _miningKey, PAYOUT_KEY))\n        ] = _key;\n    }\n\n    function _setIsMiningActive(bool _active, address _miningKey) private {\n        boolStorage[\n            keccak256(abi.encode(VALIDATOR_KEYS, _miningKey, IS_MINING_ACTIVE))\n        ] = _active;\n    }\n\n    function _setIsVotingActive(bool _active, address _miningKey) private {\n        boolStorage[\n            keccak256(abi.encode(VALIDATOR_KEYS, _miningKey, IS_VOTING_ACTIVE))\n        ] = _active;\n    }\n\n    function _setIsPayoutActive(bool _active, address _miningKey) private {\n        boolStorage[\n            keccak256(abi.encode(VALIDATOR_KEYS, _miningKey, IS_PAYOUT_ACTIVE))\n        ] = _active;\n    }\n\n    function _setMiningKeyByPayout(address _payoutKey, address _miningKey) private {\n        if (_payoutKey == address(0)) return;\n        addressStorage[\n            keccak256(abi.encode(MINING_KEY_BY_PAYOUT, _payoutKey))\n        ] = _miningKey;\n    }\n\n    function _setMiningKeyByVoting(address _votingKey, address _miningKey) private {\n        if (_votingKey == address(0)) return;\n        addressStorage[\n            keccak256(abi.encode(MINING_KEY_BY_VOTING, _votingKey))\n        ] = _miningKey;\n    }\n\n    function _setMiningKeyHistory(address _key, address _oldMiningKey) private {\n        addressStorage[\n            keccak256(abi.encode(MINING_KEY_HISTORY, _key))\n        ] = _oldMiningKey;\n    }\n\n    function _setSuccessfulValidatorClone(bool _success, address _miningKey) private {\n        boolStorage[\n            keccak256(abi.encode(SUCCESSFUL_VALIDATOR_CLONE, _miningKey))\n        ] = _success;\n    }\n\n    function _withinTotalLimit() private view returns(bool) {\n        IPoaNetworkConsensus poa = IPoaNetworkConsensus(poaNetworkConsensus());\n        return poa.getCurrentValidatorsLength() < maxLimitValidators();\n    }\n}\n",
  "sourcePath": "/home/moc/poa-network-consensus-contracts/contracts/KeysManager.sol",
  "compiler": {
    "name": "solc",
    "version": "0.4.24+commit.e67f0147.Emscripten.clang"
  },
  "schemaVersion": "2.0.1",
  "updatedAt": "2018-11-18T12:51:15.602Z"
}