{
  "contractName": "RewardByBlock",
  "abi": [
    {
      "constant": true,
      "inputs": [],
      "name": "bridgesAllowedLength",
      "outputs": [
        {
          "name": "",
          "type": "uint256"
        }
      ],
      "payable": false,
      "stateMutability": "view",
      "type": "function"
    },
    {
      "constant": true,
      "inputs": [],
      "name": "emissionFunds",
      "outputs": [
        {
          "name": "",
          "type": "address"
        }
      ],
      "payable": false,
      "stateMutability": "view",
      "type": "function"
    },
    {
      "constant": true,
      "inputs": [],
      "name": "blockRewardAmount",
      "outputs": [
        {
          "name": "",
          "type": "uint256"
        }
      ],
      "payable": false,
      "stateMutability": "view",
      "type": "function"
    },
    {
      "constant": true,
      "inputs": [],
      "name": "emissionFundsAmount",
      "outputs": [
        {
          "name": "",
          "type": "uint256"
        }
      ],
      "payable": false,
      "stateMutability": "view",
      "type": "function"
    },
    {
      "anonymous": false,
      "inputs": [
        {
          "indexed": false,
          "name": "amount",
          "type": "uint256"
        },
        {
          "indexed": true,
          "name": "receiver",
          "type": "address"
        },
        {
          "indexed": true,
          "name": "bridge",
          "type": "address"
        }
      ],
      "name": "AddedReceiver",
      "type": "event"
    },
    {
      "anonymous": false,
      "inputs": [
        {
          "indexed": false,
          "name": "receivers",
          "type": "address[]"
        },
        {
          "indexed": false,
          "name": "rewards",
          "type": "uint256[]"
        }
      ],
      "name": "Rewarded",
      "type": "event"
    },
    {
      "constant": false,
      "inputs": [
        {
          "name": "_amount",
          "type": "uint256"
        },
        {
          "name": "_receiver",
          "type": "address"
        }
      ],
      "name": "addExtraReceiver",
      "outputs": [],
      "payable": false,
      "stateMutability": "nonpayable",
      "type": "function"
    },
    {
      "constant": false,
      "inputs": [
        {
          "name": "benefactors",
          "type": "address[]"
        },
        {
          "name": "kind",
          "type": "uint16[]"
        }
      ],
      "name": "reward",
      "outputs": [
        {
          "name": "",
          "type": "address[]"
        },
        {
          "name": "",
          "type": "uint256[]"
        }
      ],
      "payable": false,
      "stateMutability": "nonpayable",
      "type": "function"
    },
    {
      "constant": true,
      "inputs": [],
      "name": "bridgesAllowed",
      "outputs": [
        {
          "name": "",
          "type": "address[1]"
        }
      ],
      "payable": false,
      "stateMutability": "pure",
      "type": "function"
    },
    {
      "constant": true,
      "inputs": [
        {
          "name": "_bridge",
          "type": "address"
        }
      ],
      "name": "bridgeAmount",
      "outputs": [
        {
          "name": "",
          "type": "uint256"
        }
      ],
      "payable": false,
      "stateMutability": "view",
      "type": "function"
    },
    {
      "constant": true,
      "inputs": [
        {
          "name": "_index",
          "type": "uint256"
        }
      ],
      "name": "extraReceiverByIndex",
      "outputs": [
        {
          "name": "",
          "type": "address"
        }
      ],
      "payable": false,
      "stateMutability": "view",
      "type": "function"
    },
    {
      "constant": true,
      "inputs": [
        {
          "name": "_receiver",
          "type": "address"
        }
      ],
      "name": "extraReceiverAmount",
      "outputs": [
        {
          "name": "",
          "type": "uint256"
        }
      ],
      "payable": false,
      "stateMutability": "view",
      "type": "function"
    },
    {
      "constant": true,
      "inputs": [],
      "name": "extraReceiversLength",
      "outputs": [
        {
          "name": "",
          "type": "uint256"
        }
      ],
      "payable": false,
      "stateMutability": "view",
      "type": "function"
    },
    {
      "constant": true,
      "inputs": [
        {
          "name": "_account",
          "type": "address"
        }
      ],
      "name": "mintedForAccount",
      "outputs": [
        {
          "name": "",
          "type": "uint256"
        }
      ],
      "payable": false,
      "stateMutability": "view",
      "type": "function"
    },
    {
      "constant": true,
      "inputs": [
        {
          "name": "_account",
          "type": "address"
        },
        {
          "name": "_blockNumber",
          "type": "uint256"
        }
      ],
      "name": "mintedForAccountInBlock",
      "outputs": [
        {
          "name": "",
          "type": "uint256"
        }
      ],
      "payable": false,
      "stateMutability": "view",
      "type": "function"
    },
    {
      "constant": true,
      "inputs": [
        {
          "name": "_blockNumber",
          "type": "uint256"
        }
      ],
      "name": "mintedInBlock",
      "outputs": [
        {
          "name": "",
          "type": "uint256"
        }
      ],
      "payable": false,
      "stateMutability": "view",
      "type": "function"
    },
    {
      "constant": true,
      "inputs": [],
      "name": "mintedTotally",
      "outputs": [
        {
          "name": "",
          "type": "uint256"
        }
      ],
      "payable": false,
      "stateMutability": "view",
      "type": "function"
    },
    {
      "constant": true,
      "inputs": [
        {
          "name": "_bridge",
          "type": "address"
        }
      ],
      "name": "mintedTotallyByBridge",
      "outputs": [
        {
          "name": "",
          "type": "uint256"
        }
      ],
      "payable": false,
      "stateMutability": "view",
      "type": "function"
    },
    {
      "constant": true,
      "inputs": [],
      "name": "proxyStorage",
      "outputs": [
        {
          "name": "",
          "type": "address"
        }
      ],
      "payable": false,
      "stateMutability": "view",
      "type": "function"
    }
  ],
  "bytecode": "0x608060405234801561001057600080fd5b506115d8806100206000396000f3006080604052600436106100d75763ffffffff60e060020a6000350416630f3a053381146100dc57806310f2ee7c1461010f5780631f4356e41461012457806326cc22561461015557806330f6eb161461016a5780633d84b8c11461018e5780634476d66a146101af578063553a5c85146101c7578063899ca7fc146101dc578063aa9fa27414610229578063ae4b1b5b1461024f578063b4a523e814610264578063db456f7714610285578063e73b9e2f1461029d578063ee8d75ff14610155578063efdc4d01146102be578063f91c2898146102d3575b600080fd5b3480156100e857600080fd5b506100fd600160a060020a0360043516610398565b60408051918252519081900360200190f35b34801561011b57600080fd5b506100fd61045b565b34801561013057600080fd5b50610139610460565b60408051600160a060020a039092168252519081900360200190f35b34801561016157600080fd5b506100fd610460565b34801561017657600080fd5b506100fd600160a060020a0360043516602435610465565b34801561019a57600080fd5b506100fd600160a060020a0360043516610532565b3480156101bb57600080fd5b506100fd6004356105b3565b3480156101d357600080fd5b506100fd61062c565b3480156101e857600080fd5b506101f161066e565b6040518082602080838360005b838110156102165781810151838201526020016101fe565b5050505090500191505060405180910390f35b34801561023557600080fd5b5061024d600435600160a060020a036024351661069c565b005b34801561025b57600080fd5b5061013961076e565b34801561027057600080fd5b506100fd600160a060020a03600435166107b8565b34801561029157600080fd5b50610139600435610839565b3480156102a957600080fd5b506100fd600160a060020a036004351661088d565b3480156102ca57600080fd5b506100fd61090e565b3480156102df57600080fd5b506102ff602460048035828101929082013591813591820191013561093d565b604051808060200180602001838103835285818151815260200191508051906020019060200280838360005b8381101561034357818101518382015260200161032b565b50505050905001838103825284818151815260200191508051906020019060200280838360005b8381101561038257818101518382015260200161036a565b5050505090500194505050505060405180910390f35b604080517f65787472615265636569766572416d6f756e7400000000000000000000000000602080830191909152600160a060020a0384168284015282518083038401815260609092019283905281516000936002938593909282918401908083835b6020831061041a5780518252601f1990920191602091820191016103fb565b51815160209384036101000a600019018019909216911617905260408051929094018290039091208652850195909552929092016000205495945050505050565b600181565b600081565b604080517f6d696e746564466f724163636f756e74496e426c6f636b000000000000000000602080830191909152600160a060020a0385168284015260608083018590528351808403909101815260809092019283905281516000936002938593909282918401908083835b602083106104f05780518252601f1990920191602091820191016104d1565b51815160209384036101000a60001901801990921691161790526040805192909401829003909120865285019590955292909201600020549695505050505050565b604080517f6d696e746564466f724163636f756e7400000000000000000000000000000000602080830191909152600160a060020a0384168284015282518083038401815260609092019283905281516000936002938593909282918401908083836020831061041a5780518252601f1990920191602091820191016103fb565b604080517f6d696e746564496e426c6f636b0000000000000000000000000000000000000060208083019190915281830184905282518083038401815260609092019283905281516000936002938593909282918401908083836020831061041a5780518252601f1990920191602091820191016103fb565b604080517f6d696e746564546f74616c6c79000000000000000000000000000000000000008152815190819003600d0190206000908152600260205220545b90565b610676611526565b50604080516020810190915273cc72606b61cac992e9f49e13197b9ba45ef2186d815290565b60006106a733610cfd565b15156106b257600080fd5b8215156106be57600080fd5b600160a060020a03821615156106d357600080fd5b6106dc82610398565b90508015156106ee576106ee82610d68565b610707610701828563ffffffff610dd416565b83610dea565b610729610723846107173361088d565b9063ffffffff610dd416565b33610eae565b6040805184815290513391600160a060020a038516917f3c798bbcf33115b42c728b8504cff11dd58736e9fa789f1cda2738db7d696b2a9181900360200190a3505050565b604080517f70726f787953746f7261676500000000000000000000000000000000000000008152815190819003600c019020600090815260046020522054600160a060020a031690565b604080517f6d696e746564546f74616c6c7942794272696467650000000000000000000000602080830191909152600160a060020a0384168284015282518083038401815260609092019283905281516000936002938593909282918401908083836020831061041a5780518252601f1990920191602091820191016103fb565b6040805160008051602061158d8339815191528152815190819003600e0190206000908152600b60205290812080548390811061087257fe5b600091825260209091200154600160a060020a031692915050565b604080517f627269646765416d6f756e740000000000000000000000000000000000000000602080830191909152600160a060020a0384168284015282518083038401815260609092019283905281516000936002938593909282918401908083836020831061041a5780518252601f1990920191602091820191016103fb565b6040805160008051602061158d8339815191528152815190819003600e0190206000908152600b602052205490565b6060806000808280828080808073fffffffffffffffffffffffffffffffffffffffe331461096a57600080fd5b8d8c1461097657600080fd5b60018e1461098357600080fd5b8c8c600081811061099057fe5b9050602002013561ffff1661ffff1660001415156109ad57600080fd5b8e8e60008181106109ba57fe5b90506020020135600160a060020a031698506109d589610f2f565b15156109e057600080fd5b6109e861090e565b97506109fb88600263ffffffff610dd416565b604051908082528060200260200182016040528015610a24578160200160208202803883390190505b5096508651604051908082528060200260200182016040528015610a52578160200160208202803883390190505b509550610a5e8961103e565b876000815181101515610a6d57fe5b600160a060020a039092166020928302909101909101528551600090879082908110610a9557fe5b60209081029091010152865160009088906001908110610ab157fe5b600160a060020a03909216602092830290910190910152855160009087906001908110610ada57fe5b60209081029091010152600094505b87851015610b7857610afa85610839565b9350610b0584610398565b9250610b12600085610dea565b8387610b2587600263ffffffff610dd416565b81518110610b2f57fe5b600160a060020a039092166020928302909101909101528286610b5987600263ffffffff610dd416565b81518110610b6357fe5b60209081029091010152600190940193610ae9565b600094505b8651851015610bc957610bbe8686815181101515610b9757fe5b906020019060200201518887815181101515610baf57fe5b9060200190602002015161116a565b600190940193610b7d565b600094505b6001851015610c2557610bdf61066e565b8560018110610bea57fe5b60200201519150610bfa8261088d565b90506000811115610c1a57610c10600083610eae565b610c1a8183611426565b600190940193610bce565b610c2d6114ec565b7fb747d4e9a0b39cc47496d84b42e4066ba8b8a0b89776528bcec4ac2997e224538787604051808060200180602001838103835285818151815260200191508051906020019060200280838360005b83811015610c94578181015183820152602001610c7c565b50505050905001838103825284818151815260200191508051906020019060200280838360005b83811015610cd3578181015183820152602001610cbb565b5050505090500194505050505060405180910390a150949d939c50929a5050505050505050505050565b6000610d07611526565b6000610d1161066e565b9150600090505b6001811015610d5c57818160018110610d2d57fe5b6020020151600160a060020a031684600160a060020a03161415610d545760019250610d61565b600101610d18565b600092505b5050919050565b6040805160008051602061158d8339815191528152815190819003600e0190206000908152600b60209081529181208054600181018255908252919020018054600160a060020a0390921673ffffffffffffffffffffffffffffffffffffffff19909216919091179055565b600082820183811015610de357fe5b9392505050565b604080517f65787472615265636569766572416d6f756e7400000000000000000000000000602080830191909152600160a060020a0384168284015282518083038401815260609092019283905281518593600293600093909282918401908083835b60208310610e6c5780518252601f199092019160209182019101610e4d565b51815160209384036101000a60001901801990921691161790526040805192909401829003909120865285019590955292909201600020939093555050505050565b604080517f627269646765416d6f756e740000000000000000000000000000000000000000602080830191909152600160a060020a03841682840152825180830384018152606090920192839052815185936002936000939092829184019080838360208310610e6c5780518252601f199092019160209182019101610e4d565b600080610f3a61076e565b600160a060020a0316639a5737866040518163ffffffff1660e060020a028152600401602060405180830381600087803b158015610f7757600080fd5b505af1158015610f8b573d6000803e3d6000fd5b505050506040513d6020811015610fa157600080fd5b5051604080517f9bc91c22000000000000000000000000000000000000000000000000000000008152600160a060020a038681166004830152915192935090831691639bc91c22916024808201926020929091908290030181600087803b15801561100b57600080fd5b505af115801561101f573d6000803e3d6000fd5b505050506040513d602081101561103557600080fd5b50519392505050565b600080600061104b61076e565b600160a060020a0316639a5737866040518163ffffffff1660e060020a028152600401602060405180830381600087803b15801561108857600080fd5b505af115801561109c573d6000803e3d6000fd5b505050506040513d60208110156110b257600080fd5b5051604080517f7cded930000000000000000000000000000000000000000000000000000000008152600160a060020a038781166004830152915192945090841691637cded930916024808201926020929091908290030181600087803b15801561111c57600080fd5b505af1158015611130573d6000803e3d6000fd5b505050506040513d602081101561114657600080fd5b50519050600160a060020a03811615156111605783611162565b805b949350505050565b604080517f6d696e746564466f724163636f756e74496e426c6f636b000000000000000000602080830191909152600160a060020a0384168284015243606080840191909152835180840390910181526080909201928390528151600093918291908401908083835b602083106111f25780518252601f1990920191602091820191016111d3565b51815160209384036101000a6000190180199092169116179052604080519290940182900382206000818152600283528590208a90557f6d696e746564466f724163636f756e740000000000000000000000000000000083830152600160a060020a0389168386015284518084038601815260609093019485905282519097509195509293508392850191508083835b602083106112a15780518252601f199092019160209182019101611282565b51815160209384036101000a6000190180199092169116179052604080519290940182900390912060008181526002909252929020549194506112ea9350909150859050610dd4565b6000828152600260209081526040918290209290925580517f6d696e746564496e426c6f636b00000000000000000000000000000000000000818401524381830152815180820383018152606090910191829052805190928291908401908083835b6020831061136b5780518252601f19909201916020918201910161134c565b51815160209384036101000a6000190180199092169116179052604080519290940182900390912060008181526002909252929020549194506113b49350909150859050610dd4565b60009182526002602081815260408085209390935582517f6d696e746564546f74616c6c79000000000000000000000000000000000000008152835190819003600d019020808552919052912054611412908463ffffffff610dd416565b600091825260026020526040909120555050565b604080517f6d696e746564546f74616c6c7942794272696467650000000000000000000000602080830191909152600160a060020a038416828401528251808303840181526060909201928390528151600093918291908401908083835b602083106114a35780518252601f199092019160209182019101611484565b51815160209384036101000a6000190180199092169116179052604080519290940182900390912060008181526002909252929020549194506114129350909150859050610dd4565b6040805160008051602061158d8339815191528152815190819003600e0190206000908152600b6020529081206115239082611545565b50565b6020604051908101604052806001906020820280388339509192915050565b8154818355818111156115695760008381526020902061156991810190830161156e565b505050565b61066b91905b808211156115885760008155600101611574565b509056006578747261526563656976657273000000000000000000000000000000000000a165627a7a723058201a02528376ee87845b037f377c5542ae884ee687eab39fda628bbe79afc035910029",
  "source": "pragma solidity ^0.4.24;\n\nimport \"./interfaces/IRewardByBlock.sol\";\nimport \"./interfaces/IKeysManager.sol\";\nimport \"./interfaces/IProxyStorage.sol\";\nimport \"./eternal-storage/EternalStorage.sol\";\nimport \"./libs/SafeMath.sol\";\n\n\ncontract RewardByBlock is EternalStorage, IRewardByBlock {\n    using SafeMath for uint256;\n\n    bytes32 internal constant EXTRA_RECEIVERS = keccak256(\"extraReceivers\");\n    bytes32 internal constant PROXY_STORAGE = keccak256(\"proxyStorage\");\n    bytes32 internal constant MINTED_TOTALLY = keccak256(\"mintedTotally\");\n\n    bytes32 internal constant BRIDGE_AMOUNT = \"bridgeAmount\";\n    bytes32 internal constant EXTRA_RECEIVER_AMOUNT = \"extraReceiverAmount\";\n    bytes32 internal constant MINTED_FOR_ACCOUNT = \"mintedForAccount\";\n    bytes32 internal constant MINTED_FOR_ACCOUNT_IN_BLOCK = \"mintedForAccountInBlock\";\n    bytes32 internal constant MINTED_IN_BLOCK = \"mintedInBlock\";\n    bytes32 internal constant MINTED_TOTALLY_BY_BRIDGE = \"mintedTotallyByBridge\";\n\n    // solhint-disable const-name-snakecase\n    // These values must be changed before deploy\n    uint256 public constant blockRewardAmount = 0 ether; \n    uint256 public constant emissionFundsAmount = 0 ether;\n    address public constant emissionFunds = 0x0000000000000000000000000000000000000000;\n    uint256 public constant bridgesAllowedLength = 1;\n    // solhint-enable const-name-snakecase\n\n    event AddedReceiver(uint256 amount, address indexed receiver, address indexed bridge);\n    event Rewarded(address[] receivers, uint256[] rewards);\n\n    modifier onlyBridgeContract {\n        require(_isBridgeContract(msg.sender));\n        _;\n    }\n\n    modifier onlySystem {\n        require(msg.sender == 0xffffFFFfFFffffffffffffffFfFFFfffFFFfFFfE);\n        _;\n    }\n\n    function addExtraReceiver(uint256 _amount, address _receiver)\n        external\n        onlyBridgeContract\n    {\n        require(_amount != 0);\n        require(_receiver != address(0));\n        uint256 oldAmount = extraReceiverAmount(_receiver);\n        if (oldAmount == 0) {\n            _addExtraReceiver(_receiver);\n        }\n        _setExtraReceiverAmount(oldAmount.add(_amount), _receiver);\n        _setBridgeAmount(bridgeAmount(msg.sender).add(_amount), msg.sender);\n        emit AddedReceiver(_amount, _receiver, msg.sender);\n    }\n\n    function reward(address[] benefactors, uint16[] kind)\n        external\n        onlySystem\n        returns (address[], uint256[])\n    {\n        require(benefactors.length == kind.length);\n        require(benefactors.length == 1);\n        require(kind[0] == 0);\n\n        address miningKey = benefactors[0];\n\n        require(_isMiningActive(miningKey));\n\n        uint256 extraLength = extraReceiversLength();\n\n        address[] memory receivers = new address[](extraLength.add(2));\n        uint256[] memory rewards = new uint256[](receivers.length);\n\n        receivers[0] = _getPayoutByMining(miningKey);\n        rewards[0] = blockRewardAmount;\n        receivers[1] = emissionFunds;\n        rewards[1] = emissionFundsAmount;\n\n        uint256 i;\n        \n        for (i = 0; i < extraLength; i++) {\n            address extraAddress = extraReceiverByIndex(i);\n            uint256 extraAmount = extraReceiverAmount(extraAddress);\n            _setExtraReceiverAmount(0, extraAddress);\n            receivers[i.add(2)] = extraAddress;\n            rewards[i.add(2)] = extraAmount;\n        }\n\n        for (i = 0; i < receivers.length; i++) {\n            _setMinted(rewards[i], receivers[i]);\n        }\n\n        for (i = 0; i < bridgesAllowedLength; i++) {\n            address bridgeAddress = bridgesAllowed()[i];\n            uint256 bridgeAmountForBlock = bridgeAmount(bridgeAddress);\n\n            if (bridgeAmountForBlock > 0) {\n                _setBridgeAmount(0, bridgeAddress);\n                _addMintedTotallyByBridge(bridgeAmountForBlock, bridgeAddress);\n            }\n        }\n\n        _clearExtraReceivers();\n\n        emit Rewarded(receivers, rewards);\n    \n        return (receivers, rewards);\n    }\n\n    function bridgesAllowed() public pure returns(address[bridgesAllowedLength]) {\n        // These values must be changed before deploy\n        return([ \n           address(0xCc72606b61cAC992E9F49E13197b9ba45Ef2186d)\n        ]);\n    }\n\n    function bridgeAmount(address _bridge) public view returns(uint256) {\n        return uintStorage[\n            keccak256(abi.encode(BRIDGE_AMOUNT, _bridge))\n        ];\n    }\n\n    function extraReceiverByIndex(uint256 _index) public view returns(address) {\n        return addressArrayStorage[EXTRA_RECEIVERS][_index];\n    }\n\n    function extraReceiverAmount(address _receiver) public view returns(uint256) {\n        return uintStorage[\n            keccak256(abi.encode(EXTRA_RECEIVER_AMOUNT, _receiver))\n        ];\n    }\n\n    function extraReceiversLength() public view returns(uint256) {\n        return addressArrayStorage[EXTRA_RECEIVERS].length;\n    }\n\n    function mintedForAccount(address _account)\n        public\n        view\n        returns(uint256)\n    {\n        return uintStorage[\n            keccak256(abi.encode(MINTED_FOR_ACCOUNT, _account))\n        ];\n    }\n\n    function mintedForAccountInBlock(address _account, uint256 _blockNumber)\n        public\n        view\n        returns(uint256)\n    {\n        return uintStorage[\n            keccak256(abi.encode(MINTED_FOR_ACCOUNT_IN_BLOCK, _account, _blockNumber))\n        ];\n    }\n\n    function mintedInBlock(uint256 _blockNumber) public view returns(uint256) {\n        return uintStorage[\n            keccak256(abi.encode(MINTED_IN_BLOCK, _blockNumber))\n        ];\n    }\n\n    function mintedTotally() public view returns(uint256) {\n        return uintStorage[MINTED_TOTALLY];\n    }\n\n    function mintedTotallyByBridge(address _bridge) public view returns(uint256) {\n        return uintStorage[\n            keccak256(abi.encode(MINTED_TOTALLY_BY_BRIDGE, _bridge))\n        ];\n    }\n\n    function proxyStorage() public view returns(address) {\n        return addressStorage[PROXY_STORAGE];\n    }\n\n    function _addExtraReceiver(address _receiver) private {\n        addressArrayStorage[EXTRA_RECEIVERS].push(_receiver);\n    }\n\n    function _addMintedTotallyByBridge(uint256 _amount, address _bridge) private {\n        bytes32 hash = keccak256(abi.encode(MINTED_TOTALLY_BY_BRIDGE, _bridge));\n        uintStorage[hash] = uintStorage[hash].add(_amount);\n    }\n\n    function _clearExtraReceivers() private {\n        addressArrayStorage[EXTRA_RECEIVERS].length = 0;\n    }\n\n    function _getPayoutByMining(address _miningKey)\n        private\n        view\n        returns (address)\n    {\n        IKeysManager keysManager = IKeysManager(\n            IProxyStorage(proxyStorage()).getKeysManager()\n        );\n        address payoutKey = keysManager.getPayoutByMining(_miningKey);\n        return (payoutKey != address(0)) ? payoutKey : _miningKey;\n    }\n\n    function _isBridgeContract(address _addr) private pure returns(bool) {\n        address[bridgesAllowedLength] memory bridges = bridgesAllowed();\n        \n        for (uint256 i = 0; i < bridges.length; i++) {\n            if (_addr == bridges[i]) {\n                return true;\n            }\n        }\n\n        return false;\n    }\n\n    function _isMiningActive(address _miningKey)\n        private\n        view\n        returns (bool)\n    {\n        IKeysManager keysManager = IKeysManager(\n            IProxyStorage(proxyStorage()).getKeysManager()\n        );\n        return keysManager.isMiningActive(_miningKey);\n    }\n\n    function _setBridgeAmount(uint256 _amount, address _bridge) private {\n        uintStorage[\n            keccak256(abi.encode(BRIDGE_AMOUNT, _bridge))\n        ] = _amount;\n    }\n\n    function _setExtraReceiverAmount(uint256 _amount, address _receiver) private {\n        uintStorage[\n            keccak256(abi.encode(EXTRA_RECEIVER_AMOUNT, _receiver))\n        ] = _amount;\n    }\n\n    function _setMinted(uint256 _amount, address _account) private {\n        bytes32 hash;\n\n        hash = keccak256(abi.encode(MINTED_FOR_ACCOUNT_IN_BLOCK, _account, block.number));\n        uintStorage[hash] = _amount;\n\n        hash = keccak256(abi.encode(MINTED_FOR_ACCOUNT, _account));\n        uintStorage[hash] = uintStorage[hash].add(_amount);\n\n        hash = keccak256(abi.encode(MINTED_IN_BLOCK, block.number));\n        uintStorage[hash] = uintStorage[hash].add(_amount);\n\n        hash = MINTED_TOTALLY;\n        uintStorage[hash] = uintStorage[hash].add(_amount);\n    }\n}\n",
  "sourcePath": "/home/moc/poa-network-consensus-contracts/contracts/RewardByBlock.sol",
  "compiler": {
    "name": "solc",
    "version": "0.4.24+commit.e67f0147.Emscripten.clang"
  },
  "schemaVersion": "2.0.1",
  "updatedAt": "2018-11-18T12:48:21.704Z"
}