{
  "contractName": "RewardByTime",
  "abi": [
    {
      "constant": true,
      "inputs": [],
      "name": "emissionFunds",
      "outputs": [
        {
          "name": "",
          "type": "address"
        }
      ],
      "payable": false,
      "stateMutability": "view",
      "type": "function"
    },
    {
      "constant": true,
      "inputs": [],
      "name": "blockRewardAmount",
      "outputs": [
        {
          "name": "",
          "type": "uint256"
        }
      ],
      "payable": false,
      "stateMutability": "view",
      "type": "function"
    },
    {
      "constant": true,
      "inputs": [],
      "name": "threshold",
      "outputs": [
        {
          "name": "",
          "type": "uint256"
        }
      ],
      "payable": false,
      "stateMutability": "view",
      "type": "function"
    },
    {
      "constant": true,
      "inputs": [],
      "name": "emissionFundsAmount",
      "outputs": [
        {
          "name": "",
          "type": "uint256"
        }
      ],
      "payable": false,
      "stateMutability": "view",
      "type": "function"
    },
    {
      "anonymous": false,
      "inputs": [
        {
          "indexed": false,
          "name": "receivers",
          "type": "address[]"
        },
        {
          "indexed": false,
          "name": "rewards",
          "type": "uint256[]"
        }
      ],
      "name": "Rewarded",
      "type": "event"
    },
    {
      "constant": false,
      "inputs": [],
      "name": "reward",
      "outputs": [
        {
          "name": "",
          "type": "address[]"
        },
        {
          "name": "",
          "type": "uint256[]"
        }
      ],
      "payable": false,
      "stateMutability": "nonpayable",
      "type": "function"
    },
    {
      "constant": true,
      "inputs": [],
      "name": "getPayoutKeys",
      "outputs": [
        {
          "name": "",
          "type": "address[]"
        }
      ],
      "payable": false,
      "stateMutability": "view",
      "type": "function"
    },
    {
      "constant": true,
      "inputs": [],
      "name": "getTime",
      "outputs": [
        {
          "name": "",
          "type": "uint256"
        }
      ],
      "payable": false,
      "stateMutability": "view",
      "type": "function"
    },
    {
      "constant": true,
      "inputs": [],
      "name": "proxyStorage",
      "outputs": [
        {
          "name": "",
          "type": "address"
        }
      ],
      "payable": false,
      "stateMutability": "view",
      "type": "function"
    },
    {
      "constant": true,
      "inputs": [],
      "name": "keyIndex",
      "outputs": [
        {
          "name": "",
          "type": "uint256"
        }
      ],
      "payable": false,
      "stateMutability": "view",
      "type": "function"
    },
    {
      "constant": true,
      "inputs": [],
      "name": "lastTime",
      "outputs": [
        {
          "name": "",
          "type": "uint256"
        }
      ],
      "payable": false,
      "stateMutability": "view",
      "type": "function"
    },
    {
      "constant": true,
      "inputs": [
        {
          "name": "_index",
          "type": "uint256"
        }
      ],
      "name": "payoutKeys",
      "outputs": [
        {
          "name": "",
          "type": "address"
        }
      ],
      "payable": false,
      "stateMutability": "view",
      "type": "function"
    }
  ],
  "bytecode": "0x608060405234801561001057600080fd5b50610c4f806100206000396000f3006080604052600436106100955763ffffffff60e060020a6000350416631f4356e4811461009a578063228cb733146100cb57806326cc22561461017957806342cde4e8146101a0578063557ed1ba146101b557806358074d8b146101ca57806393e9a084146101df578063ae4b1b5b146101f4578063cba8901b14610209578063e64044c01461026e578063ee8d75ff14610179575b600080fd5b3480156100a657600080fd5b506100af610286565b60408051600160a060020a039092168252519081900360200190f35b3480156100d757600080fd5b506100e061028b565b604051808060200180602001838103835285818151815260200191508051906020019060200280838360005b8381101561012457818101518382015260200161010c565b50505050905001838103825284818151815260200191508051906020019060200280838360005b8381101561016357818101518382015260200161014b565b5050505090500194505050505060405180910390f35b34801561018557600080fd5b5061018e61059a565b60408051918252519081900360200190f35b3480156101ac57600080fd5b5061018e6105a6565b3480156101c157600080fd5b5061018e6105ab565b3480156101d657600080fd5b5061018e6105b0565b3480156101eb57600080fd5b5061018e6105f1565b34801561020057600080fd5b506100af610632565b34801561021557600080fd5b5061021e61067c565b60408051602080825283518183015283519192839290830191858101910280838360005b8381101561025a578181015183820152602001610242565b505050509050019250505060405180910390f35b34801561027a57600080fd5b506100af600435610703565b600081565b6060806000818082808073fffffffffffffffffffffffffffffffffffffffe33146102b557600080fd5b6102bd6105ab565b95506102c761067c565b5115156102ef576102e76102e287600563ffffffff61075716565b610769565b6102ef6107a9565b610318600561030c6102ff6105f1565b899063ffffffff61075716565b9063ffffffff610a1816565b925082158061032d575061032a61067c565b51155b15610357576040805160008082526020820190815281830190925298509650879450869350610590565b61036883600163ffffffff610a3416565b604051908082528060200260200182016040528015610391578160200160208202803883390190505b50945084516040519080825280602002602001820160405280156103bf578160200160208202803883390190505b509350600091505b82821015610473576103d76105b0565b90506103e281610703565b85838151811015156103f057fe5b600160a060020a039092166020928302909101909101528351670de0b6b3a76400009085908490811061041f57fe5b602090810290910101526104456102e260056104396105f1565b9063ffffffff610a3416565b60010161045181610a4a565b61045961067c565b518110610468576104686107a9565b6001909101906103c7565b6000858381518110151561048357fe5b600160a060020a039092166020928302909101909101526104b2670de0b6b3a76400008463ffffffff610a8a16565b84838151811015156104c057fe5b90602001906020020181815250507fb747d4e9a0b39cc47496d84b42e4066ba8b8a0b89776528bcec4ac2997e224538585604051808060200180602001838103835285818151815260200191508051906020019060200280838360005b8381101561053557818101518382015260200161051d565b50505050905001838103825284818151815260200191508051906020019060200280838360005b8381101561057457818101518382015260200161055c565b5050505090500194505050505060405180910390a18484975097505b5050505050509091565b670de0b6b3a764000081565b600581565b425b90565b604080517f7262744b6579496e6465780000000000000000000000000000000000000000008152815190819003600b01902060009081526002602052205490565b604080517f7262744c61737454696d650000000000000000000000000000000000000000008152815190819003600b01902060009081526002602052205490565b604080517f70726f787953746f7261676500000000000000000000000000000000000000008152815190819003600c019020600090815260046020522054600160a060020a031690565b60408051600080516020610c048339815191528152815190819003600d0181206000908152600b60209081529083902080548083028401830190945283835260609390918301828280156106f957602002820191906000526020600020905b8154600160a060020a031681526001909101906020018083116106db575b5050505050905090565b60408051600080516020610c048339815191528152815190819003600d0190206000908152600b60205290812080548390811061073c57fe5b600091825260209091200154600160a060020a031692915050565b60008282111561076357fe5b50900390565b604080517f7262744c61737454696d650000000000000000000000000000000000000000008152815190819003600b019020600090815260026020522055565b6000606060008060006107ba610632565b600160a060020a0316638b8414c46040518163ffffffff1660e060020a028152600401602060405180830381600087803b1580156107f757600080fd5b505af115801561080b573d6000803e3d6000fd5b505050506040513d602081101561082157600080fd5b5051604080517fb7ab4db50000000000000000000000000000000000000000000000000000000081529051919650600160a060020a0387169163b7ab4db59160048082019260009290919082900301818387803b15801561088157600080fd5b505af1158015610895573d6000803e3d6000fd5b505050506040513d6000823e601f3d908101601f1916820160405260208110156108be57600080fd5b8101908080516401000000008111156108d657600080fd5b820160208101848111156108e957600080fd5b815185602082028301116401000000008211171561090657600080fd5b505060408051600080516020610c048339815191528152815190819003600d0190206000908152600b60205290812091985061094794509092509050610bc4565b600092505b8351831015610a0757838381518110151561096357fe5b90602001906020020151915061097882610ab5565b60408051600080516020610c048339815191528152815190819003600d0190206000908152600b60205220909150600160a060020a03821615156109bc57826109be565b815b8154600180820184556000938452602090932001805473ffffffffffffffffffffffffffffffffffffffff1916600160a060020a0392909216919091179055929092019161094c565b610a116000610a4a565b5050505050565b6000808284811515610a2657fe5b0490508091505b5092915050565b600082820183811015610a4357fe5b9392505050565b604080517f7262744b6579496e6465780000000000000000000000000000000000000000008152815190819003600b019020600090815260026020522055565b600080831515610a9d5760009150610a2d565b50828202828482811515610aad57fe5b0414610a4357fe5b600080610ac0610632565b600160a060020a0316639a5737866040518163ffffffff1660e060020a028152600401602060405180830381600087803b158015610afd57600080fd5b505af1158015610b11573d6000803e3d6000fd5b505050506040513d6020811015610b2757600080fd5b5051604080517f7cded930000000000000000000000000000000000000000000000000000000008152600160a060020a038681166004830152915192935090831691637cded930916024808201926020929091908290030181600087803b158015610b9157600080fd5b505af1158015610ba5573d6000803e3d6000fd5b505050506040513d6020811015610bbb57600080fd5b50519392505050565b5080546000825590600052602060002090810190610be29190610be5565b50565b6105ad91905b80821115610bff5760008155600101610beb565b509056007262745061796f75744b65797300000000000000000000000000000000000000a165627a7a72305820aec1026bbc8257273d6520868ce362ff94cefd4622a279f9a4eb10c7b02be4ae0029",
  "source": "pragma solidity ^0.4.24;\n\nimport \"./interfaces/IRewardByTime.sol\";\nimport \"./interfaces/IKeysManager.sol\";\nimport \"./interfaces/IProxyStorage.sol\";\nimport \"./interfaces/IPoaNetworkConsensus.sol\";\nimport \"./eternal-storage/EternalStorage.sol\";\nimport \"./libs/SafeMath.sol\";\n\n\ncontract RewardByTime is EternalStorage, IRewardByTime {\n    using SafeMath for uint256;\n\n    bytes32 internal constant LAST_TIME = keccak256(\"rbtLastTime\");\n    bytes32 internal constant KEY_INDEX = keccak256(\"rbtKeyIndex\");\n    bytes32 internal constant PAYOUT_KEYS = keccak256(\"rbtPayoutKeys\");\n\n    // solhint-disable const-name-snakecase\n    // These values must be changed before deploy\n    uint256 public constant blockRewardAmount = 1 ether;\n    uint256 public constant emissionFundsAmount = 1 ether;\n    address public constant emissionFunds = 0x0000000000000000000000000000000000000000;\n    uint256 public constant threshold = 5 seconds;\n    // solhint-enable const-name-snakecase\n\n    event Rewarded(address[] receivers, uint256[] rewards);\n\n    modifier onlySystem {\n        require(msg.sender == 0xffffFFFfFFffffffffffffffFfFFFfffFFFfFFfE);\n        _;\n    }\n\n    function reward()\n        external\n        onlySystem\n        returns (address[], uint256[])\n    {\n        uint256 currentTime = getTime();\n        address[] memory receivers;\n        uint256[] memory rewards;\n        uint256 keysNumberToReward;\n        uint256 n;\n        \n        if (getPayoutKeys().length == 0) { // the first call\n            _setLastTime(currentTime.sub(threshold));\n            _refreshPayoutKeys();\n        }\n\n        keysNumberToReward = currentTime.sub(lastTime()).div(threshold);\n\n        // TODO: limit the value of `keysNumberToReward` to prevent\n        // possible reaching of block's gasLimit\n\n        if (keysNumberToReward == 0 || getPayoutKeys().length == 0) {\n            receivers = new address[](0);\n            rewards = new uint256[](0);\n            return (receivers, rewards);\n        }\n\n        receivers = new address[](keysNumberToReward.add(1));\n        rewards = new uint256[](receivers.length);\n\n        for (n = 0; n < keysNumberToReward; n++) {\n            uint256 index = keyIndex();\n            receivers[n] = payoutKeys(index);\n            rewards[n] = blockRewardAmount;\n            _setLastTime(lastTime().add(threshold));\n            _setKeyIndex(++index);\n\n            if (index >= getPayoutKeys().length) {\n                _refreshPayoutKeys();\n            }\n        }\n\n        receivers[n] = emissionFunds;\n        rewards[n] = emissionFundsAmount.mul(keysNumberToReward);\n\n        emit Rewarded(receivers, rewards);\n\n        return (receivers, rewards);\n    }\n\n    function getPayoutKeys() public view returns(address[]) {\n        return addressArrayStorage[PAYOUT_KEYS];\n    }\n\n    function getTime() public view returns(uint256) {\n        return now;\n    }\n\n    function proxyStorage() public view returns(address) {\n        return addressStorage[keccak256(\"proxyStorage\")];\n    }\n\n    function keyIndex() public view returns(uint256) {\n        return uintStorage[KEY_INDEX];\n    }\n\n    function lastTime() public view returns(uint256) {\n        return uintStorage[LAST_TIME];\n    }\n\n    function payoutKeys(uint256 _index) public view returns(address) {\n        return addressArrayStorage[PAYOUT_KEYS][_index];\n    }\n\n    function _getPayoutByMining(address _miningKey)\n        private\n        view\n        returns (address)\n    {\n        IKeysManager keysManager = IKeysManager(\n            IProxyStorage(proxyStorage()).getKeysManager()\n        );\n        return keysManager.getPayoutByMining(_miningKey);\n    }\n\n    function _refreshPayoutKeys() private {\n        IPoaNetworkConsensus poa = IPoaNetworkConsensus(\n            IProxyStorage(proxyStorage()).getPoaConsensus()\n        );\n        address[] memory validators = poa.getValidators();\n\n        delete addressArrayStorage[PAYOUT_KEYS];\n        for (uint256 i = 0; i < validators.length; i++) {\n            address miningKey = validators[i];\n            address payoutKey = _getPayoutByMining(miningKey);\n            addressArrayStorage[PAYOUT_KEYS].push(\n                (payoutKey != address(0)) ? payoutKey : miningKey\n            );\n        }\n\n        _setKeyIndex(0);\n    }\n\n    function _setKeyIndex(uint256 _index) private {\n        uintStorage[KEY_INDEX] = _index;\n    }\n\n    function _setLastTime(uint256 _time) private {\n        uintStorage[LAST_TIME] = _time;\n    }\n}\n",
  "sourcePath": "/home/moc/poa-network-consensus-contracts/contracts/RewardByTime.sol",
  "compiler": {
    "name": "solc",
    "version": "0.4.24+commit.e67f0147.Emscripten.clang"
  },
  "schemaVersion": "2.0.1",
  "updatedAt": "2018-11-18T08:20:25.821Z"
}