{
  "contractName": "ValidatorMetadata",
  "abi": [
    {
      "anonymous": false,
      "inputs": [
        {
          "indexed": true,
          "name": "miningKey",
          "type": "address"
        }
      ],
      "name": "MetadataCleared",
      "type": "event"
    },
    {
      "anonymous": false,
      "inputs": [
        {
          "indexed": true,
          "name": "miningKey",
          "type": "address"
        }
      ],
      "name": "MetadataCreated",
      "type": "event"
    },
    {
      "anonymous": false,
      "inputs": [
        {
          "indexed": true,
          "name": "oldMiningKey",
          "type": "address"
        },
        {
          "indexed": true,
          "name": "newMiningKey",
          "type": "address"
        }
      ],
      "name": "MetadataMoved",
      "type": "event"
    },
    {
      "anonymous": false,
      "inputs": [
        {
          "indexed": true,
          "name": "miningKey",
          "type": "address"
        }
      ],
      "name": "ChangeRequestInitiated",
      "type": "event"
    },
    {
      "anonymous": false,
      "inputs": [
        {
          "indexed": true,
          "name": "miningKey",
          "type": "address"
        }
      ],
      "name": "CancelledRequest",
      "type": "event"
    },
    {
      "anonymous": false,
      "inputs": [
        {
          "indexed": true,
          "name": "miningKey",
          "type": "address"
        },
        {
          "indexed": false,
          "name": "votingSender",
          "type": "address"
        },
        {
          "indexed": false,
          "name": "votingSenderMiningKey",
          "type": "address"
        }
      ],
      "name": "Confirmed",
      "type": "event"
    },
    {
      "anonymous": false,
      "inputs": [
        {
          "indexed": true,
          "name": "miningKey",
          "type": "address"
        }
      ],
      "name": "FinalizedChange",
      "type": "event"
    },
    {
      "constant": false,
      "inputs": [
        {
          "name": "_miningKey",
          "type": "address"
        }
      ],
      "name": "clearMetadata",
      "outputs": [],
      "payable": false,
      "stateMutability": "nonpayable",
      "type": "function"
    },
    {
      "constant": false,
      "inputs": [
        {
          "name": "_oldMiningKey",
          "type": "address"
        },
        {
          "name": "_newMiningKey",
          "type": "address"
        }
      ],
      "name": "moveMetadata",
      "outputs": [],
      "payable": false,
      "stateMutability": "nonpayable",
      "type": "function"
    },
    {
      "constant": true,
      "inputs": [],
      "name": "proxyStorage",
      "outputs": [
        {
          "name": "",
          "type": "address"
        }
      ],
      "payable": false,
      "stateMutability": "view",
      "type": "function"
    },
    {
      "constant": true,
      "inputs": [
        {
          "name": "_miningKey",
          "type": "address"
        }
      ],
      "name": "getValidatorName",
      "outputs": [
        {
          "name": "firstName",
          "type": "bytes32"
        },
        {
          "name": "lastName",
          "type": "bytes32"
        }
      ],
      "payable": false,
      "stateMutability": "view",
      "type": "function"
    },
    {
      "constant": true,
      "inputs": [
        {
          "name": "_miningKey",
          "type": "address"
        }
      ],
      "name": "validators",
      "outputs": [
        {
          "name": "firstName",
          "type": "bytes32"
        },
        {
          "name": "lastName",
          "type": "bytes32"
        },
        {
          "name": "licenseId",
          "type": "bytes32"
        },
        {
          "name": "fullAddress",
          "type": "string"
        },
        {
          "name": "state",
          "type": "bytes32"
        },
        {
          "name": "zipcode",
          "type": "bytes32"
        },
        {
          "name": "expirationDate",
          "type": "uint256"
        },
        {
          "name": "createdDate",
          "type": "uint256"
        },
        {
          "name": "updatedDate",
          "type": "uint256"
        },
        {
          "name": "minThreshold",
          "type": "uint256"
        }
      ],
      "payable": false,
      "stateMutability": "view",
      "type": "function"
    },
    {
      "constant": true,
      "inputs": [
        {
          "name": "_miningKey",
          "type": "address"
        }
      ],
      "name": "pendingChanges",
      "outputs": [
        {
          "name": "firstName",
          "type": "bytes32"
        },
        {
          "name": "lastName",
          "type": "bytes32"
        },
        {
          "name": "licenseId",
          "type": "bytes32"
        },
        {
          "name": "fullAddress",
          "type": "string"
        },
        {
          "name": "state",
          "type": "bytes32"
        },
        {
          "name": "zipcode",
          "type": "bytes32"
        },
        {
          "name": "expirationDate",
          "type": "uint256"
        },
        {
          "name": "createdDate",
          "type": "uint256"
        },
        {
          "name": "updatedDate",
          "type": "uint256"
        },
        {
          "name": "minThreshold",
          "type": "uint256"
        }
      ],
      "payable": false,
      "stateMutability": "view",
      "type": "function"
    },
    {
      "constant": true,
      "inputs": [
        {
          "name": "_miningKey",
          "type": "address"
        }
      ],
      "name": "confirmations",
      "outputs": [
        {
          "name": "count",
          "type": "uint256"
        },
        {
          "name": "voters",
          "type": "address[]"
        }
      ],
      "payable": false,
      "stateMutability": "view",
      "type": "function"
    },
    {
      "constant": true,
      "inputs": [],
      "name": "initMetadataDisabled",
      "outputs": [
        {
          "name": "",
          "type": "bool"
        }
      ],
      "payable": false,
      "stateMutability": "view",
      "type": "function"
    },
    {
      "constant": false,
      "inputs": [
        {
          "name": "_firstName",
          "type": "bytes32"
        },
        {
          "name": "_lastName",
          "type": "bytes32"
        },
        {
          "name": "_licenseId",
          "type": "bytes32"
        },
        {
          "name": "_fullAddress",
          "type": "string"
        },
        {
          "name": "_state",
          "type": "bytes32"
        },
        {
          "name": "_zipcode",
          "type": "bytes32"
        },
        {
          "name": "_expirationDate",
          "type": "uint256"
        },
        {
          "name": "_createdDate",
          "type": "uint256"
        },
        {
          "name": "_updatedDate",
          "type": "uint256"
        },
        {
          "name": "_minThreshold",
          "type": "uint256"
        },
        {
          "name": "_miningKey",
          "type": "address"
        }
      ],
      "name": "initMetadata",
      "outputs": [],
      "payable": false,
      "stateMutability": "nonpayable",
      "type": "function"
    },
    {
      "constant": false,
      "inputs": [],
      "name": "initMetadataDisable",
      "outputs": [],
      "payable": false,
      "stateMutability": "nonpayable",
      "type": "function"
    },
    {
      "constant": false,
      "inputs": [
        {
          "name": "_firstName",
          "type": "bytes32"
        },
        {
          "name": "_lastName",
          "type": "bytes32"
        },
        {
          "name": "_licenseId",
          "type": "bytes32"
        },
        {
          "name": "_fullAddress",
          "type": "string"
        },
        {
          "name": "_state",
          "type": "bytes32"
        },
        {
          "name": "_zipcode",
          "type": "bytes32"
        },
        {
          "name": "_expirationDate",
          "type": "uint256"
        }
      ],
      "name": "createMetadata",
      "outputs": [],
      "payable": false,
      "stateMutability": "nonpayable",
      "type": "function"
    },
    {
      "constant": false,
      "inputs": [
        {
          "name": "_firstName",
          "type": "bytes32"
        },
        {
          "name": "_lastName",
          "type": "bytes32"
        },
        {
          "name": "_licenseId",
          "type": "bytes32"
        },
        {
          "name": "_fullAddress",
          "type": "string"
        },
        {
          "name": "_state",
          "type": "bytes32"
        },
        {
          "name": "_zipcode",
          "type": "bytes32"
        },
        {
          "name": "_expirationDate",
          "type": "uint256"
        }
      ],
      "name": "changeRequest",
      "outputs": [
        {
          "name": "",
          "type": "bool"
        }
      ],
      "payable": false,
      "stateMutability": "nonpayable",
      "type": "function"
    },
    {
      "constant": false,
      "inputs": [],
      "name": "cancelPendingChange",
      "outputs": [
        {
          "name": "",
          "type": "bool"
        }
      ],
      "payable": false,
      "stateMutability": "nonpayable",
      "type": "function"
    },
    {
      "constant": true,
      "inputs": [
        {
          "name": "_miningKey",
          "type": "address"
        },
        {
          "name": "_voterMiningKey",
          "type": "address"
        }
      ],
      "name": "isValidatorAlreadyVoted",
      "outputs": [
        {
          "name": "",
          "type": "bool"
        }
      ],
      "payable": false,
      "stateMutability": "view",
      "type": "function"
    },
    {
      "constant": false,
      "inputs": [
        {
          "name": "_miningKey",
          "type": "address"
        }
      ],
      "name": "confirmPendingChange",
      "outputs": [],
      "payable": false,
      "stateMutability": "nonpayable",
      "type": "function"
    },
    {
      "constant": false,
      "inputs": [
        {
          "name": "_miningKey",
          "type": "address"
        }
      ],
      "name": "finalize",
      "outputs": [],
      "payable": false,
      "stateMutability": "nonpayable",
      "type": "function"
    },
    {
      "constant": true,
      "inputs": [],
      "name": "getTime",
      "outputs": [
        {
          "name": "",
          "type": "uint256"
        }
      ],
      "payable": false,
      "stateMutability": "view",
      "type": "function"
    },
    {
      "constant": true,
      "inputs": [],
      "name": "getMinThreshold",
      "outputs": [
        {
          "name": "",
          "type": "uint256"
        }
      ],
      "payable": false,
      "stateMutability": "view",
      "type": "function"
    }
  ],
  "bytecode": "0x608060405234801561001057600080fd5b5061374a806100206000396000f3006080604052600436106100e25763ffffffff60e060020a600035041663022c254a81146100e7578063334460a4146101cd5780634ecb35c41461023f5780634ef39b75146102bb578063557ed1ba146102dc578063885c69b5146103035780638ae881a6146103245780639c715535146103b3578063a6662a3c146103d4578063ae4b1b5b146103fd578063af2e2da91461042e578063c2d0916f14610468578063c3f1b0ea1461048f578063e6bbe9dd146104ff578063f0174a2514610514578063f73294b814610529578063f94c12cb14610550578063fa52c7d814610565575b600080fd5b3480156100f357600080fd5b50610108600160a060020a0360043516610586565b604080518b815260208082018c90529181018a90526080810188905260a0810187905260c0810186905260e0810185905261010081018490526101208101839052610140606082018181528a51918301919091528951919290916101608401918b019080838360005b83811015610189578181015183820152602001610171565b50505050905090810190601f1680156101b65780820380516001836020036101000a031916815260200191505b509b50505050505050505050505060405180910390f35b3480156101d957600080fd5b50604080516020601f60643560048181013592830184900484028501840190955281845261023d9480359460248035956044359536956084949301918190840183828082843750949750508435955050506020830135926040013591506105c29050565b005b34801561024b57600080fd5b50610260600160a060020a03600435166107fb565b6040518083815260200180602001828103825283818151815260200191508051906020019060200280838360005b838110156102a657818101518382015260200161028e565b50505050905001935050505060405180910390f35b3480156102c757600080fd5b5061023d600160a060020a0360043516610813565b3480156102e857600080fd5b506102f1610a01565b60408051918252519081900360200190f35b34801561030f57600080fd5b5061023d600160a060020a0360043516610a06565b34801561033057600080fd5b50604080516020601f60643560048181013592830184900484028501840190955281845261023d948035946024803595604435953695608494930191819084018382808284375094975050843595505050602083013592604081013592506060810135915060808101359060a08101359060c00135600160a060020a0316610a7d565b3480156103bf57600080fd5b5061023d600160a060020a0360043516610bbf565b3480156103e057600080fd5b506103e9610df6565b604080519115158252519081900360200190f35b34801561040957600080fd5b50610412610e3a565b60408051600160a060020a039092168252519081900360200190f35b34801561043a57600080fd5b5061044f600160a060020a0360043516610e84565b6040805192835260208301919091528051918290030190f35b34801561047457600080fd5b5061023d600160a060020a0360043581169060243516610ea6565b34801561049b57600080fd5b50604080516020601f6064356004818101359283018490048402850184019095528184526103e9948035946024803595604435953695608494930191819084018382808284375094975050843595505050602083013592604001359150610f2c9050565b34801561050b57600080fd5b506102f16110c8565b34801561052057600080fd5b5061023d61114c565b34801561053557600080fd5b506103e9600160a060020a03600435811690602435166111ea565b34801561055c57600080fd5b506103e961134a565b34801561057157600080fd5b50610108600160a060020a03600435166114bf565b600080600060606000806000806000806105a160018c6114d6565b99509950995099509950995099509950995099509193959799509193959799565b6000336105cd61156d565b600160a060020a03166362b46d64826040518263ffffffff1660e060020a0281526004018082600160a060020a0316600160a060020a03168152602001915050602060405180830381600087803b15801561062757600080fd5b505af115801561063b573d6000803e3d6000fd5b505050506040513d602081101561065157600080fd5b5051151561065e57600080fd5b33600061066961156d565b600160a060020a0316632d260227836040518263ffffffff1660e060020a0281526004018082600160a060020a0316600160a060020a03168152602001915050602060405180830381600087803b1580156106c357600080fd5b505af11580156106d7573d6000803e3d6000fd5b505050506040513d60208110156106ed57600080fd5b505190506106fc6000826115b4565b1561070657600080fd5b61070e61156d565b600160a060020a0316632d260227336040518263ffffffff1660e060020a0281526004018082600160a060020a0316600160a060020a03168152602001915050602060405180830381600087803b15801561076857600080fd5b505af115801561077c573d6000803e3d6000fd5b505050506040513d602081101561079257600080fd5b505193506107ba6000858d8d8d8d8d8d8d6107ab610a01565b60006107b56110c8565b6116f2565b604051600160a060020a038516907f76a10cc0839d166c55eec8dba39ff22f75470574ede5014b744b45cebea5fc7e90600090a25050505050505050505050565b600060606108088361177d565b905080519150915091565b6000803361081f61156d565b600160a060020a03166362b46d64826040518263ffffffff1660e060020a0281526004018082600160a060020a0316600160a060020a03168152602001915050602060405180830381600087803b15801561087957600080fd5b505af115801561088d573d6000803e3d6000fd5b505050506040513d60208110156108a357600080fd5b505115156108b057600080fd5b6108b9846118bf565b15156108c457600080fd5b6108cd8461177d565b5192506108db6001856118d4565b9150818310156108ea57600080fd5b6109006000856108fb60018861195d565b6119e6565b610916600085610911600188611b24565b611bad565b61092c600085610927600188611c35565b611cbe565b61094260008561093d600188611d46565b611dcf565b610958600085610953600188611e57565b612037565b61096e600085610969600188612195565b61221e565b61098460008561097f6001886122a6565b61232f565b61099a6000856109956001886115b4565b6123b7565b6109b06000856109ab60018861243f565b6124c8565b6109bc60008584612550565b6109c76001856125d8565b604051600160a060020a038516907fccf0f685803f0fba33ec88246b35d75b758b1e77c3d65ef5658f7e630f36b85b90600090a250505050565b425b90565b610a0e61156d565b600160a060020a03163314610a2257600080fd5b610a2b816118bf565b15610a3b57610a3b6001826125d8565b610a466000826125d8565b604051600160a060020a038216907f1928e25e316bab82325e01eaf5b4a29f7b2d5e3d77fc0b6ac959eb95112f3ee990600090a250565b604080517f6f776e65720000000000000000000000000000000000000000000000000000008152815190819003600501902060009081526004602052205433600160a060020a0390911614610ad157600080fd5b610ad961156d565b600160a060020a0316639bc91c22826040518263ffffffff1660e060020a0281526004018082600160a060020a0316600160a060020a03168152602001915050602060405180830381600087803b158015610b3357600080fd5b505af1158015610b47573d6000803e3d6000fd5b505050506040513d6020811015610b5d57600080fd5b50511515610b6a57600080fd5b610b756000826115b4565b15610b7f57600080fd5b831515610b8b57600080fd5b610b93610df6565b15610b9d57600080fd5b610bb26000828d8d8d8d8d8d8d8d8d8d6116f2565b5050505050505050505050565b60008033610bcb61156d565b600160a060020a03166362b46d64826040518263ffffffff1660e060020a0281526004018082600160a060020a0316600160a060020a03168152602001915050602060405180830381600087803b158015610c2557600080fd5b505af1158015610c39573d6000803e3d6000fd5b505050506040513d6020811015610c4f57600080fd5b50511515610c5c57600080fd5b610c6461156d565b600160a060020a0316632d260227336040518263ffffffff1660e060020a0281526004018082600160a060020a0316600160a060020a03168152602001915050602060405180830381600087803b158015610cbe57600080fd5b505af1158015610cd2573d6000803e3d6000fd5b505050506040513d6020811015610ce857600080fd5b50519250600160a060020a038084169085161415610d0557600080fd5b610d0f84846111ea565b15610d1957600080fd5b610d2161320c565b600160a060020a031663936736206040518163ffffffff1660e060020a028152600401602060405180830381600087803b158015610d5e57600080fd5b505af1158015610d72573d6000803e3d6000fd5b505050506040513d6020811015610d8857600080fd5b5051915081610d968561177d565b5110610da157600080fd5b610dab8484613253565b60408051338152600160a060020a0385811660208301528251908716927f603c57ecb4a9802537649ceb6523e5d48c939e7856768ce6f9b3128a889a5cfe928290030190a250505050565b604080517f696e69744d6574616461746144697361626c65640000000000000000000000008152815190819003601401902060009081526006602052205460ff1690565b604080517f70726f787953746f7261676500000000000000000000000000000000000000008152815190819003600c019020600090815260046020522054600160a060020a031690565b600080610e9260008461195d565b9150610e9f600084611b24565b9050915091565b610eae61156d565b600160a060020a03163314610ec257600080fd5b610ecb826118bf565b15610edc57610edc6001838361337c565b610ee86000838361337c565b80600160a060020a031682600160a060020a03167f6a3e5f5cc14de86bb3be87bc976b74890ecd0c8fa0cfca2fe3fefe55c9b47dde60405160405180910390a35050565b60008033610f3861156d565b600160a060020a03166362b46d64826040518263ffffffff1660e060020a0281526004018082600160a060020a0316600160a060020a03168152602001915050602060405180830381600087803b158015610f9257600080fd5b505af1158015610fa6573d6000803e3d6000fd5b505050506040513d6020811015610fbc57600080fd5b50511515610fc957600080fd5b610fd161156d565b600160a060020a0316632d260227336040518263ffffffff1660e060020a0281526004018082600160a060020a0316600160a060020a03168152602001915050602060405180830381600087803b15801561102b57600080fd5b505af115801561103f573d6000803e3d6000fd5b505050506040513d602081101561105557600080fd5b505191506110846001838c8c8c8c8c8c8c6110716000896115b4565b611079610a01565b6107b560008f6118d4565b604051600160a060020a038316907f6ec0e3afd4b29a1fe1c688cb1e6474d9e2c6a1032858c3add0ff32b7ba95f32f90600090a25060019998505050505050505050565b60006110d261320c565b600160a060020a03166345e23b5360026040518263ffffffff1660e060020a02815260040180828152602001915050602060405180830381600087803b15801561111b57600080fd5b505af115801561112f573d6000803e3d6000fd5b505050506040513d602081101561114557600080fd5b5051905090565b604080517f6f776e65720000000000000000000000000000000000000000000000000000008152815190819003600501902060009081526004602052205433600160a060020a03909116146111a057600080fd5b604080517f696e69744d6574616461746144697361626c6564000000000000000000000000815281519081900360140190206000908152600660205220805460ff19166001179055565b6000806000806000806111fb61156d565b945086935084600160a060020a031663b9bdaa076040518163ffffffff1660e060020a028152600401602060405180830381600087803b15801561123e57600080fd5b505af1158015611252573d6000803e3d6000fd5b505050506040513d602081101561126857600080fd5b50519250600091505b8282101561133a5761128388856133ff565b15611291576001955061133f565b84600160a060020a031663a5a36dee856040518263ffffffff1660e060020a0281526004018082600160a060020a0316600160a060020a03168152602001915050602060405180830381600087803b1580156112ec57600080fd5b505af1158015611300573d6000803e3d6000fd5b505050506040513d602081101561131657600080fd5b50519050600160a060020a038116151561132f5761133a565b925060010182611271565b600095505b505050505092915050565b6000803361135661156d565b600160a060020a03166362b46d64826040518263ffffffff1660e060020a0281526004018082600160a060020a0316600160a060020a03168152602001915050602060405180830381600087803b1580156113b057600080fd5b505af11580156113c4573d6000803e3d6000fd5b505050506040513d60208110156113da57600080fd5b505115156113e757600080fd5b6113ef61156d565b600160a060020a0316632d260227336040518263ffffffff1660e060020a0281526004018082600160a060020a0316600160a060020a03168152602001915050602060405180830381600087803b15801561144957600080fd5b505af115801561145d573d6000803e3d6000fd5b505050506040513d602081101561147357600080fd5b505191506114826001836125d8565b604051600160a060020a038316907f5a1dcc05b2a41ad121a798e749b9ba9584177c68a4047ee52ef37d4ca76ce08c90600090a260019250505090565b600080600060606000806000806000806105a160008c5b600080600060606000806000806000806114f08c8c61195d565b99506114fc8c8c611b24565b98506115088c8c611c35565b97506115148c8c611e57565b96506115208c8c611d46565b955061152c8c8c612195565b94506115388c8c6122a6565b93506115448c8c6115b4565b92506115508c8c61243f565b915061155c8c8c6118d4565b90509295989b9194979a5092959850565b6000611577610e3a565b600160a060020a0316639a5737866040518163ffffffff1660e060020a028152600401602060405180830381600087803b15801561111b57600080fd5b6000600260006115c385613471565b60408051600160a060020a038716918101919091527f6372656174656444617465000000000000000000000000000000000000000000606080830182905260208084019182528451608085015284518994839260a0909101919087019080838360005b8381101561163e578181015183820152602001611626565b50505050905090810190601f16801561166b5780820380516001836020036101000a031916815260200191505b509450505050506040516020818303038152906040526040518082805190602001908083835b602083106116b05780518252601f199092019160209182019101611691565b51815160209384036101000a60001901801990921691161790526040805192909401829003909120865285019590955292909201600020549695505050505050565b6116fd8c8c8c6119e6565b6117088c8c8b611bad565b6117138c8c8a611cbe565b61171e8c8c88611dcf565b6117298c8c89612037565b6117348c8c8761221e565b61173f8c8c8661232f565b61174a8c8c856123b7565b6117558c8c846124c8565b6117608c8c83612550565b8b1561176f5761176f8b6134ec565b505050505050505050505050565b604080517f636f6e6669726d6174696f6e7300000000000000000000000000000000000000602080830191909152600160a060020a038416828401527f766f74657273000000000000000000000000000000000000000000000000000060608381019190915283518084038201815260809093019384905282519093600b93600093909282918401908083835b602083106118295780518252601f19909201916020918201910161180a565b51815160209384036101000a6000190180199092169116179052604080519290940182900390912086528581019690965250928301600020805484518187028101870190955280855293949093925084019050828280156118b357602002820191906000526020600020905b8154600160a060020a03168152600190910190602001808311611895575b50505050509050919050565b6000806118cd6001846115b4565b1192915050565b6000600260006118e385613471565b60408051600160a060020a038716918101919091527f6d696e5468726573686f6c640000000000000000000000000000000000000000606080830182905260208084019182528451608085015284518994839260a0909101919087019080838360008381101561163e578181015183820152602001611626565b60006008600061196c85613471565b60408051600160a060020a038716918101919091527f66697273744e616d650000000000000000000000000000000000000000000000606080830182905260208084019182528451608085015284518994839260a0909101919087019080838360008381101561163e578181015183820152602001611626565b80600860006119f486613471565b60408051600160a060020a038816918101919091527f66697273744e616d650000000000000000000000000000000000000000000000606080830182905260208084019182528451608085015284518a94839260a0909101919087019080838360005b83811015611a6f578181015183820152602001611a57565b50505050905090810190601f168015611a9c5780820380516001836020036101000a031916815260200191505b509450505050506040516020818303038152906040526040518082805190602001908083835b60208310611ae15780518252601f199092019160209182019101611ac2565b51815160209384036101000a6000190180199092169116179052604080519290940182900390912086528501959095529290920160002093909355505050505050565b600060086000611b3385613471565b60408051600160a060020a038716918101919091527f6c6173744e616d65000000000000000000000000000000000000000000000000606080830182905260208084019182528451608085015284518994839260a0909101919087019080838360008381101561163e578181015183820152602001611626565b8060086000611bbb86613471565b60408051600160a060020a038816918101919091527f6c6173744e616d65000000000000000000000000000000000000000000000000606080830182905260208084019182528451608085015284518a94839260a09091019190870190808383600083811015611a6f578181015183820152602001611a57565b600060086000611c4485613471565b60408051600160a060020a038716918101919091527f6c6963656e736549640000000000000000000000000000000000000000000000606080830182905260208084019182528451608085015284518994839260a0909101919087019080838360008381101561163e578181015183820152602001611626565b8060086000611ccc86613471565b60408051600160a060020a038816918101919091527f6c6963656e736549640000000000000000000000000000000000000000000000606080830182905260208084019182528451608085015284518a94839260a09091019190870190808383600083811015611a6f578181015183820152602001611a57565b600060086000611d5585613471565b60408051600160a060020a038716918101919091527f7374617465000000000000000000000000000000000000000000000000000000606080830182905260208084019182528451608085015284518994839260a0909101919087019080838360008381101561163e578181015183820152602001611626565b8060086000611ddd86613471565b60408051600160a060020a038816918101919091527f7374617465000000000000000000000000000000000000000000000000000000606080830182905260208084019182528451608085015284518a94839260a09091019190870190808383600083811015611a6f578181015183820152602001611a57565b606060036000611e6685613471565b60408051600160a060020a038716918101919091527f66756c6c41646472657373000000000000000000000000000000000000000000606080830182905260208084019182528451608085015284518994839260a0909101919087019080838360005b83811015611ee1578181015183820152602001611ec9565b50505050905090810190601f168015611f0e5780820380516001836020036101000a031916815260200191505b509450505050506040516020818303038152906040526040518082805190602001908083835b60208310611f535780518252601f199092019160209182019101611f34565b6001836020036101000a0380198251168184511680821785525050505050509050019150506040518091039020600019166000191681526020019081526020016000208054600181600116156101000203166002900480601f01602080910402602001604051908101604052809291908181526020018280546001816001161561010002031660029004801561202a5780601f10611fff5761010080835404028352916020019161202a565b820191906000526020600020905b81548152906001019060200180831161200d57829003601f168201915b5050505050905092915050565b805160c8101561204657600080fd5b806003600061205486613471565b60408051600160a060020a038816918101919091527f66756c6c41646472657373000000000000000000000000000000000000000000606080830182905260208084019182528451608085015284518a94839260a0909101919087019080838360005b838110156120cf5781810151838201526020016120b7565b50505050905090810190601f1680156120fc5780820380516001836020036101000a031916815260200191505b509450505050506040516020818303038152906040526040518082805190602001908083835b602083106121415780518252601f199092019160209182019101612122565b51815160001960209485036101000a0190811690199190911617905260408051949092018490039093208652858301969096525092909301600020845161218f959194509201919050613628565b50505050565b6000600860006121a485613471565b60408051600160a060020a038716918101919091527f7a6970636f646500000000000000000000000000000000000000000000000000606080830182905260208084019182528451608085015284518994839260a0909101919087019080838360008381101561163e578181015183820152602001611626565b806008600061222c86613471565b60408051600160a060020a038816918101919091527f7a6970636f646500000000000000000000000000000000000000000000000000606080830182905260208084019182528451608085015284518a94839260a09091019190870190808383600083811015611a6f578181015183820152602001611a57565b6000600260006122b585613471565b60408051600160a060020a038716918101919091527f65787069726174696f6e44617465000000000000000000000000000000000000606080830182905260208084019182528451608085015284518994839260a0909101919087019080838360008381101561163e578181015183820152602001611626565b806002600061233d86613471565b60408051600160a060020a038816918101919091527f65787069726174696f6e44617465000000000000000000000000000000000000606080830182905260208084019182528451608085015284518a94839260a09091019190870190808383600083811015611a6f578181015183820152602001611a57565b80600260006123c586613471565b60408051600160a060020a038816918101919091527f6372656174656444617465000000000000000000000000000000000000000000606080830182905260208084019182528451608085015284518a94839260a09091019190870190808383600083811015611a6f578181015183820152602001611a57565b60006002600061244e85613471565b60408051600160a060020a038716918101919091527f7570646174656444617465000000000000000000000000000000000000000000606080830182905260208084019182528451608085015284518994839260a0909101919087019080838360008381101561163e578181015183820152602001611626565b80600260006124d686613471565b60408051600160a060020a038816918101919091527f7570646174656444617465000000000000000000000000000000000000000000606080830182905260208084019182528451608085015284518a94839260a09091019190870190808383600083811015611a6f578181015183820152602001611a57565b806002600061255e86613471565b60408051600160a060020a038816918101919091527f6d696e5468726573686f6c640000000000000000000000000000000000000000606080830182905260208084019182528451608085015284518a94839260a09091019190870190808383600083811015611a6f578181015183820152602001611a57565b60606125e383613471565b90506008600082847f66697273744e616d650000000000000000000000000000000000000000000000604051602001808060200184600160a060020a0316600160a060020a031681526020018360001916600019168152602001828103825285818151815260200191508051906020019080838360005b8381101561267257818101518382015260200161265a565b50505050905090810190601f16801561269f5780820380516001836020036101000a031916815260200191505b509450505050506040516020818303038152906040526040518082805190602001908083835b602083106126e45780518252601f1990920191602091820191016126c5565b51815160001960209485036101000a0190811690199190911617905260408051949092018490039093208652858301969096525092840160009081208190558451600160a060020a038816958101959095527f6c6173744e616d65000000000000000000000000000000000000000000000000606080870182905286860190815287516080880152875160089793968996508a955092939192839260a00191908701908083838b5b838110156127a457818101518382015260200161278c565b50505050905090810190601f1680156127d15780820380516001836020036101000a031916815260200191505b509450505050506040516020818303038152906040526040518082805190602001908083835b602083106128165780518252601f1990920191602091820191016127f7565b51815160001960209485036101000a0190811690199190911617905260408051949092018490039093208652858301969096525092840160009081208190558451600160a060020a038816958101959095527f6c6963656e736549640000000000000000000000000000000000000000000000606080870182905286860190815287516080880152875160089793968996508a955092939192839260a00191908701908083838b5b838110156128d65781810151838201526020016128be565b50505050905090810190601f1680156129035780820380516001836020036101000a031916815260200191505b509450505050506040516020818303038152906040526040518082805190602001908083835b602083106129485780518252601f199092019160209182019101612929565b51815160001960209485036101000a0190811690199190911617905260408051949092018490039093208652858301969096525092840160009081208190558451600160a060020a038816958101959095527f7374617465000000000000000000000000000000000000000000000000000000606080870182905286860190815287516080880152875160089793968996508a955092939192839260a00191908701908083838b5b83811015612a085781810151838201526020016129f0565b50505050905090810190601f168015612a355780820380516001836020036101000a031916815260200191505b509450505050506040516020818303038152906040526040518082805190602001908083835b60208310612a7a5780518252601f199092019160209182019101612a5b565b51815160001960209485036101000a0190811690199190911617905260408051949092018490039093208652858301969096525092840160009081208190558451600160a060020a038816958101959095527f66756c6c41646472657373000000000000000000000000000000000000000000606080870182905286860190815287516080880152875160039793968996508a955092939192839260a00191908701908083838b5b83811015612b3a578181015183820152602001612b22565b50505050905090810190601f168015612b675780820380516001836020036101000a031916815260200191505b509450505050506040516020818303038152906040526040518082805190602001908083835b60208310612bac5780518252601f199092019160209182019101612b8d565b51815160209384036101000a600019018019909216911617905260408051929094018290039091208652850195909552929092016000908120612bf39450925090506136a6565b6008600082847f7a6970636f646500000000000000000000000000000000000000000000000000604051602001808060200184600160a060020a0316600160a060020a031681526020018360001916600019168152602001828103825285818151815260200191508051906020019080838360005b83811015612c80578181015183820152602001612c68565b50505050905090810190601f168015612cad5780820380516001836020036101000a031916815260200191505b509450505050506040516020818303038152906040526040518082805190602001908083835b60208310612cf25780518252601f199092019160209182019101612cd3565b51815160001960209485036101000a0190811690199190911617905260408051949092018490039093208652858301969096525092840160009081208190558451600160a060020a038816958101959095527f65787069726174696f6e44617465000000000000000000000000000000000000606080870182905286860190815287516080880152875160029793968996508a955092939192839260a00191908701908083838b5b83811015612db2578181015183820152602001612d9a565b50505050905090810190601f168015612ddf5780820380516001836020036101000a031916815260200191505b509450505050506040516020818303038152906040526040518082805190602001908083835b60208310612e245780518252601f199092019160209182019101612e05565b51815160001960209485036101000a0190811690199190911617905260408051949092018490039093208652858301969096525092840160009081208190558451600160a060020a038816958101959095527f6372656174656444617465000000000000000000000000000000000000000000606080870182905286860190815287516080880152875160029793968996508a955092939192839260a00191908701908083838b5b83811015612ee4578181015183820152602001612ecc565b50505050905090810190601f168015612f115780820380516001836020036101000a031916815260200191505b509450505050506040516020818303038152906040526040518082805190602001908083835b60208310612f565780518252601f199092019160209182019101612f37565b51815160001960209485036101000a0190811690199190911617905260408051949092018490039093208652858301969096525092840160009081208190558451600160a060020a038816958101959095527f7570646174656444617465000000000000000000000000000000000000000000606080870182905286860190815287516080880152875160029793968996508a955092939192839260a00191908701908083838b5b83811015613016578181015183820152602001612ffe565b50505050905090810190601f1680156130435780820380516001836020036101000a031916815260200191505b509450505050506040516020818303038152906040526040518082805190602001908083835b602083106130885780518252601f199092019160209182019101613069565b51815160001960209485036101000a0190811690199190911617905260408051949092018490039093208652858301969096525092840160009081208190558451600160a060020a038816958101959095527f6d696e5468726573686f6c640000000000000000000000000000000000000000606080870182905286860190815287516080880152875160029793968996508a955092939192839260a00191908701908083838b5b83811015613148578181015183820152602001613130565b50505050905090810190601f1680156131755780820380516001836020036101000a031916815260200191505b509450505050506040516020818303038152906040526040518082805190602001908083835b602083106131ba5780518252601f19909201916020918201910161319b565b51815160209384036101000a6000190180199092169116179052604080519290940182900390912086528501959095529290920160009081205550508315905061320757613207826134ec565b505050565b6000613216610e3a565b600160a060020a03166336ee77736040518163ffffffff1660e060020a028152600401602060405180830381600087803b15801561111b57600080fd5b604080517f636f6e6669726d6174696f6e7300000000000000000000000000000000000000602080830191909152600160a060020a038516828401527f766f746572730000000000000000000000000000000000000000000000000000606080840191909152835180840390910181526080909201928390528151600b9360009392909182918401908083835b602083106132ff5780518252601f1990920191602091820191016132e0565b51815160209384036101000a60001901801990921691161790526040805192909401829003909120865285810196909652509290920160009081208054600181018255908252939020909201805473ffffffffffffffffffffffffffffffffffffffff1916600160a060020a039490941693909317909255505050565b6133e5838261338b868661195d565b6133958787611b24565b61339f8888611c35565b6133a98989611e57565b6133b38a8a611d46565b6133bd8b8b612195565b6133c78c8c6122a6565b6133d18d8d6115b4565b6133db8e8e61243f565b6107b58f8f6118d4565b82156133f5576133f582826135e2565b61320783836125d8565b6000806060600061340f866107fb565b9093509150600090505b828110156134635784600160a060020a0316828281518110151561343957fe5b90602001906020020151600160a060020a0316141561345b5760019350613468565b600101613419565b600093505b50505092915050565b6060816134b15760408051808201909152600a81527f76616c696461746f72730000000000000000000000000000000000000000000060208201526134e6565b60408051808201909152600e81527f70656e64696e674368616e67657300000000000000000000000000000000000060208201525b92915050565b604080517f636f6e6669726d6174696f6e7300000000000000000000000000000000000000602080830191909152600160a060020a038416828401527f766f746572730000000000000000000000000000000000000000000000000000606080840191909152835180840390910181526080909201928390528151600b9360009392909182918401908083835b602083106135985780518252601f199092019160209182019101613579565b51815160209384036101000a6000190180199092169116179052604080519290940182900390912086528501959095529290920160009081206135df9450925090506136ea565b50565b606060006135ef8461177d565b9150600090505b815181101561218f5761362083838381518110151561361157fe5b90602001906020020151613253565b6001016135f6565b828054600181600116156101000203166002900490600052602060002090601f016020900481019282601f1061366957805160ff1916838001178555613696565b82800160010185558215613696579182015b8281111561369657825182559160200191906001019061367b565b506136a2929150613704565b5090565b50805460018160011615610100020316600290046000825580601f106136cc57506135df565b601f0160209004906000526020600020908101906135df9190613704565b50805460008255906000526020600020908101906135df91905b610a0391905b808211156136a2576000815560010161370a5600a165627a7a72305820f96f4f3f3a4f90318a79d26e50365375da19c68bb72e0433b6a897ae941143550029",
  "source": "pragma solidity ^0.4.24;\n\nimport \"./libs/SafeMath.sol\";\nimport \"./interfaces/IBallotsStorage.sol\";\nimport \"./interfaces/IProxyStorage.sol\";\nimport \"./interfaces/IKeysManager.sol\";\nimport \"./interfaces/IValidatorMetadata.sol\";\nimport \"./eternal-storage/EternalStorage.sol\";\nimport \"./abstracts/EnumThresholdTypes.sol\";\n\n\ncontract ValidatorMetadata is EternalStorage, EnumThresholdTypes, IValidatorMetadata {\n    using SafeMath for uint256;\n\n    bytes32 internal constant INIT_METADATA_DISABLED = keccak256(\"initMetadataDisabled\");\n    bytes32 internal constant OWNER = keccak256(\"owner\");\n    bytes32 internal constant PROXY_STORAGE = keccak256(\"proxyStorage\");\n\n    bytes32 internal constant CONFIRMATIONS = \"confirmations\";\n    bytes32 internal constant CREATED_DATE = \"createdDate\";\n    bytes32 internal constant EXPIRATION_DATE = \"expirationDate\";\n    bytes32 internal constant FIRST_NAME = \"firstName\";\n    bytes32 internal constant FULL_ADDRESS = \"fullAddress\";\n    bytes32 internal constant LAST_NAME = \"lastName\";\n    bytes32 internal constant LICENSE_ID = \"licenseId\";\n    bytes32 internal constant MIN_THRESHOLD = \"minThreshold\";\n    bytes32 internal constant STATE = \"state\";\n    bytes32 internal constant UPDATED_DATE = \"updatedDate\";\n    bytes32 internal constant VOTERS = \"voters\";\n    bytes32 internal constant ZIP_CODE = \"zipcode\";\n\n    event MetadataCleared(address indexed miningKey);\n    event MetadataCreated(address indexed miningKey);\n    event MetadataMoved(address indexed oldMiningKey, address indexed newMiningKey);\n    event ChangeRequestInitiated(address indexed miningKey);\n    event CancelledRequest(address indexed miningKey);\n    event Confirmed(address indexed miningKey, address votingSender, address votingSenderMiningKey);\n    event FinalizedChange(address indexed miningKey);\n\n    modifier onlyValidVotingKey(address _votingKey) {\n        require(_getKeysManager().isVotingActive(_votingKey));\n        _;\n    }\n\n    modifier onlyFirstTime(address _votingKey) {\n        address miningKey = _getKeysManager().getMiningKeyByVoting(_votingKey);\n        require(_getCreatedDate(false, miningKey) == 0);\n        _;\n    }\n\n    modifier onlyOwner() {\n        require(msg.sender == addressStorage[OWNER]);\n        _;\n    }\n\n    modifier onlyKeysManager() {\n        require(msg.sender == address(_getKeysManager()));\n        _;\n    }\n\n    function clearMetadata(address _miningKey)\n        external\n        onlyKeysManager\n    {\n        if (_ifPendingExist(_miningKey)) {\n            _deleteMetadata(true, _miningKey);\n        }\n        _deleteMetadata(false, _miningKey);\n        emit MetadataCleared(_miningKey);\n    }\n\n    function moveMetadata(address _oldMiningKey, address _newMiningKey)\n        external\n        onlyKeysManager\n    {\n        if (_ifPendingExist(_oldMiningKey)) {\n            _moveMetadata(true, _oldMiningKey, _newMiningKey);\n        }\n        _moveMetadata(false, _oldMiningKey, _newMiningKey);\n        emit MetadataMoved(_oldMiningKey, _newMiningKey);\n    }\n\n    function proxyStorage() public view returns (address) {\n        return addressStorage[PROXY_STORAGE];\n    }\n\n    function getValidatorName(address _miningKey) public view returns (\n        bytes32 firstName,\n        bytes32 lastName\n    ) {\n        firstName = _getFirstName(false, _miningKey);\n        lastName = _getLastName(false, _miningKey);\n    }\n\n    function validators(address _miningKey) public view returns (\n        bytes32 firstName,\n        bytes32 lastName,\n        bytes32 licenseId,\n        string fullAddress,\n        bytes32 state,\n        bytes32 zipcode,\n        uint256 expirationDate,\n        uint256 createdDate,\n        uint256 updatedDate,\n        uint256 minThreshold\n    ) {\n        return _validators(false, _miningKey);\n    }\n\n    function pendingChanges(address _miningKey) public view returns (\n        bytes32 firstName,\n        bytes32 lastName,\n        bytes32 licenseId,\n        string fullAddress,\n        bytes32 state,\n        bytes32 zipcode,\n        uint256 expirationDate,\n        uint256 createdDate,\n        uint256 updatedDate,\n        uint256 minThreshold\n    ) {\n        return _validators(true, _miningKey);\n    }\n\n    function confirmations(address _miningKey) public view returns (\n        uint256 count,\n        address[] voters\n    ) {\n        voters = _getConfirmationsVoters(_miningKey);\n        count = voters.length;\n    }\n\n    function initMetadataDisabled() public view returns(bool) {\n        return boolStorage[INIT_METADATA_DISABLED];\n    }\n\n    function initMetadata( // used for migration\n        bytes32 _firstName,\n        bytes32 _lastName,\n        bytes32 _licenseId,\n        string _fullAddress,\n        bytes32 _state,\n        bytes32 _zipcode,\n        uint256 _expirationDate,\n        uint256 _createdDate,\n        uint256 _updatedDate,\n        uint256 _minThreshold,\n        address _miningKey\n    ) public onlyOwner {\n        require(_getKeysManager().isMiningActive(_miningKey));\n        require(_getCreatedDate(false, _miningKey) == 0);\n        require(_createdDate != 0);\n        require(!initMetadataDisabled());\n        _setMetadata(\n            false,\n            _miningKey,\n            _firstName,\n            _lastName,\n            _licenseId,\n            _fullAddress,\n            _state,\n            _zipcode,\n            _expirationDate,\n            _createdDate,\n            _updatedDate,\n            _minThreshold\n        );\n    }\n\n    function initMetadataDisable() public onlyOwner {\n        boolStorage[INIT_METADATA_DISABLED] = true;\n    }\n\n    function createMetadata(\n        bytes32 _firstName,\n        bytes32 _lastName,\n        bytes32 _licenseId,\n        string _fullAddress,\n        bytes32 _state,\n        bytes32 _zipcode,\n        uint256 _expirationDate\n    )\n        public\n        onlyValidVotingKey(msg.sender)\n        onlyFirstTime(msg.sender)\n    {\n        address miningKey = _getKeysManager().getMiningKeyByVoting(msg.sender);\n        _setMetadata(\n            false,\n            miningKey,\n            _firstName,\n            _lastName,\n            _licenseId,\n            _fullAddress,\n            _state,\n            _zipcode,\n            _expirationDate,\n            getTime(),\n            0,\n            getMinThreshold()\n        );\n        emit MetadataCreated(miningKey);\n    }\n\n    function changeRequest(\n        bytes32 _firstName,\n        bytes32 _lastName,\n        bytes32 _licenseId,\n        string _fullAddress,\n        bytes32 _state,\n        bytes32 _zipcode,\n        uint256 _expirationDate\n    )\n        public\n        onlyValidVotingKey(msg.sender)\n        returns(bool)\n    {\n        address miningKey = _getKeysManager().getMiningKeyByVoting(msg.sender);\n        _setMetadata(\n            true,\n            miningKey,\n            _firstName,\n            _lastName,\n            _licenseId,\n            _fullAddress,\n            _state,\n            _zipcode,\n            _expirationDate,\n            _getCreatedDate(false, miningKey),\n            getTime(),\n            _getMinThreshold(false, miningKey)\n        );\n        emit ChangeRequestInitiated(miningKey);\n        return true;\n    }\n\n    function cancelPendingChange() public onlyValidVotingKey(msg.sender) returns(bool) {\n        address miningKey = _getKeysManager().getMiningKeyByVoting(msg.sender);\n        _deleteMetadata(true, miningKey);\n        emit CancelledRequest(miningKey);\n        return true;\n    }\n\n    function isValidatorAlreadyVoted(address _miningKey, address _voterMiningKey)\n        public\n        view\n        returns(bool)\n    {\n        IKeysManager keysManager = _getKeysManager();\n        address historyVoterMiningKey = _voterMiningKey;\n        uint256 maxDeep = keysManager.maxOldMiningKeysDeepCheck();\n\n        for (uint256 i = 0; i < maxDeep; i++) {\n            if (_isValidatorAlreadyVoted(_miningKey, historyVoterMiningKey)) {\n                return true;\n            }\n            address oldMiningKey = keysManager.getMiningKeyHistory(historyVoterMiningKey);\n            if (oldMiningKey == address(0)) {\n                break;\n            }\n            historyVoterMiningKey = oldMiningKey;\n        }\n\n        return false;\n    }\n\n    function confirmPendingChange(address _miningKey)\n        public\n        onlyValidVotingKey(msg.sender)\n    {\n        address voterMiningKey = _getKeysManager().getMiningKeyByVoting(msg.sender);\n        require(voterMiningKey != _miningKey);\n        require(!isValidatorAlreadyVoted(_miningKey, voterMiningKey));\n\n        uint256 confirmationsLimit = _getBallotsStorage().metadataChangeConfirmationsLimit();\n        require(_getConfirmationsVoters(_miningKey).length < confirmationsLimit);\n\n        _confirmationsVoterAdd(_miningKey, voterMiningKey);\n        emit Confirmed(_miningKey, msg.sender, voterMiningKey);\n    }\n\n    function finalize(address _miningKey) public onlyValidVotingKey(msg.sender) {\n        require(_ifPendingExist(_miningKey));\n        uint256 count = _getConfirmationsVoters(_miningKey).length;\n        uint256 minThreshold = _getMinThreshold(true, _miningKey);\n        require(count >= minThreshold);\n        _setFirstName(false, _miningKey, _getFirstName(true, _miningKey));\n        _setLastName(false, _miningKey, _getLastName(true, _miningKey));\n        _setLicenseId(false, _miningKey, _getLicenseId(true, _miningKey));\n        _setState(false, _miningKey, _getState(true, _miningKey));\n        _setFullAddress(false, _miningKey, _getFullAddress(true, _miningKey));\n        _setZipcode(false, _miningKey, _getZipcode(true, _miningKey));\n        _setExpirationDate(false, _miningKey, _getExpirationDate(true, _miningKey));\n        _setCreatedDate(false, _miningKey, _getCreatedDate(true, _miningKey));\n        _setUpdatedDate(false, _miningKey, _getUpdatedDate(true, _miningKey));\n        _setMinThreshold(false, _miningKey, minThreshold);\n        _deleteMetadata(true, _miningKey);\n        emit FinalizedChange(_miningKey);\n    }\n\n    function getTime() public view returns(uint256) {\n        return now;\n    }\n\n    function getMinThreshold() public view returns(uint256) {\n        return _getBallotsStorage().getBallotThreshold(uint256(ThresholdTypes.MetadataChange));\n    }\n\n    function _storeName(bool _pending) private pure returns(string) {\n        return _pending ? \"pendingChanges\" : \"validators\";\n    }\n\n    function _getBallotsStorage() private view returns(IBallotsStorage) {\n        return IBallotsStorage(IProxyStorage(proxyStorage()).getBallotsStorage());\n    }\n\n    function _getFirstName(bool _pending, address _miningKey)\n        private\n        view\n        returns(bytes32)\n    {\n        return bytes32Storage[keccak256(abi.encode(\n            _storeName(_pending), _miningKey, FIRST_NAME\n        ))];\n    }\n\n    function _getLastName(bool _pending, address _miningKey)\n        private\n        view\n        returns(bytes32)\n    {\n        return bytes32Storage[keccak256(abi.encode(\n            _storeName(_pending), _miningKey, LAST_NAME\n        ))];\n    }\n\n    function _getLicenseId(bool _pending, address _miningKey)\n        private\n        view\n        returns(bytes32)\n    {\n        return bytes32Storage[keccak256(abi.encode(\n            _storeName(_pending), _miningKey, LICENSE_ID\n        ))];\n    }\n\n    function _getFullAddress(bool _pending, address _miningKey)\n        private\n        view\n        returns(string)\n    {\n        return stringStorage[keccak256(abi.encode(\n            _storeName(_pending), _miningKey, FULL_ADDRESS\n        ))];\n    }\n\n    function _getState(bool _pending, address _miningKey)\n        private\n        view\n        returns(bytes32)\n    {\n        return bytes32Storage[keccak256(abi.encode(\n            _storeName(_pending), _miningKey, STATE\n        ))];\n    }\n\n    function _getZipcode(bool _pending, address _miningKey)\n        private\n        view\n        returns(bytes32)\n    {\n        return bytes32Storage[keccak256(abi.encode(\n            _storeName(_pending), _miningKey, ZIP_CODE\n        ))];\n    }\n\n    function _getExpirationDate(bool _pending, address _miningKey)\n        private\n        view\n        returns(uint256)\n    {\n        return uintStorage[keccak256(abi.encode(\n            _storeName(_pending), _miningKey, EXPIRATION_DATE\n        ))];\n    }\n\n    function _getCreatedDate(bool _pending, address _miningKey)\n        private\n        view\n        returns(uint256)\n    {\n        return uintStorage[keccak256(abi.encode(\n            _storeName(_pending), _miningKey, CREATED_DATE\n        ))];\n    }\n\n    function _getUpdatedDate(bool _pending, address _miningKey)\n        private\n        view\n        returns(uint256)\n    {\n        return uintStorage[keccak256(abi.encode(\n            _storeName(_pending), _miningKey, UPDATED_DATE\n        ))];\n    }\n\n    function _getMinThreshold(bool _pending, address _miningKey)\n        private\n        view\n        returns(uint256)\n    {\n        return uintStorage[keccak256(abi.encode(\n            _storeName(_pending), _miningKey, MIN_THRESHOLD\n        ))];\n    }\n\n    function _getConfirmationsVoters(address _miningKey)\n        private\n        view\n        returns(address[] voters)\n    {\n        voters = addressArrayStorage[keccak256(abi.encode(\n            CONFIRMATIONS, _miningKey, VOTERS\n        ))];\n    }\n\n    function _getKeysManager() private view returns(IKeysManager) {\n        return IKeysManager(IProxyStorage(proxyStorage()).getKeysManager());\n    }\n\n    function _ifPendingExist(address _miningKey) private view returns(bool) {\n        return _getCreatedDate(true, _miningKey) > 0;\n    }\n\n    function _isValidatorAlreadyVoted(address _miningKey, address _voterMiningKey)\n        private\n        view\n        returns(bool)\n    {\n        uint256 count;\n        address[] memory voters;\n        (count, voters) = confirmations(_miningKey);\n        for (uint256 i = 0; i < count; i++) {\n            if (voters[i] == _voterMiningKey) {\n                return true;\n            }\n        }\n        return false;\n    }\n\n    function _deleteMetadata(bool _pending, address _miningKey) private {\n        string memory _store = _storeName(_pending);\n        delete bytes32Storage[keccak256(abi.encode(_store, _miningKey, FIRST_NAME))];\n        delete bytes32Storage[keccak256(abi.encode(_store, _miningKey, LAST_NAME))];\n        delete bytes32Storage[keccak256(abi.encode(_store, _miningKey, LICENSE_ID))];\n        delete bytes32Storage[keccak256(abi.encode(_store, _miningKey, STATE))];\n        delete stringStorage[keccak256(abi.encode(_store, _miningKey, FULL_ADDRESS))];\n        delete bytes32Storage[keccak256(abi.encode(_store, _miningKey, ZIP_CODE))];\n        delete uintStorage[keccak256(abi.encode(_store, _miningKey, EXPIRATION_DATE))];\n        delete uintStorage[keccak256(abi.encode(_store, _miningKey, CREATED_DATE))];\n        delete uintStorage[keccak256(abi.encode(_store, _miningKey, UPDATED_DATE))];\n        delete uintStorage[keccak256(abi.encode(_store, _miningKey, MIN_THRESHOLD))];\n        if (_pending) {\n            _confirmationsVotersClear(_miningKey);\n        }\n    }\n\n    function _moveMetadata(bool _pending, address _oldMiningKey, address _newMiningKey) private {\n        _setMetadata(\n            _pending,\n            _newMiningKey,\n            _getFirstName(_pending, _oldMiningKey),\n            _getLastName(_pending, _oldMiningKey),\n            _getLicenseId(_pending, _oldMiningKey),\n            _getFullAddress(_pending, _oldMiningKey),\n            _getState(_pending, _oldMiningKey),\n            _getZipcode(_pending, _oldMiningKey),\n            _getExpirationDate(_pending, _oldMiningKey),\n            _getCreatedDate(_pending, _oldMiningKey),\n            _getUpdatedDate(_pending, _oldMiningKey),\n            _getMinThreshold(_pending, _oldMiningKey)\n        );\n        \n        if (_pending) {\n            _confirmationsVotersCopy(_oldMiningKey, _newMiningKey);\n        }\n\n        _deleteMetadata(_pending, _oldMiningKey);\n    }\n\n    function _setFirstName(bool _pending, address _miningKey, bytes32 _firstName) private {\n        bytes32Storage[keccak256(abi.encode(\n            _storeName(_pending),\n            _miningKey,\n            FIRST_NAME\n        ))] = _firstName;\n    }\n\n    function _setLastName(bool _pending, address _miningKey, bytes32 _lastName) private {\n        bytes32Storage[keccak256(abi.encode(\n            _storeName(_pending),\n            _miningKey,\n            LAST_NAME\n        ))] = _lastName;\n    }\n\n    function _setLicenseId(bool _pending, address _miningKey, bytes32 _licenseId) private {\n        bytes32Storage[keccak256(abi.encode(\n            _storeName(_pending),\n            _miningKey,\n            LICENSE_ID\n        ))] = _licenseId;\n    }\n\n    function _setState(bool _pending, address _miningKey, bytes32 _state) private {\n        bytes32Storage[keccak256(abi.encode(\n            _storeName(_pending),\n            _miningKey,\n            STATE\n        ))] = _state;\n    }\n\n    function _setFullAddress(\n        bool _pending,\n        address _miningKey,\n        string _fullAddress\n    ) private {\n        require(bytes(_fullAddress).length <= 200);\n        stringStorage[keccak256(abi.encode(\n            _storeName(_pending),\n            _miningKey,\n            FULL_ADDRESS\n        ))] = _fullAddress;\n    }\n\n    function _setZipcode(bool _pending, address _miningKey, bytes32 _zipcode) private {\n        bytes32Storage[keccak256(abi.encode(\n            _storeName(_pending),\n            _miningKey,\n            ZIP_CODE\n        ))] = _zipcode;\n    }\n\n    function _setExpirationDate(\n        bool _pending,\n        address _miningKey,\n        uint256 _expirationDate\n    ) private {\n        uintStorage[keccak256(abi.encode(\n            _storeName(_pending),\n            _miningKey,\n            EXPIRATION_DATE\n        ))] = _expirationDate;\n    }\n\n    function _setCreatedDate(\n        bool _pending,\n        address _miningKey,\n        uint256 _createdDate\n    ) private {\n        uintStorage[keccak256(abi.encode(\n            _storeName(_pending),\n            _miningKey,\n            CREATED_DATE\n        ))] = _createdDate;\n    }\n\n    function _setUpdatedDate(\n        bool _pending,\n        address _miningKey,\n        uint256 _updatedDate\n    ) private {\n        uintStorage[keccak256(abi.encode(\n            _storeName(_pending),\n            _miningKey,\n            UPDATED_DATE\n        ))] = _updatedDate;\n    }\n\n    function _setMetadata(\n        bool _pending,\n        address _miningKey,\n        bytes32 _firstName,\n        bytes32 _lastName,\n        bytes32 _licenseId,\n        string _fullAddress,\n        bytes32 _state,\n        bytes32 _zipcode,\n        uint256 _expirationDate,\n        uint256 _createdDate,\n        uint256 _updatedDate,\n        uint256 _minThreshold\n    ) private {\n        _setFirstName(_pending, _miningKey, _firstName);\n        _setLastName(_pending, _miningKey, _lastName);\n        _setLicenseId(_pending, _miningKey, _licenseId);\n        _setState(_pending, _miningKey, _state);\n        _setFullAddress(_pending, _miningKey, _fullAddress);\n        _setZipcode(_pending, _miningKey, _zipcode);\n        _setExpirationDate(_pending, _miningKey, _expirationDate);\n        _setCreatedDate(_pending, _miningKey, _createdDate);\n        _setUpdatedDate(_pending, _miningKey, _updatedDate);\n        _setMinThreshold(_pending, _miningKey, _minThreshold);\n        if (_pending) {\n            _confirmationsVotersClear(_miningKey);\n        }\n    }\n\n    function _setMinThreshold(\n        bool _pending,\n        address _miningKey,\n        uint256 _minThreshold\n    ) private {\n        uintStorage[keccak256(abi.encode(\n            _storeName(_pending),\n            _miningKey,\n            MIN_THRESHOLD\n        ))] = _minThreshold;\n    }\n\n    function _confirmationsVoterAdd(address _miningKey, address _voterMiningKey) private {\n        addressArrayStorage[keccak256(abi.encode(\n            CONFIRMATIONS, _miningKey, VOTERS\n        ))].push(_voterMiningKey);\n    }\n\n    function _confirmationsVotersClear(address _miningKey) private {\n        delete addressArrayStorage[keccak256(abi.encode(\n            CONFIRMATIONS, _miningKey, VOTERS\n        ))];\n    }\n\n    function _confirmationsVotersCopy(address _oldMiningKey, address _newMiningKey) private {\n        address[] memory voters = _getConfirmationsVoters(_oldMiningKey);\n        for (uint256 i = 0; i < voters.length; i++) {\n            _confirmationsVoterAdd(_newMiningKey, voters[i]);\n        }\n    }\n\n    function _validators(bool _pending, address _miningKey) private view returns (\n        bytes32 firstName,\n        bytes32 lastName,\n        bytes32 licenseId,\n        string fullAddress,\n        bytes32 state,\n        bytes32 zipcode,\n        uint256 expirationDate,\n        uint256 createdDate,\n        uint256 updatedDate,\n        uint256 minThreshold\n    ) {\n        firstName = _getFirstName(_pending, _miningKey);\n        lastName = _getLastName(_pending, _miningKey);\n        licenseId = _getLicenseId(_pending, _miningKey);\n        fullAddress = _getFullAddress(_pending, _miningKey);\n        state = _getState(_pending, _miningKey);\n        zipcode = _getZipcode(_pending, _miningKey);\n        expirationDate = _getExpirationDate(_pending, _miningKey);\n        createdDate = _getCreatedDate(_pending, _miningKey);\n        updatedDate = _getUpdatedDate(_pending, _miningKey);\n        minThreshold = _getMinThreshold(_pending, _miningKey);\n    }\n\n}",
  "sourcePath": "/home/moc/poa-network-consensus-contracts/contracts/ValidatorMetadata.sol",
  "compiler": {
    "name": "solc",
    "version": "0.4.24+commit.e67f0147.Emscripten.clang"
  },
  "schemaVersion": "2.0.1",
  "updatedAt": "2018-11-18T12:51:15.635Z"
}