{
  "contractName": "VotingToChangeMinThreshold",
  "abi": [
    {
      "constant": true,
      "inputs": [
        {
          "name": "_id",
          "type": "uint256"
        }
      ],
      "name": "canBeFinalizedNow",
      "outputs": [
        {
          "name": "",
          "type": "bool"
        }
      ],
      "payable": false,
      "stateMutability": "view",
      "type": "function"
    },
    {
      "constant": true,
      "inputs": [],
      "name": "minBallotDuration",
      "outputs": [
        {
          "name": "",
          "type": "uint256"
        }
      ],
      "payable": false,
      "stateMutability": "view",
      "type": "function"
    },
    {
      "constant": false,
      "inputs": [
        {
          "name": "_id",
          "type": "uint256"
        }
      ],
      "name": "finalize",
      "outputs": [],
      "payable": false,
      "stateMutability": "nonpayable",
      "type": "function"
    },
    {
      "constant": true,
      "inputs": [
        {
          "name": "_id",
          "type": "uint256"
        }
      ],
      "name": "getQuorumState",
      "outputs": [
        {
          "name": "",
          "type": "uint256"
        }
      ],
      "payable": false,
      "stateMutability": "view",
      "type": "function"
    },
    {
      "constant": true,
      "inputs": [
        {
          "name": "_id",
          "type": "uint256"
        },
        {
          "name": "_votingKey",
          "type": "address"
        }
      ],
      "name": "isValidVote",
      "outputs": [
        {
          "name": "",
          "type": "bool"
        }
      ],
      "payable": false,
      "stateMutability": "view",
      "type": "function"
    },
    {
      "constant": true,
      "inputs": [
        {
          "name": "_index",
          "type": "uint256"
        }
      ],
      "name": "activeBallots",
      "outputs": [
        {
          "name": "",
          "type": "uint256"
        }
      ],
      "payable": false,
      "stateMutability": "view",
      "type": "function"
    },
    {
      "constant": true,
      "inputs": [],
      "name": "initDisabled",
      "outputs": [
        {
          "name": "",
          "type": "bool"
        }
      ],
      "payable": false,
      "stateMutability": "view",
      "type": "function"
    },
    {
      "constant": true,
      "inputs": [],
      "name": "getTime",
      "outputs": [
        {
          "name": "",
          "type": "uint256"
        }
      ],
      "payable": false,
      "stateMutability": "view",
      "type": "function"
    },
    {
      "constant": true,
      "inputs": [],
      "name": "activeBallotsLength",
      "outputs": [
        {
          "name": "",
          "type": "uint256"
        }
      ],
      "payable": false,
      "stateMutability": "view",
      "type": "function"
    },
    {
      "constant": true,
      "inputs": [
        {
          "name": "_id",
          "type": "uint256"
        }
      ],
      "name": "isActive",
      "outputs": [
        {
          "name": "",
          "type": "bool"
        }
      ],
      "payable": false,
      "stateMutability": "view",
      "type": "function"
    },
    {
      "constant": true,
      "inputs": [
        {
          "name": "_id",
          "type": "uint256"
        }
      ],
      "name": "getIndex",
      "outputs": [
        {
          "name": "",
          "type": "uint256"
        }
      ],
      "payable": false,
      "stateMutability": "view",
      "type": "function"
    },
    {
      "constant": true,
      "inputs": [],
      "name": "maxBallotDuration",
      "outputs": [
        {
          "name": "",
          "type": "uint256"
        }
      ],
      "payable": false,
      "stateMutability": "pure",
      "type": "function"
    },
    {
      "constant": true,
      "inputs": [],
      "name": "migrateDisabled",
      "outputs": [
        {
          "name": "",
          "type": "bool"
        }
      ],
      "payable": false,
      "stateMutability": "view",
      "type": "function"
    },
    {
      "constant": false,
      "inputs": [],
      "name": "migrateDisable",
      "outputs": [],
      "payable": false,
      "stateMutability": "nonpayable",
      "type": "function"
    },
    {
      "constant": true,
      "inputs": [],
      "name": "proxyStorage",
      "outputs": [
        {
          "name": "",
          "type": "address"
        }
      ],
      "payable": false,
      "stateMutability": "view",
      "type": "function"
    },
    {
      "constant": false,
      "inputs": [
        {
          "name": "_id",
          "type": "uint256"
        },
        {
          "name": "_choice",
          "type": "uint256"
        }
      ],
      "name": "vote",
      "outputs": [],
      "payable": false,
      "stateMutability": "nonpayable",
      "type": "function"
    },
    {
      "constant": true,
      "inputs": [
        {
          "name": "_id",
          "type": "uint256"
        }
      ],
      "name": "getMinThresholdOfVoters",
      "outputs": [
        {
          "name": "",
          "type": "uint256"
        }
      ],
      "payable": false,
      "stateMutability": "view",
      "type": "function"
    },
    {
      "constant": true,
      "inputs": [
        {
          "name": "_id",
          "type": "uint256"
        },
        {
          "name": "_votingKey",
          "type": "address"
        }
      ],
      "name": "hasAlreadyVoted",
      "outputs": [
        {
          "name": "",
          "type": "bool"
        }
      ],
      "payable": false,
      "stateMutability": "view",
      "type": "function"
    },
    {
      "constant": true,
      "inputs": [
        {
          "name": "_id",
          "type": "uint256"
        },
        {
          "name": "_miningKey",
          "type": "address"
        }
      ],
      "name": "areOldMiningKeysVoted",
      "outputs": [
        {
          "name": "",
          "type": "bool"
        }
      ],
      "payable": false,
      "stateMutability": "view",
      "type": "function"
    },
    {
      "constant": true,
      "inputs": [],
      "name": "nextBallotId",
      "outputs": [
        {
          "name": "",
          "type": "uint256"
        }
      ],
      "payable": false,
      "stateMutability": "view",
      "type": "function"
    },
    {
      "constant": true,
      "inputs": [
        {
          "name": "_miningKey",
          "type": "address"
        }
      ],
      "name": "validatorActiveBallots",
      "outputs": [
        {
          "name": "",
          "type": "uint256"
        }
      ],
      "payable": false,
      "stateMutability": "view",
      "type": "function"
    },
    {
      "constant": false,
      "inputs": [
        {
          "name": "_prevVotingToChange",
          "type": "address"
        }
      ],
      "name": "migrateBasicAll",
      "outputs": [],
      "payable": false,
      "stateMutability": "nonpayable",
      "type": "function"
    },
    {
      "anonymous": false,
      "inputs": [
        {
          "indexed": true,
          "name": "id",
          "type": "uint256"
        },
        {
          "indexed": true,
          "name": "ballotType",
          "type": "uint256"
        },
        {
          "indexed": true,
          "name": "creator",
          "type": "address"
        }
      ],
      "name": "BallotCreated",
      "type": "event"
    },
    {
      "anonymous": false,
      "inputs": [
        {
          "indexed": true,
          "name": "id",
          "type": "uint256"
        },
        {
          "indexed": true,
          "name": "voter",
          "type": "address"
        }
      ],
      "name": "BallotFinalized",
      "type": "event"
    },
    {
      "anonymous": false,
      "inputs": [
        {
          "indexed": true,
          "name": "id",
          "type": "uint256"
        },
        {
          "indexed": false,
          "name": "decision",
          "type": "uint256"
        },
        {
          "indexed": true,
          "name": "voter",
          "type": "address"
        },
        {
          "indexed": false,
          "name": "time",
          "type": "uint256"
        },
        {
          "indexed": false,
          "name": "voterMiningKey",
          "type": "address"
        }
      ],
      "name": "Vote",
      "type": "event"
    },
    {
      "constant": false,
      "inputs": [
        {
          "name": "_startTime",
          "type": "uint256"
        },
        {
          "name": "_endTime",
          "type": "uint256"
        },
        {
          "name": "_proposedValue",
          "type": "uint256"
        },
        {
          "name": "_memo",
          "type": "string"
        }
      ],
      "name": "createBallot",
      "outputs": [],
      "payable": false,
      "stateMutability": "nonpayable",
      "type": "function"
    },
    {
      "constant": true,
      "inputs": [
        {
          "name": "_id",
          "type": "uint256"
        },
        {
          "name": "_votingKey",
          "type": "address"
        }
      ],
      "name": "getBallotInfo",
      "outputs": [
        {
          "name": "startTime",
          "type": "uint256"
        },
        {
          "name": "endTime",
          "type": "uint256"
        },
        {
          "name": "totalVoters",
          "type": "uint256"
        },
        {
          "name": "progress",
          "type": "int256"
        },
        {
          "name": "isFinalized",
          "type": "bool"
        },
        {
          "name": "proposedValue",
          "type": "uint256"
        },
        {
          "name": "creator",
          "type": "address"
        },
        {
          "name": "memo",
          "type": "string"
        },
        {
          "name": "canBeFinalizedNow",
          "type": "bool"
        },
        {
          "name": "alreadyVoted",
          "type": "bool"
        }
      ],
      "payable": false,
      "stateMutability": "view",
      "type": "function"
    },
    {
      "constant": false,
      "inputs": [
        {
          "name": "_minBallotDuration",
          "type": "uint256"
        },
        {
          "name": "_minPossibleThreshold",
          "type": "uint256"
        }
      ],
      "name": "init",
      "outputs": [],
      "payable": false,
      "stateMutability": "nonpayable",
      "type": "function"
    },
    {
      "constant": false,
      "inputs": [
        {
          "name": "_id",
          "type": "uint256"
        },
        {
          "name": "_prevVotingToChange",
          "type": "address"
        },
        {
          "name": "_voters",
          "type": "address[]"
        }
      ],
      "name": "migrateBasicOne",
      "outputs": [],
      "payable": false,
      "stateMutability": "nonpayable",
      "type": "function"
    },
    {
      "constant": true,
      "inputs": [],
      "name": "minPossibleThreshold",
      "outputs": [
        {
          "name": "",
          "type": "uint256"
        }
      ],
      "payable": false,
      "stateMutability": "view",
      "type": "function"
    }
  ],
  "bytecode": "0x608060405234801561001057600080fd5b50613ac7806100206000396000f3006080604052600436106101445763ffffffff60e060020a6000350416629b38fa811461014957806302a99b9d1461017557806305261aea1461019c57806308dbb18e146101b65780631700cc3c146101ce578063288fa739146102315780633bf05e951461025557806352a369381461026d578063557ed1ba146102825780636ccc02341461029757806373ece100146102ac57806382afd23b146103135780638c64a20d1461032b5780638e7cb6e11461042457806396bc6ef01461043c5780639fc18d4b14610451578063a3ac1eb114610466578063a5843f081461047b578063ae4b1b5b14610496578063b384abef146104c7578063b3ea87c4146104e2578063c088003d146104f7578063c14bfd291461050f578063c7dea77714610533578063dc6bfbb514610557578063f49774ee1461056c578063f71de2ed1461058d575b600080fd5b34801561015557600080fd5b506101616004356105ae565b604080519115158252519081900360200190f35b34801561018157600080fd5b5061018a6105bf565b60408051918252519081900360200190f35b3480156101a857600080fd5b506101b4600435610601565b005b3480156101c257600080fd5b5061018a6004356106bc565b3480156101da57600080fd5b50604080516020601f6064356004818101359283018490048402850184019095528184526101b494803594602480359560443595369560849493019181908401838280828437509497506107909650505050505050565b34801561023d57600080fd5b50610161600435600160a060020a0360243516610857565b34801561026157600080fd5b5061018a60043561092b565b34801561027957600080fd5b50610161610976565b34801561028e57600080fd5b5061018a6109ba565b3480156102a357600080fd5b5061018a6109be565b3480156102b857600080fd5b5060408051602060046044358181013583810280860185019096528085526101b49583359560248035600160a060020a0316963696956064959394920192918291850190849080828437509497506109ed9650505050505050565b34801561031f57600080fd5b506101616004356110dc565b34801561033757600080fd5b5061034f600435600160a060020a0360243516611111565b604051808b81526020018a81526020018981526020018881526020018715151515815260200186815260200185600160a060020a0316600160a060020a03168152602001806020018415151515815260200183151515158152602001828103825285818151815260200191508051906020019080838360005b838110156103e05781810151838201526020016103c8565b50505050905090810190601f16801561040d5780820380516001836020036101000a031916815260200191505b509b50505050505050505050505060405180910390f35b34801561043057600080fd5b5061018a60043561119f565b34801561044857600080fd5b5061018a611231565b34801561045d57600080fd5b50610161611238565b34801561047257600080fd5b506101b461127c565b34801561048757600080fd5b506101b460043560243561132d565b3480156104a257600080fd5b506104ab611384565b60408051600160a060020a039092168252519081900360200190f35b3480156104d357600080fd5b506101b46004356024356113ce565b3480156104ee57600080fd5b5061018a6115fc565b34801561050357600080fd5b5061018a60043561163d565b34801561051b57600080fd5b50610161600435600160a060020a03602435166116cf565b34801561053f57600080fd5b50610161600435600160a060020a036024351661178f565b34801561056357600080fd5b5061018a6118ee565b34801561057857600080fd5b5061018a600160a060020a036004351661192f565b34801561059957600080fd5b506101b4600160a060020a03600435166119b0565b60006105b982611ded565b92915050565b604080517f6d696e42616c6c6f744475726174696f6e000000000000000000000000000000815281519081900360110190206000908152600260205220545b90565b3361060a611fb5565b600160a060020a03166362b46d64826040518263ffffffff1660e060020a0281526004018082600160a060020a0316600160a060020a03168152602001915050602060405180830381600087803b15801561066457600080fd5b505af1158015610678573d6000803e3d6000fd5b505050506040513d602081101561068e57600080fd5b5051151561069b57600080fd5b6106a482611ded565b15156106af57600080fd5b6106b88261202d565b5050565b60408051600080516020613a5c8339815191526020808301919091528183018490527f71756f72756d53746174650000000000000000000000000000000000000000006060808401919091528351808403909101815260809092019283905281516000936002938593909282918401908083835b6020831061074f5780518252601f199092019160209182019101610730565b51815160209384036101000a600019018019909216911617905260408051929094018290039091208652850195909552929092016000205495945050505050565b600061079a6115fc565b8310156107a657600080fd5b6107ae6120f4565b8314156107ba57600080fd5b6107c2612147565b600160a060020a031663eecd10796040518163ffffffff1660e060020a028152600401602060405180830381600087803b1580156107ff57600080fd5b505af1158015610813573d6000803e3d6000fd5b505050506040513d602081101561082957600080fd5b505183111561083757600080fd5b610844600486868561218e565b905061085081846123b4565b5050505050565b600080600080610865611fb5565b600160a060020a0316632d260227866040518263ffffffff1660e060020a0281526004018082600160a060020a0316600160a060020a03168152602001915050602060405180830381600087803b1580156108bf57600080fd5b505af11580156108d3573d6000803e3d6000fd5b505050506040513d60208110156108e957600080fd5b505192506108f78684612489565b159150610904868461178f565b1590508180156109185750610918866110dc565b80156109215750805b9695505050505050565b60408051600080516020613a3c8339815191528152815190819003600d0190206000908152600960205290812080548390811061096457fe5b90600052602060002001549050919050565b604080517f696e697444697361626c656400000000000000000000000000000000000000008152815190819003600c01902060009081526006602052205460ff1690565b4290565b60408051600080516020613a3c8339815191528152815190819003600d01902060009081526009602052205490565b60408051600080516020613a7c833981519152815281519081900360050190206000908152600460205290812054819081908190819081906060908290819033600160a060020a0390911614610a4257600080fd5b600160a060020a038b161515610a5757600080fd5b610a5f610976565b1515610a6a57600080fd5b610a72611238565b15610a7c57600080fd5b8a9850895189600160a060020a03166343d3a4c18e6040518263ffffffff1660e060020a02815260040180828152602001915050602060405180830381600087803b158015610aca57600080fd5b505af1158015610ade573d6000803e3d6000fd5b505050506040513d6020811015610af457600080fd5b505114610b0057600080fd5b88600160a060020a0316639067b6778d6040518263ffffffff1660e060020a02815260040180828152602001915050602060405180830381600087803b158015610b4957600080fd5b505af1158015610b5d573d6000803e3d6000fd5b505050506040513d6020811015610b7357600080fd5b50518a51909850610b85908d90612570565b610c038c8a600160a060020a03166323e1a0a88f6040518263ffffffff1660e060020a02815260040180828152602001915050602060405180830381600087803b158015610bd257600080fd5b505af1158015610be6573d6000803e3d6000fd5b505050506040513d6020811015610bfc57600080fd5b5051612602565b610c818c8a600160a060020a031663c088003d8f6040518263ffffffff1660e060020a02815260040180828152602001915050602060405180830381600087803b158015610c5057600080fd5b505af1158015610c64573d6000803e3d6000fd5b505050506040513d6020811015610c7a57600080fd5b50516126e3565b610cff8c8a600160a060020a031663bc2be1be8f6040518263ffffffff1660e060020a02815260040180828152602001915050602060405180830381600087803b158015610cce57600080fd5b505af1158015610ce2573d6000803e3d6000fd5b505050506040513d6020811015610cf857600080fd5b5051612775565b610d098c89612807565b88600160a060020a031663ff84c45f8d6040518263ffffffff1660e060020a02815260040180828152602001915050600060405180830381600087803b158015610d5257600080fd5b505af1158015610d66573d6000803e3d6000fd5b505050506040513d6000823e601f3d908101601f19168201604052610160811015610d9057600080fd5b8151602083015160408401516060850151608086015160a087015160c088015160e08901516101008a01516101208b01516101408c0180519a9c999b989a97999698959794969395929491939283019291640100000000811115610df357600080fd5b82016020810184811115610e0657600080fd5b8151640100000000811182820187101715610e2057600080fd5b50509291905050509c509c5050509a509a50509950505050610e428c88612899565b610e4f8c8760ff1661292b565b610e598c866129bd565b610e638c85612a4f565b610e6d8c84612b4c565b610eeb8c8a600160a060020a031663d6edcb388f6040518263ffffffff1660e060020a02815260040180828152602001915050602060405180830381600087803b158015610eba57600080fd5b505af1158015610ece573d6000803e3d6000fd5b505050506040513d6020811015610ee457600080fd5b50516123b4565b88600160a060020a0316639a5737866040518163ffffffff1660e060020a028152600401602060405180830381600087803b158015610f2957600080fd5b505af1158015610f3d573d6000803e3d6000fd5b505050506040513d6020811015610f5357600080fd5b50519150600090505b89518110156110ce5787610f6e6109ba565b116110a55788600160a060020a031663c14bfd298d84600160a060020a0316632befe2e18e86815181101515610fa057fe5b906020019060200201516040518263ffffffff1660e060020a0281526004018082600160a060020a0316600160a060020a03168152602001915050602060405180830381600087803b158015610ff557600080fd5b505af1158015611009573d6000803e3d6000fd5b505050506040513d602081101561101f57600080fd5b50516040805160e060020a63ffffffff86160281526004810193909352600160a060020a0390911660248301525160448083019260209291908290030181600087803b15801561106e57600080fd5b505af1158015611082573d6000803e3d6000fd5b505050506040513d602081101561109857600080fd5b505115156110a557600080fd5b6110c68c8b838151811015156110b757fe5b90602001906020020151612c32565b600101610f5c565b505050505050505050505050565b60006110e66109ba565b6110ef83612cd4565b111580156105b9575061110182612d66565b6111096109ba565b111592915050565b6000806000806000806000606060008061112a8c612cd4565b99506111358c612d66565b98506111408c612df8565b975061114b8c612e8a565b96506111568c612f1c565b95506111618c612ff3565b945061116c8c613085565b93506111778c613162565b92506111828c611ded565b915061118e8c8c6116cf565b90509295989b9194979a5092959850565b60408051600080516020613a5c8339815191526020808301919091528183018490527f696e6465780000000000000000000000000000000000000000000000000000006060808401919091528351808403909101815260809092019283905281516000936002938593909282918401908083836020831061074f5780518252601f199092019160209182019101610730565b6212750090565b604080517f6d69677261746544697361626c656400000000000000000000000000000000008152815190819003600f01902060009081526006602052205460ff1690565b60408051600080516020613a7c8339815191528152815190819003600501902060009081526004602052205433600160a060020a03909116146112be57600080fd5b6112c6610976565b15156112d157600080fd5b6112d9611238565b156112e357600080fd5b604080517f6d69677261746544697361626c656400000000000000000000000000000000008152815190819003600f0190206000908152600660205220805460ff19166001179055565b6000811161133a57600080fd5b611343826132d7565b604080517f6d696e506f737369626c655468726573686f6c640000000000000000000000008152815190819003601401902060009081526002602052205550565b604080517f70726f787953746f7261676500000000000000000000000000000000000000008152815190819003600c019020600090815260046020522054600160a060020a031690565b6000336113d9611fb5565b600160a060020a03166362b46d64826040518263ffffffff1660e060020a0281526004018082600160a060020a0316600160a060020a03168152602001915050602060405180830381600087803b15801561143357600080fd5b505af1158015611447573d6000803e3d6000fd5b505050506040513d602081101561145d57600080fd5b5051151561146a57600080fd5b611472611238565b151561147d57600080fd5b61148684612f1c565b1561149057600080fd5b611498611fb5565b600160a060020a0316632d260227336040518263ffffffff1660e060020a0281526004018082600160a060020a0316600160a060020a03168152602001915050602060405180830381600087803b1580156114f257600080fd5b505af1158015611506573d6000803e3d6000fd5b505050506040513d602081101561151c57600080fd5b5051915061152a8433610857565b151561153557600080fd5b6001831415611558576115538461154b86612e8a565b600101612899565b611576565b60028314156101445761155384600161157087612e8a565b03612899565b6115808483612c32565b6115a38461159e600161159288612df8565b9063ffffffff6133da16565b612570565b33847f1fad44b452b708aff155b3190058d690f8a0f2e2463fc757b96d1ce1877d0ccc856115cf6109ba565b604080519283526020830191909152600160a060020a03871682820152519081900360600190a350505050565b604080517f6d696e506f737369626c655468726573686f6c640000000000000000000000008152815190819003601401902060009081526002602052205490565b60408051600080516020613a5c8339815191526020808301919091528183018490527f6d696e5468726573686f6c644f66566f746572730000000000000000000000006060808401919091528351808403909101815260809092019283905281516000936002938593909282918401908083836020831061074f5780518252601f199092019160209182019101610730565b600080600160a060020a03831615156116eb5760009150611788565b6116f3611fb5565b600160a060020a0316632d260227846040518263ffffffff1660e060020a0281526004018082600160a060020a0316600160a060020a03168152602001915050602060405180830381600087803b15801561174d57600080fd5b505af1158015611761573d6000803e3d6000fd5b505050506040513d602081101561177757600080fd5b505190506117858482612489565b91505b5092915050565b6000818180808061179e611fb5565b935083600160a060020a031663b9bdaa076040518163ffffffff1660e060020a028152600401602060405180830381600087803b1580156117de57600080fd5b505af11580156117f2573d6000803e3d6000fd5b505050506040513d602081101561180857600080fd5b50519250600091505b828210156118de5783600160a060020a031663a5a36dee866040518263ffffffff1660e060020a0281526004018082600160a060020a0316600160a060020a03168152602001915050602060405180830381600087803b15801561187457600080fd5b505af1158015611888573d6000803e3d6000fd5b505050506040513d602081101561189e57600080fd5b50519050600160a060020a03811615156118bb57600095506118e3565b6118c58882612489565b156118d357600195506118e3565b935060010183611811565b600095505b505050505092915050565b604080517f6e65787442616c6c6f74496400000000000000000000000000000000000000008152815190819003600c01902060009081526002602052205490565b604080517f76616c696461746f7241637469766542616c6c6f747300000000000000000000602080830191909152600160a060020a0384168284015282518083038401815260609092019283905281516000936002938593909282918401908083836020831061074f5780518252601f199092019160209182019101610730565b60408051600080516020613a7c83398151915281528151908190036005019020600090815260046020529081205481908190819081908190819033600160a060020a0390911614611a0057600080fd5b600160a060020a0388161515611a1557600080fd5b611a1d610976565b1515611a2857600080fd5b611a30611238565b15611a3a57600080fd5b879650611a45611384565b600160a060020a0316638b8414c46040518163ffffffff1660e060020a028152600401602060405180830381600087803b158015611a8257600080fd5b505af1158015611a96573d6000803e3d6000fd5b505050506040513d6020811015611aac57600080fd5b5051604080517fdc6bfbb50000000000000000000000000000000000000000000000000000000081529051919750611b4191600160a060020a038a169163dc6bfbb59160048083019260209291908290030181600087803b158015611b1057600080fd5b505af1158015611b24573d6000803e3d6000fd5b505050506040513d6020811015611b3a57600080fd5b50516133f0565b86600160a060020a0316636ccc02346040518163ffffffff1660e060020a028152600401602060405180830381600087803b158015611b7f57600080fd5b505af1158015611b93573d6000803e3d6000fd5b505050506040513d6020811015611ba957600080fd5b50519350611bb5613430565b600094505b83851015611c4a57611c3f87600160a060020a0316633bf05e95876040518263ffffffff1660e060020a02815260040180828152602001915050602060405180830381600087803b158015611c0e57600080fd5b505af1158015611c22573d6000803e3d6000fd5b505050506040513d6020811015611c3857600080fd5b5051613468565b600190940193611bba565b85600160a060020a0316630eaba26a6040518163ffffffff1660e060020a028152600401602060405180830381600087803b158015611c8857600080fd5b505af1158015611c9c573d6000803e3d6000fd5b505050506040513d6020811015611cb257600080fd5b50516000955092505b82851015611de35785600160a060020a031663900eb5a8866040518263ffffffff1660e060020a02815260040180828152602001915050602060405180830381600087803b158015611d0c57600080fd5b505af1158015611d20573d6000803e3d6000fd5b505050506040513d6020811015611d3657600080fd5b5051604080517ff49774ee000000000000000000000000000000000000000000000000000000008152600160a060020a03808416600483015291519294509089169163f49774ee916024808201926020929091908290030181600087803b158015611da057600080fd5b505af1158015611db4573d6000803e3d6000fd5b505050506040513d6020811015611dca57600080fd5b50519050611dd882826134a9565b600190940193611cbb565b5050505050505050565b6000806000806000611dfd611238565b1515611e0c5760009450611fac565b611e146109ba565b9350611e1f86612cd4565b9250611e296118ee565b8610611e385760009450611fac565b83831115611e495760009450611fac565b611e5286612f1c565b15611e605760009450611fac565b611e68611384565b600160a060020a0316638b8414c46040518163ffffffff1660e060020a028152600401602060405180830381600087803b158015611ea557600080fd5b505af1158015611eb9573d6000803e3d6000fd5b505050506040513d6020811015611ecf57600080fd5b5051604080517fa87563370000000000000000000000000000000000000000000000000000000081529051600160a060020a039092169163a8756337916004808201926020929091908290030181600087803b158015611f2e57600080fd5b505af1158015611f42573d6000803e3d6000fd5b505050506040513d6020811015611f5857600080fd5b50519150811515611f6c5760009450611fac565b81611f7687612df8565b1015611f8d57611f85866110dc565b159450611fac565b611f9d848463ffffffff61352a16565b9050611fa76105bf565b811194505b50505050919050565b6000611fbf611384565b600160a060020a0316639a5737866040518163ffffffff1660e060020a028152600401602060405180830381600087803b158015611ffc57600080fd5b505af1158015612010573d6000803e3d6000fd5b505050506040513d602081101561202657600080fd5b5051905090565b6120368161353c565b151561204e57612045816135b5565b61204e816135e4565b600061205982612e8a565b138015612076575061206a8161163d565b61207382612df8565b10155b156120a457612084816136ac565b1561209a576120958160025b61292b565b61209f565b6120f1565b6120af565b6120af816003612090565b6120b881613741565b6120c3816001612602565b604051339082907f3b208472607d900e1f689c976139d1147afc463fa00df525e9aff8b0604d298490600090a35b50565b60006120fe612147565b600160a060020a03166345e23b5360016040518263ffffffff1660e060020a02815260040180828152602001915050602060405180830381600087803b158015611ffc57600080fd5b6000612151611384565b600160a060020a03166336ee77736040518163ffffffff1660e060020a028152600401602060405180830381600087803b158015611ffc57600080fd5b60008060003361219c611fb5565b600160a060020a03166362b46d64826040518263ffffffff1660e060020a0281526004018082600160a060020a0316600160a060020a03168152602001915050602060405180830381600087803b1580156121f657600080fd5b505af115801561220a573d6000803e3d6000fd5b505050506040513d602081101561222057600080fd5b5051151561222d57600080fd5b8686600080831180156122405750600082115b151561224b57600080fd5b8282118015612260575061225d6109ba565b83115b151561226b57600080fd5b61227b828463ffffffff61352a16565b90506122856105bf565b811161229057600080fd5b612298611231565b8111156122a457600080fd5b6122ac611238565b15156122b757600080fd5b6122bf611fb5565b600160a060020a0316632d260227336040518263ffffffff1660e060020a0281526004018082600160a060020a0316600160a060020a03168152602001915050602060405180830381600087803b15801561231957600080fd5b505af115801561232d573d6000803e3d6000fd5b505050506040513d602081101561234357600080fd5b5051955061235086613796565b151561235b57600080fd5b61236a8b8b8b8b60018b6137b0565b9450612377856000612570565b612382856000612899565b6123938561238e6109be565b6129bd565b61239c85613468565b6123a586613871565b50929998505050505050505050565b60408051600080516020613a5c8339815191526020808301919091528183018590527f70726f706f73656456616c7565000000000000000000000000000000000000006060808401919091528351808403909101815260809092019283905281518493600293600093909282918401908083835b602083106124475780518252601f199092019160209182019101612428565b51815160209384036101000a60001901801990921691161790526040805192909401829003909120865285019590955292909201600020939093555050505050565b60408051600080516020613a5c8339815191526020808301919091528183018590527f766f7465727300000000000000000000000000000000000000000000000000006060830152600160a060020a0384166080808401919091528351808403909101815260a09092019283905281516000936006938593909282918401908083835b6020831061252b5780518252601f19909201916020918201910161250c565b51815160209384036101000a600019018019909216911617905260408051929094018290039091208652850195909552929092016000205460ff169695505050505050565b60408051600080516020613a5c8339815191526020808301919091528183018590527f746f74616c566f74657273000000000000000000000000000000000000000000606080840191909152835180840390910181526080909201928390528151849360029360009390928291840190808383602083106124475780518252601f199092019160209182019101612428565b60408051600080516020613a5c8339815191526020808301919091528183018590527f697346696e616c697a65640000000000000000000000000000000000000000006060808401919091528351808403909101815260809092019283905281518493600693600093909282918401908083835b602083106126955780518252601f199092019160209182019101612676565b51815160209384036101000a60001901801990921691161790526040805192909401829003909120865285019590955292909201600020805460ff1916941515949094179093555050505050565b60408051600080516020613a5c8339815191526020808301919091528183018590527f6d696e5468726573686f6c644f66566f74657273000000000000000000000000606080840191909152835180840390910181526080909201928390528151849360029360009390928291840190808383602083106124475780518252601f199092019160209182019101612428565b60408051600080516020613a5c8339815191526020808301919091528183018590527f737461727454696d650000000000000000000000000000000000000000000000606080840191909152835180840390910181526080909201928390528151849360029360009390928291840190808383602083106124475780518252601f199092019160209182019101612428565b60408051600080516020613a5c8339815191526020808301919091528183018590527f656e6454696d6500000000000000000000000000000000000000000000000000606080840191909152835180840390910181526080909201928390528151849360029360009390928291840190808383602083106124475780518252601f199092019160209182019101612428565b60408051600080516020613a5c8339815191526020808301919091528183018590527f70726f6772657373000000000000000000000000000000000000000000000000606080840191909152835180840390910181526080909201928390528151849360079360009390928291840190808383602083106124475780518252601f199092019160209182019101612428565b60408051600080516020613a5c8339815191526020808301919091528183018590527f71756f72756d5374617465000000000000000000000000000000000000000000606080840191909152835180840390910181526080909201928390528151849360029360009390928291840190808383602083106124475780518252601f199092019160209182019101612428565b60408051600080516020613a5c8339815191526020808301919091528183018590527f696e646578000000000000000000000000000000000000000000000000000000606080840191909152835180840390910181526080909201928390528151849360029360009390928291840190808383602083106124475780518252601f199092019160209182019101612428565b60408051600080516020613a5c8339815191526020808301919091528183018590527f63726561746f72000000000000000000000000000000000000000000000000006060808401919091528351808403909101815260809092019283905281518493600493600093909282918401908083835b60208310612ae25780518252601f199092019160209182019101612ac3565b51815160209384036101000a60001901801990921691161790526040805192909401829003909120865285019590955292909201600020805473ffffffffffffffffffffffffffffffffffffffff1916600160a060020a0395909516949094179093555050505050565b60408051600080516020613a5c8339815191526020808301919091528183018590527f6d656d6f000000000000000000000000000000000000000000000000000000006060808401919091528351808403909101815260809092019283905281518493600393600093909282918401908083835b60208310612bdf5780518252601f199092019160209182019101612bc0565b51815160001960209485036101000a01908116901991909116179052604080519490920184900390932086528583019690965250929093016000208451612c2d959194509201919050613965565b505050565b60408051600080516020613a5c8339815191526020808301919091528183018590527f766f7465727300000000000000000000000000000000000000000000000000006060830152600160a060020a0384166080808401919091528351808403909101815260a090920192839052815160019360069360009390928291840190808383602083106126955780518252601f199092019160209182019101612676565b60408051600080516020613a5c8339815191526020808301919091528183018490527f737461727454696d6500000000000000000000000000000000000000000000006060808401919091528351808403909101815260809092019283905281516000936002938593909282918401908083836020831061074f5780518252601f199092019160209182019101610730565b60408051600080516020613a5c8339815191526020808301919091528183018490527f656e6454696d65000000000000000000000000000000000000000000000000006060808401919091528351808403909101815260809092019283905281516000936002938593909282918401908083836020831061074f5780518252601f199092019160209182019101610730565b60408051600080516020613a5c8339815191526020808301919091528183018490527f746f74616c566f746572730000000000000000000000000000000000000000006060808401919091528351808403909101815260809092019283905281516000936002938593909282918401908083836020831061074f5780518252601f199092019160209182019101610730565b60408051600080516020613a5c8339815191526020808301919091528183018490527f70726f67726573730000000000000000000000000000000000000000000000006060808401919091528351808403909101815260809092019283905281516000936007938593909282918401908083836020831061074f5780518252601f199092019160209182019101610730565b60408051600080516020613a5c8339815191526020808301919091528183018490527f697346696e616c697a65640000000000000000000000000000000000000000006060808401919091528351808403909101815260809092019283905281516000936006938593909282918401908083835b60208310612faf5780518252601f199092019160209182019101612f90565b51815160209384036101000a600019018019909216911617905260408051929094018290039091208652850195909552929092016000205460ff1695945050505050565b60408051600080516020613a5c8339815191526020808301919091528183018490527f70726f706f73656456616c7565000000000000000000000000000000000000006060808401919091528351808403909101815260809092019283905281516000936002938593909282918401908083836020831061074f5780518252601f199092019160209182019101610730565b60408051600080516020613a5c8339815191526020808301919091528183018490527f63726561746f72000000000000000000000000000000000000000000000000006060808401919091528351808403909101815260809092019283905281516000936004938593909282918401908083835b602083106131185780518252601f1990920191602091820191016130f9565b51815160209384036101000a6000190180199092169116179052604080519290940182900390912086528501959095529290920160002054600160a060020a031695945050505050565b60408051600080516020613a5c8339815191526020808301919091528183018490527f6d656d6f0000000000000000000000000000000000000000000000000000000060608381019190915283518084038201815260809093019384905282519093600393600093909282918401908083835b602083106131f45780518252601f1990920191602091820191016131d5565b6001836020036101000a0380198251168184511680821785525050505050509050019150506040518091039020600019166000191681526020019081526020016000208054600181600116156101000203166002900480601f0160208091040260200160405190810160405280929190818152602001828054600181600116156101000203166002900480156132cb5780601f106132a0576101008083540402835291602001916132cb565b820191906000526020600020905b8154815290600101906020018083116132ae57829003601f168201915b50505050509050919050565b60408051600080516020613a7c8339815191528152815190819003600501902060009081526004602052205433600160a060020a039091161461331957600080fd5b613321610976565b1561332b57600080fd5b613333611238565b1561333d57600080fd5b613345611231565b811061335057600080fd5b604080517f6d696e42616c6c6f744475726174696f6e00000000000000000000000000000081528151908190036011018120600090815260026020908152838220949094557f696e697444697361626c656400000000000000000000000000000000000000008252825191829003600c01909120815260069092529020805460ff19166001179055565b6000828201838110156133e957fe5b9392505050565b604080517f6e65787442616c6c6f74496400000000000000000000000000000000000000008152815190819003600c019020600090815260026020522055565b60408051600080516020613a3c8339815191528152815190819003600d01902060009081526009602052908120613466916139e3565b565b60408051600080516020613a3c8339815191528152815190819003600d01902060009081526009602090815291812080546001810182559082529190200155565b604080517f76616c696461746f7241637469766542616c6c6f747300000000000000000000602080830191909152600160a060020a038516828401528251808303840181526060909201928390528151849360029360009390928291840190808383602083106124475780518252601f199092019160209182019101612428565b60008282111561353657fe5b50900390565b604080517f66696e616c697a6543616c6c6564000000000000000000000000000000000000602080830191909152818301849052825180830384018152606090920192839052815160009360069385939092829184019080838360208310612faf5780518252601f199092019160209182019101612f90565b6000806135c183613085565b91506135cc8261192f565b90506000811115612c2d57612c2d82600183036134a9565b604080517f66696e616c697a6543616c6c65640000000000000000000000000000000000006020808301919091528183018490528251808303840181526060909201928390528151600193600693600093909282918401908083835b6020831061365f5780518252601f199092019160209182019101613640565b51815160209384036101000a60001901801990921691161790526040805192909401829003909120865285019590955292909201600020805460ff19169415159490941790935550505050565b60006136b6612147565b600160a060020a031663b9c362096136cd84612ff3565b60016040518363ffffffff1660e060020a0281526004018083815260200182815260200192505050602060405180830381600087803b15801561370f57600080fd5b505af1158015613723573d6000803e3d6000fd5b505050506040513d602081101561373957600080fd5b505192915050565b600080600061374f8461119f565b9250600161375b6109be565b0391506137678261092b565b90506137738382613888565b61377d81846129bd565b613788826000613888565b6137906138d2565b50505050565b60006137a061391e565b6137a98361192f565b1092915050565b6000806137bb610976565b15156137c657600080fd5b6137ce6118ee565b90506137e96137e482600163ffffffff6133da16565b6133f0565b6137f38188612775565b6137fd8187612807565b613808816000612602565b613812818561292b565b6138238161381e6120f4565b6126e3565b61382d8184612a4f565b6138378186612b4c565b6040513390899083907fd1ba591c76ef71222e2d30b8277758713cc6eef1de29efaf98a716744ac2420b90600090a4979650505050505050565b6120f18161388360016115928561192f565b6134a9565b60408051600080516020613a3c8339815191528152815190819003600d01902060009081526009602052208054829190849081106138c257fe5b6000918252602090912001555050565b60006138dc6109be565b11156134665760408051600080516020613a3c8339815191528152815190819003600d01902060009081526009602052208054906120f1906000198301613a01565b6000613928612147565b600160a060020a031663fcff021c6040518163ffffffff1660e060020a028152600401602060405180830381600087803b158015611ffc57600080fd5b828054600181600116156101000203166002900490600052602060002090601f016020900481019282601f106139a657805160ff19168380011785556139d3565b828001600101855582156139d3579182015b828111156139d35782518255916020019190600101906139b8565b506139df929150613a21565b5090565b50805460008255906000526020600020908101906120f19190613a21565b815481835581811115612c2d57600083815260209020612c2d9181019083015b6105fe91905b808211156139df5760008155600101613a27560061637469766542616c6c6f747300000000000000000000000000000000000000766f74696e6753746174650000000000000000000000000000000000000000006f776e6572000000000000000000000000000000000000000000000000000000a165627a7a72305820a1b9a2637a0cc75ada68bf81b8bcd71d8307e34ad6026f25c25d01d78be67f880029",
  "source": "pragma solidity ^0.4.24;\n\nimport \"./interfaces/IVotingToChangeMinThresholdPrev.sol\";\nimport \"./abstracts/VotingToChange.sol\";\n\n\ncontract VotingToChangeMinThreshold is VotingToChange {\n    bytes32 internal constant MIN_POSSIBLE_THRESHOLD = keccak256(\"minPossibleThreshold\");\n\n    bytes32 internal constant PROPOSED_VALUE = \"proposedValue\";\n\n    function createBallot(\n        uint256 _startTime,\n        uint256 _endTime,\n        uint256 _proposedValue,\n        string _memo\n    ) public {\n        require(_proposedValue >= minPossibleThreshold());\n        require(_proposedValue != _getGlobalMinThresholdOfVoters());\n        require(_proposedValue <= _getBallotsStorage().getProxyThreshold());\n        uint256 ballotId = super._createBallot(\n            uint256(BallotTypes.MinThreshold),\n            _startTime,\n            _endTime,\n            _memo\n        );\n        _setProposedValue(ballotId, _proposedValue);\n    }\n\n    function getBallotInfo(uint256 _id, address _votingKey) public view returns(\n        uint256 startTime,\n        uint256 endTime,\n        uint256 totalVoters,\n        int256 progress,\n        bool isFinalized,\n        uint256 proposedValue,\n        address creator,\n        string memo,\n        bool canBeFinalizedNow,\n        bool alreadyVoted\n    ) {\n        startTime = _getStartTime(_id);\n        endTime = _getEndTime(_id);\n        totalVoters = _getTotalVoters(_id);\n        progress = _getProgress(_id);\n        isFinalized = _getIsFinalized(_id);\n        proposedValue = _getProposedValue(_id);\n        creator = _getCreator(_id);\n        memo = _getMemo(_id);\n        canBeFinalizedNow = _canBeFinalizedNow(_id);\n        alreadyVoted = hasAlreadyVoted(_id, _votingKey);\n    }\n\n    function init(\n        uint256 _minBallotDuration,\n        uint256 _minPossibleThreshold\n    ) public {\n        require(_minPossibleThreshold > 0);\n        _init(_minBallotDuration);\n        uintStorage[MIN_POSSIBLE_THRESHOLD] = _minPossibleThreshold;\n    }\n\n    function migrateBasicOne(\n        uint256 _id,\n        address _prevVotingToChange,\n        address[] _voters\n    ) public onlyOwner {\n        require(_prevVotingToChange != address(0));\n        require(initDisabled());\n        require(!migrateDisabled());\n        IVotingToChangeMinThresholdPrev prev =\n            IVotingToChangeMinThresholdPrev(_prevVotingToChange);\n        require(prev.getTotalVoters(_id) == _voters.length);\n\n        uint256 endTime = prev.getEndTime(_id);\n\n        _setTotalVoters(_id, _voters.length);\n        _setIsFinalized(_id, prev.getIsFinalized(_id));\n        _setMinThresholdOfVoters(_id, prev.getMinThresholdOfVoters(_id));\n        _setStartTime(_id, prev.getStartTime(_id));\n        _setEndTime(_id, endTime);\n\n        // solhint-disable indent\n        (\n            , , ,\n            int progress, ,\n            uint8 quorumState,\n            uint256 index, , ,\n            address creator,\n            string memory memo\n        ) = prev.votingState(_id);\n        // solhint-enable indent\n        _setProgress(_id, progress);\n        _setQuorumState(_id, quorumState);\n        _setIndex(_id, index);\n        _setCreator(_id, creator);\n        _setMemo(_id, memo);\n        \n        _setProposedValue(_id, prev.getProposedValue(_id));\n\n        IKeysManager prevKeysManager = IKeysManager(prev.getKeysManager());\n        for (uint256 i = 0; i < _voters.length; i++) {\n            if (getTime() <= endTime) {\n                require(prev.hasAlreadyVoted(_id, prevKeysManager.getVotingByMining(_voters[i])));\n            }\n            _votersAdd(_id, _voters[i]);\n        }\n    }\n\n    function minPossibleThreshold() public view returns(uint256) {\n        return uintStorage[MIN_POSSIBLE_THRESHOLD];\n    }\n\n    function _finalizeBallotInner(uint256 _id) internal returns(bool) {\n        return _getBallotsStorage().setThreshold(\n            _getProposedValue(_id),\n            uint256(ThresholdTypes.Keys)\n        );\n    }\n\n    function _getProposedValue(uint256 _id) internal view returns(uint256) {\n        return uintStorage[keccak256(abi.encode(VOTING_STATE, _id, PROPOSED_VALUE))];\n    }\n\n    function _setProposedValue(uint256 _ballotId, uint256 _value) private {\n        uintStorage[\n            keccak256(abi.encode(VOTING_STATE, _ballotId, PROPOSED_VALUE))\n        ] = _value;\n    }\n\n}\n",
  "sourcePath": "/home/moc/poa-network-consensus-contracts/contracts/VotingToChangeMinThreshold.sol",
  "compiler": {
    "name": "solc",
    "version": "0.4.24+commit.e67f0147.Emscripten.clang"
  },
  "schemaVersion": "2.0.1",
  "updatedAt": "2018-11-18T12:51:15.581Z"
}