{
  "contractName": "VotingTo",
  "abi": [
    {
      "anonymous": false,
      "inputs": [
        {
          "indexed": true,
          "name": "id",
          "type": "uint256"
        },
        {
          "indexed": true,
          "name": "ballotType",
          "type": "uint256"
        },
        {
          "indexed": true,
          "name": "creator",
          "type": "address"
        }
      ],
      "name": "BallotCreated",
      "type": "event"
    },
    {
      "anonymous": false,
      "inputs": [
        {
          "indexed": true,
          "name": "id",
          "type": "uint256"
        },
        {
          "indexed": true,
          "name": "voter",
          "type": "address"
        }
      ],
      "name": "BallotFinalized",
      "type": "event"
    },
    {
      "anonymous": false,
      "inputs": [
        {
          "indexed": true,
          "name": "id",
          "type": "uint256"
        },
        {
          "indexed": false,
          "name": "decision",
          "type": "uint256"
        },
        {
          "indexed": true,
          "name": "voter",
          "type": "address"
        },
        {
          "indexed": false,
          "name": "time",
          "type": "uint256"
        },
        {
          "indexed": false,
          "name": "voterMiningKey",
          "type": "address"
        }
      ],
      "name": "Vote",
      "type": "event"
    },
    {
      "constant": true,
      "inputs": [
        {
          "name": "_id",
          "type": "uint256"
        },
        {
          "name": "_miningKey",
          "type": "address"
        }
      ],
      "name": "areOldMiningKeysVoted",
      "outputs": [
        {
          "name": "",
          "type": "bool"
        }
      ],
      "payable": false,
      "stateMutability": "view",
      "type": "function"
    },
    {
      "constant": true,
      "inputs": [
        {
          "name": "_id",
          "type": "uint256"
        }
      ],
      "name": "getMinThresholdOfVoters",
      "outputs": [
        {
          "name": "",
          "type": "uint256"
        }
      ],
      "payable": false,
      "stateMutability": "view",
      "type": "function"
    },
    {
      "constant": true,
      "inputs": [
        {
          "name": "_id",
          "type": "uint256"
        }
      ],
      "name": "getQuorumState",
      "outputs": [
        {
          "name": "",
          "type": "uint256"
        }
      ],
      "payable": false,
      "stateMutability": "view",
      "type": "function"
    },
    {
      "constant": true,
      "inputs": [],
      "name": "getTime",
      "outputs": [
        {
          "name": "",
          "type": "uint256"
        }
      ],
      "payable": false,
      "stateMutability": "view",
      "type": "function"
    },
    {
      "constant": true,
      "inputs": [
        {
          "name": "_id",
          "type": "uint256"
        },
        {
          "name": "_votingKey",
          "type": "address"
        }
      ],
      "name": "hasAlreadyVoted",
      "outputs": [
        {
          "name": "",
          "type": "bool"
        }
      ],
      "payable": false,
      "stateMutability": "view",
      "type": "function"
    },
    {
      "constant": true,
      "inputs": [],
      "name": "initDisabled",
      "outputs": [
        {
          "name": "",
          "type": "bool"
        }
      ],
      "payable": false,
      "stateMutability": "view",
      "type": "function"
    },
    {
      "constant": true,
      "inputs": [
        {
          "name": "_id",
          "type": "uint256"
        }
      ],
      "name": "isActive",
      "outputs": [
        {
          "name": "",
          "type": "bool"
        }
      ],
      "payable": false,
      "stateMutability": "view",
      "type": "function"
    },
    {
      "constant": true,
      "inputs": [
        {
          "name": "_id",
          "type": "uint256"
        },
        {
          "name": "_votingKey",
          "type": "address"
        }
      ],
      "name": "isValidVote",
      "outputs": [
        {
          "name": "",
          "type": "bool"
        }
      ],
      "payable": false,
      "stateMutability": "view",
      "type": "function"
    },
    {
      "constant": true,
      "inputs": [],
      "name": "nextBallotId",
      "outputs": [
        {
          "name": "",
          "type": "uint256"
        }
      ],
      "payable": false,
      "stateMutability": "view",
      "type": "function"
    },
    {
      "constant": true,
      "inputs": [],
      "name": "proxyStorage",
      "outputs": [
        {
          "name": "",
          "type": "address"
        }
      ],
      "payable": false,
      "stateMutability": "view",
      "type": "function"
    }
  ],
  "bytecode": "0x608060405234801561001057600080fd5b50610a0a806100206000396000f30060806040526004361061008a5763ffffffff60e060020a60003504166308dbb18e811461008f578063288fa739146100b957806352a36938146100f1578063557ed1ba1461010657806382afd23b1461011b578063ae4b1b5b14610133578063c088003d14610164578063c14bfd291461017c578063c7dea777146101a0578063dc6bfbb5146101c4575b600080fd5b34801561009b57600080fd5b506100a76004356101d9565b60408051918252519081900360200190f35b3480156100c557600080fd5b506100dd600435600160a060020a03602435166102ad565b604080519115158252519081900360200190f35b3480156100fd57600080fd5b506100dd610381565b34801561011257600080fd5b506100a76103c5565b34801561012757600080fd5b506100dd6004356103c9565b34801561013f57600080fd5b506101486103ff565b60408051600160a060020a039092168252519081900360200190f35b34801561017057600080fd5b506100a7600435610449565b34801561018857600080fd5b506100dd600435600160a060020a03602435166104db565b3480156101ac57600080fd5b506100dd600435600160a060020a036024351661059b565b3480156101d057600080fd5b506100a76106fa565b604080516000805160206109bf8339815191526020808301919091528183018490527f71756f72756d53746174650000000000000000000000000000000000000000006060808401919091528351808403909101815260809092019283905281516000936002938593909282918401908083835b6020831061026c5780518252601f19909201916020918201910161024d565b51815160209384036101000a600019018019909216911617905260408051929094018290039091208652850195909552929092016000205495945050505050565b6000806000806102bb61073b565b600160a060020a0316632d260227866040518263ffffffff1660e060020a0281526004018082600160a060020a0316600160a060020a03168152602001915050602060405180830381600087803b15801561031557600080fd5b505af1158015610329573d6000803e3d6000fd5b505050506040513d602081101561033f57600080fd5b5051925061034d86846107b3565b15915061035a868461059b565b15905081801561036e575061036e866103c9565b80156103775750805b9695505050505050565b604080517f696e697444697361626c656400000000000000000000000000000000000000008152815190819003600c01902060009081526006602052205460ff1690565b4290565b60006103d36103c5565b6103dc8361089a565b111580156103f957506103ee8261092c565b6103f66103c5565b11155b92915050565b604080517f70726f787953746f7261676500000000000000000000000000000000000000008152815190819003600c019020600090815260046020522054600160a060020a031690565b604080516000805160206109bf8339815191526020808301919091528183018490527f6d696e5468726573686f6c644f66566f746572730000000000000000000000006060808401919091528351808403909101815260809092019283905281516000936002938593909282918401908083836020831061026c5780518252601f19909201916020918201910161024d565b600080600160a060020a03831615156104f75760009150610594565b6104ff61073b565b600160a060020a0316632d260227846040518263ffffffff1660e060020a0281526004018082600160a060020a0316600160a060020a03168152602001915050602060405180830381600087803b15801561055957600080fd5b505af115801561056d573d6000803e3d6000fd5b505050506040513d602081101561058357600080fd5b5051905061059184826107b3565b91505b5092915050565b600081818080806105aa61073b565b935083600160a060020a031663b9bdaa076040518163ffffffff1660e060020a028152600401602060405180830381600087803b1580156105ea57600080fd5b505af11580156105fe573d6000803e3d6000fd5b505050506040513d602081101561061457600080fd5b50519250600091505b828210156106ea5783600160a060020a031663a5a36dee866040518263ffffffff1660e060020a0281526004018082600160a060020a0316600160a060020a03168152602001915050602060405180830381600087803b15801561068057600080fd5b505af1158015610694573d6000803e3d6000fd5b505050506040513d60208110156106aa57600080fd5b50519050600160a060020a03811615156106c757600095506106ef565b6106d188826107b3565b156106df57600195506106ef565b93506001018361061d565b600095505b505050505092915050565b604080517f6e65787442616c6c6f74496400000000000000000000000000000000000000008152815190819003600c01902060009081526002602052205490565b60006107456103ff565b600160a060020a0316639a5737866040518163ffffffff1660e060020a028152600401602060405180830381600087803b15801561078257600080fd5b505af1158015610796573d6000803e3d6000fd5b505050506040513d60208110156107ac57600080fd5b5051905090565b604080516000805160206109bf8339815191526020808301919091528183018590527f766f7465727300000000000000000000000000000000000000000000000000006060830152600160a060020a0384166080808401919091528351808403909101815260a09092019283905281516000936006938593909282918401908083835b602083106108555780518252601f199092019160209182019101610836565b51815160209384036101000a600019018019909216911617905260408051929094018290039091208652850195909552929092016000205460ff169695505050505050565b604080516000805160206109bf8339815191526020808301919091528183018490527f737461727454696d6500000000000000000000000000000000000000000000006060808401919091528351808403909101815260809092019283905281516000936002938593909282918401908083836020831061026c5780518252601f19909201916020918201910161024d565b604080516000805160206109bf8339815191526020808301919091528183018490527f656e6454696d65000000000000000000000000000000000000000000000000006060808401919091528351808403909101815260809092019283905281516000936002938593909282918401908083836020831061026c5780518252601f19909201916020918201910161024d5600766f74696e675374617465000000000000000000000000000000000000000000a165627a7a72305820c2cc43d231b133a4645bfad120c9807252e6d68b839fc727304b50cb5a1df7a00029",
  "source": "pragma solidity ^0.4.24;\n\nimport \"../libs/SafeMath.sol\";\nimport \"../interfaces/IBallotsStorage.sol\";\nimport \"../interfaces/IKeysManager.sol\";\nimport \"../interfaces/IProxyStorage.sol\";\nimport \"../abstracts/EnumBallotTypes.sol\";\nimport \"../abstracts/EnumThresholdTypes.sol\";\nimport \"../eternal-storage/EternalStorage.sol\";\n\n\ncontract VotingTo is EternalStorage, EnumBallotTypes, EnumThresholdTypes {\n    using SafeMath for uint256;\n\n    bytes32 internal constant OWNER = keccak256(\"owner\");\n    bytes32 internal constant INIT_DISABLED = keccak256(\"initDisabled\");\n    bytes32 internal constant NEXT_BALLOT_ID = keccak256(\"nextBallotId\");\n    bytes32 internal constant PROXY_STORAGE = keccak256(\"proxyStorage\");\n\n    bytes32 internal constant CREATOR = \"creator\";\n    bytes32 internal constant END_TIME = \"endTime\";\n    bytes32 internal constant IS_FINALIZED = \"isFinalized\";\n    bytes32 internal constant MEMO = \"memo\";\n    bytes32 internal constant MIN_THRESHOLD_OF_VOTERS = \"minThresholdOfVoters\";\n    bytes32 internal constant QUORUM_STATE = \"quorumState\";\n    bytes32 internal constant START_TIME = \"startTime\";\n    bytes32 internal constant VOTERS = \"voters\";\n    bytes32 internal constant VOTING_STATE = \"votingState\";\n\n    event BallotCreated(\n        uint256 indexed id,\n        uint256 indexed ballotType,\n        address indexed creator\n    );\n    \n    event BallotFinalized(\n        uint256 indexed id,\n        address indexed voter\n    );\n    \n    event Vote(\n        uint256 indexed id,\n        uint256 decision,\n        address indexed voter,\n        uint256 time,\n        address voterMiningKey\n    );\n\n    modifier onlyOwner() {\n        require(msg.sender == addressStorage[OWNER]);\n        _;\n    }\n\n    modifier onlyValidVotingKey(address _votingKey) {\n        require(_getKeysManager().isVotingActive(_votingKey));\n        _;\n    }\n\n    function areOldMiningKeysVoted(uint256 _id, address _miningKey)\n        public\n        view\n        returns(bool)\n    {\n        address miningKey = _miningKey;\n        IKeysManager keysManager = _getKeysManager();\n        uint256 maxDeep = keysManager.maxOldMiningKeysDeepCheck();\n        for (uint256 i = 0; i < maxDeep; i++) {\n            address oldMiningKey = keysManager.getMiningKeyHistory(miningKey);\n            if (oldMiningKey == address(0)) {\n                return false;\n            }\n            if (_hasMiningKeyAlreadyVoted(_id, oldMiningKey)) {\n                return true;\n            } else {\n                miningKey = oldMiningKey;\n            }\n        }\n        return false;\n    }\n\n    function getMinThresholdOfVoters(uint256 _id) public view returns(uint256) {\n        return uintStorage[\n            keccak256(abi.encode(VOTING_STATE, _id, MIN_THRESHOLD_OF_VOTERS))\n        ];\n    }\n\n    function getQuorumState(uint256 _id) public view returns(uint256) {\n        return uintStorage[\n            keccak256(abi.encode(VOTING_STATE, _id, QUORUM_STATE))\n        ];\n    }\n\n    function getTime() public view returns(uint256) {\n        return now;\n    }\n\n    function hasAlreadyVoted(uint256 _id, address _votingKey)\n        public\n        view\n        returns(bool)\n    {\n        if (_votingKey == address(0)) return false;\n        address miningKey = _getKeysManager().getMiningKeyByVoting(_votingKey);\n        return _hasMiningKeyAlreadyVoted(_id, miningKey);\n    }\n\n    function initDisabled() public view returns(bool) {\n        return boolStorage[INIT_DISABLED];\n    }\n\n    function isActive(uint256 _id) public view returns(bool) {\n        return _getStartTime(_id) <= getTime() && getTime() <= _getEndTime(_id);\n    }\n\n    function isValidVote(uint256 _id, address _votingKey)\n        public\n        view\n        returns(bool)\n    {\n        address miningKey = _getKeysManager().getMiningKeyByVoting(_votingKey);\n        bool notVoted = !_hasMiningKeyAlreadyVoted(_id, miningKey);\n        bool oldKeysNotVoted = !areOldMiningKeysVoted(_id, miningKey);\n        return notVoted && isActive(_id) && oldKeysNotVoted;\n    }\n\n    function nextBallotId() public view returns(uint256) {\n        return uintStorage[NEXT_BALLOT_ID];\n    }\n\n    function proxyStorage() public view returns(address) {\n        return addressStorage[PROXY_STORAGE];\n    }\n\n    function _createBallot(\n        uint256 _ballotType,\n        uint256 _startTime,\n        uint256 _endTime,\n        string _memo,\n        uint256 _quorumState,\n        address _creatorMiningKey\n    ) internal returns(uint256) {\n        require(initDisabled());\n        uint256 ballotId = nextBallotId();\n        _setNextBallotId(ballotId.add(1));\n        _setStartTime(ballotId, _startTime);\n        _setEndTime(ballotId, _endTime);\n        _setIsFinalized(ballotId, false);\n        _setQuorumState(ballotId, _quorumState);\n        _setMinThresholdOfVoters(ballotId, _getGlobalMinThresholdOfVoters());\n        _setCreator(ballotId, _creatorMiningKey);\n        _setMemo(ballotId, _memo);\n        emit BallotCreated(ballotId, _ballotType, msg.sender);\n        return ballotId;\n    }\n\n    function _getBallotsStorage() internal view returns(IBallotsStorage) {\n        return IBallotsStorage(IProxyStorage(proxyStorage()).getBallotsStorage());\n    }\n\n    function _getCreator(uint256 _id) internal view returns(address) {\n        return addressStorage[\n            keccak256(abi.encode(VOTING_STATE, _id, CREATOR))\n        ];\n    }\n\n    function _getEndTime(uint256 _id) internal view returns(uint256) {\n        return uintStorage[\n            keccak256(abi.encode(VOTING_STATE, _id, END_TIME))\n        ];\n    }\n\n    function _getGlobalMinThresholdOfVoters() internal view returns(uint256) {\n        return _getBallotsStorage().getBallotThreshold(uint256(ThresholdTypes.Keys));\n    }\n\n    function _getIsFinalized(uint256 _id) internal view returns(bool) {\n        return boolStorage[\n            keccak256(abi.encode(VOTING_STATE, _id, IS_FINALIZED))\n        ];\n    }\n\n    function _getKeysManager() internal view returns(IKeysManager) {\n        return IKeysManager(IProxyStorage(proxyStorage()).getKeysManager());\n    }\n\n    function _getMemo(uint256 _id) internal view returns(string) {\n        return stringStorage[\n            keccak256(abi.encode(VOTING_STATE, _id, MEMO))\n        ];\n    }\n\n    function _getStartTime(uint256 _id) internal view returns(uint256) {\n        return uintStorage[\n            keccak256(abi.encode(VOTING_STATE, _id, START_TIME))\n        ];\n    }\n\n    function _hasMiningKeyAlreadyVoted(uint256 _id, address _miningKey)\n        internal\n        view\n        returns(bool)\n    {\n        return boolStorage[\n            keccak256(abi.encode(VOTING_STATE, _id, VOTERS, _miningKey))\n        ];\n    }\n\n    function _setCreator(uint256 _ballotId, address _value) internal {\n        addressStorage[\n            keccak256(abi.encode(VOTING_STATE, _ballotId, CREATOR))\n        ] = _value;\n    }\n\n    function _setEndTime(uint256 _ballotId, uint256 _value) internal {\n        uintStorage[\n            keccak256(abi.encode(VOTING_STATE, _ballotId, END_TIME))\n        ] = _value;\n    }\n\n    function _setIsFinalized(uint256 _ballotId, bool _value) internal {\n        boolStorage[\n            keccak256(abi.encode(VOTING_STATE, _ballotId, IS_FINALIZED))\n        ] = _value;\n    }\n\n    function _setMemo(uint256 _ballotId, string _value) internal {\n        stringStorage[\n            keccak256(abi.encode(VOTING_STATE, _ballotId, MEMO))\n        ] = _value;\n    }\n\n    function _setMinThresholdOfVoters(uint256 _ballotId, uint256 _value) internal {\n        uintStorage[\n            keccak256(abi.encode(VOTING_STATE, _ballotId, MIN_THRESHOLD_OF_VOTERS))\n        ] = _value;\n    }\n\n    function _setNextBallotId(uint256 _id) internal {\n        uintStorage[NEXT_BALLOT_ID] = _id;\n    }\n\n    function _setQuorumState(uint256 _ballotId, uint256 _value) internal {\n        uintStorage[\n            keccak256(abi.encode(VOTING_STATE, _ballotId, QUORUM_STATE))\n        ] = _value;\n    }\n\n    function _setStartTime(uint256 _ballotId, uint256 _value) internal {\n        uintStorage[\n            keccak256(abi.encode(VOTING_STATE, _ballotId, START_TIME))\n        ] = _value;\n    }\n\n    function _votersAdd(uint256 _ballotId, address _miningKey) internal {\n        boolStorage[\n            keccak256(abi.encode(VOTING_STATE, _ballotId, VOTERS, _miningKey))\n        ] = true;\n    }\n}\n",
  "sourcePath": "/home/moc/poa-network-consensus-contracts/contracts/abstracts/VotingTo.sol",
  "compiler": {
    "name": "solc",
    "version": "0.4.24+commit.e67f0147.Emscripten.clang"
  },
  "schemaVersion": "2.0.1",
  "updatedAt": "2018-11-18T08:20:25.830Z"
}