{
  "contractName": "VotingToManageEmissionFunds",
  "abi": [
    {
      "constant": true,
      "inputs": [
        {
          "name": "_id",
          "type": "uint256"
        }
      ],
      "name": "getQuorumState",
      "outputs": [
        {
          "name": "",
          "type": "uint256"
        }
      ],
      "payable": false,
      "stateMutability": "view",
      "type": "function"
    },
    {
      "constant": true,
      "inputs": [
        {
          "name": "_id",
          "type": "uint256"
        },
        {
          "name": "_votingKey",
          "type": "address"
        }
      ],
      "name": "isValidVote",
      "outputs": [
        {
          "name": "",
          "type": "bool"
        }
      ],
      "payable": false,
      "stateMutability": "view",
      "type": "function"
    },
    {
      "constant": true,
      "inputs": [],
      "name": "initDisabled",
      "outputs": [
        {
          "name": "",
          "type": "bool"
        }
      ],
      "payable": false,
      "stateMutability": "view",
      "type": "function"
    },
    {
      "constant": true,
      "inputs": [],
      "name": "getTime",
      "outputs": [
        {
          "name": "",
          "type": "uint256"
        }
      ],
      "payable": false,
      "stateMutability": "view",
      "type": "function"
    },
    {
      "constant": true,
      "inputs": [
        {
          "name": "_id",
          "type": "uint256"
        }
      ],
      "name": "isActive",
      "outputs": [
        {
          "name": "",
          "type": "bool"
        }
      ],
      "payable": false,
      "stateMutability": "view",
      "type": "function"
    },
    {
      "constant": true,
      "inputs": [],
      "name": "proxyStorage",
      "outputs": [
        {
          "name": "",
          "type": "address"
        }
      ],
      "payable": false,
      "stateMutability": "view",
      "type": "function"
    },
    {
      "constant": true,
      "inputs": [
        {
          "name": "_id",
          "type": "uint256"
        }
      ],
      "name": "getMinThresholdOfVoters",
      "outputs": [
        {
          "name": "",
          "type": "uint256"
        }
      ],
      "payable": false,
      "stateMutability": "view",
      "type": "function"
    },
    {
      "constant": true,
      "inputs": [
        {
          "name": "_id",
          "type": "uint256"
        },
        {
          "name": "_votingKey",
          "type": "address"
        }
      ],
      "name": "hasAlreadyVoted",
      "outputs": [
        {
          "name": "",
          "type": "bool"
        }
      ],
      "payable": false,
      "stateMutability": "view",
      "type": "function"
    },
    {
      "constant": true,
      "inputs": [
        {
          "name": "_id",
          "type": "uint256"
        },
        {
          "name": "_miningKey",
          "type": "address"
        }
      ],
      "name": "areOldMiningKeysVoted",
      "outputs": [
        {
          "name": "",
          "type": "bool"
        }
      ],
      "payable": false,
      "stateMutability": "view",
      "type": "function"
    },
    {
      "constant": true,
      "inputs": [],
      "name": "nextBallotId",
      "outputs": [
        {
          "name": "",
          "type": "uint256"
        }
      ],
      "payable": false,
      "stateMutability": "view",
      "type": "function"
    },
    {
      "anonymous": false,
      "inputs": [
        {
          "indexed": true,
          "name": "id",
          "type": "uint256"
        },
        {
          "indexed": true,
          "name": "votingKey",
          "type": "address"
        }
      ],
      "name": "BallotCanceled",
      "type": "event"
    },
    {
      "anonymous": false,
      "inputs": [
        {
          "indexed": true,
          "name": "id",
          "type": "uint256"
        },
        {
          "indexed": true,
          "name": "ballotType",
          "type": "uint256"
        },
        {
          "indexed": true,
          "name": "creator",
          "type": "address"
        }
      ],
      "name": "BallotCreated",
      "type": "event"
    },
    {
      "anonymous": false,
      "inputs": [
        {
          "indexed": true,
          "name": "id",
          "type": "uint256"
        },
        {
          "indexed": true,
          "name": "voter",
          "type": "address"
        }
      ],
      "name": "BallotFinalized",
      "type": "event"
    },
    {
      "anonymous": false,
      "inputs": [
        {
          "indexed": true,
          "name": "id",
          "type": "uint256"
        },
        {
          "indexed": false,
          "name": "decision",
          "type": "uint256"
        },
        {
          "indexed": true,
          "name": "voter",
          "type": "address"
        },
        {
          "indexed": false,
          "name": "time",
          "type": "uint256"
        },
        {
          "indexed": false,
          "name": "voterMiningKey",
          "type": "address"
        }
      ],
      "name": "Vote",
      "type": "event"
    },
    {
      "constant": true,
      "inputs": [],
      "name": "ballotCancelingThreshold",
      "outputs": [
        {
          "name": "",
          "type": "uint256"
        }
      ],
      "payable": false,
      "stateMutability": "pure",
      "type": "function"
    },
    {
      "constant": true,
      "inputs": [
        {
          "name": "_id",
          "type": "uint256"
        }
      ],
      "name": "canBeFinalizedNow",
      "outputs": [
        {
          "name": "",
          "type": "bool"
        }
      ],
      "payable": false,
      "stateMutability": "view",
      "type": "function"
    },
    {
      "constant": false,
      "inputs": [],
      "name": "cancelNewBallot",
      "outputs": [],
      "payable": false,
      "stateMutability": "nonpayable",
      "type": "function"
    },
    {
      "constant": false,
      "inputs": [
        {
          "name": "_startTime",
          "type": "uint256"
        },
        {
          "name": "_endTime",
          "type": "uint256"
        },
        {
          "name": "_receiver",
          "type": "address"
        },
        {
          "name": "_memo",
          "type": "string"
        }
      ],
      "name": "createBallot",
      "outputs": [],
      "payable": false,
      "stateMutability": "nonpayable",
      "type": "function"
    },
    {
      "constant": true,
      "inputs": [],
      "name": "distributionThreshold",
      "outputs": [
        {
          "name": "",
          "type": "uint256"
        }
      ],
      "payable": false,
      "stateMutability": "view",
      "type": "function"
    },
    {
      "constant": true,
      "inputs": [],
      "name": "emissionFunds",
      "outputs": [
        {
          "name": "",
          "type": "address"
        }
      ],
      "payable": false,
      "stateMutability": "view",
      "type": "function"
    },
    {
      "constant": true,
      "inputs": [],
      "name": "emissionReleaseThreshold",
      "outputs": [
        {
          "name": "",
          "type": "uint256"
        }
      ],
      "payable": false,
      "stateMutability": "view",
      "type": "function"
    },
    {
      "constant": true,
      "inputs": [],
      "name": "emissionReleaseTime",
      "outputs": [
        {
          "name": "",
          "type": "uint256"
        }
      ],
      "payable": false,
      "stateMutability": "view",
      "type": "function"
    },
    {
      "constant": false,
      "inputs": [
        {
          "name": "_id",
          "type": "uint256"
        }
      ],
      "name": "finalize",
      "outputs": [],
      "payable": false,
      "stateMutability": "nonpayable",
      "type": "function"
    },
    {
      "constant": true,
      "inputs": [
        {
          "name": "_id",
          "type": "uint256"
        }
      ],
      "name": "getBallotInfo",
      "outputs": [
        {
          "name": "creationTime",
          "type": "uint256"
        },
        {
          "name": "startTime",
          "type": "uint256"
        },
        {
          "name": "endTime",
          "type": "uint256"
        },
        {
          "name": "isCanceled",
          "type": "bool"
        },
        {
          "name": "isFinalized",
          "type": "bool"
        },
        {
          "name": "creator",
          "type": "address"
        },
        {
          "name": "memo",
          "type": "string"
        },
        {
          "name": "amount",
          "type": "uint256"
        },
        {
          "name": "burnVotes",
          "type": "uint256"
        },
        {
          "name": "freezeVotes",
          "type": "uint256"
        },
        {
          "name": "sendVotes",
          "type": "uint256"
        },
        {
          "name": "receiver",
          "type": "address"
        }
      ],
      "payable": false,
      "stateMutability": "view",
      "type": "function"
    },
    {
      "constant": true,
      "inputs": [
        {
          "name": "_id",
          "type": "uint256"
        }
      ],
      "name": "getTotalVoters",
      "outputs": [
        {
          "name": "",
          "type": "uint256"
        }
      ],
      "payable": false,
      "stateMutability": "view",
      "type": "function"
    },
    {
      "constant": false,
      "inputs": [
        {
          "name": "_emissionReleaseTime",
          "type": "uint256"
        },
        {
          "name": "_emissionReleaseThreshold",
          "type": "uint256"
        },
        {
          "name": "_distributionThreshold",
          "type": "uint256"
        },
        {
          "name": "_emissionFunds",
          "type": "address"
        }
      ],
      "name": "init",
      "outputs": [],
      "payable": false,
      "stateMutability": "nonpayable",
      "type": "function"
    },
    {
      "constant": true,
      "inputs": [],
      "name": "noActiveBallotExists",
      "outputs": [
        {
          "name": "",
          "type": "bool"
        }
      ],
      "payable": false,
      "stateMutability": "view",
      "type": "function"
    },
    {
      "constant": false,
      "inputs": [],
      "name": "refreshEmissionReleaseTime",
      "outputs": [
        {
          "name": "",
          "type": "uint256"
        }
      ],
      "payable": false,
      "stateMutability": "nonpayable",
      "type": "function"
    },
    {
      "constant": false,
      "inputs": [
        {
          "name": "_id",
          "type": "uint256"
        },
        {
          "name": "_choice",
          "type": "uint256"
        }
      ],
      "name": "vote",
      "outputs": [],
      "payable": false,
      "stateMutability": "nonpayable",
      "type": "function"
    }
  ],
  "bytecode": "0x608060405234801561001057600080fd5b50613331806100206000396000f30060806040526004361061012e5763ffffffff60e060020a6000350416629b38fa811461013357806305261aea1461015f57806308dbb18e14610179578063141bd92a146101a35780631923e5d4146102ac5780631f4356e4146102c1578063236ae025146102f2578063288fa739146103075780632b633f771461032b57806343d3a4c11461034057806352a3693814610358578063557ed1ba1461036d57806355ca92f81461038257806372b556c7146103ee5780637ea957331461040357806382afd23b1461041857806385cb2e6e14610430578063a8d1fcff14610445578063ae4b1b5b1461045a578063b384abef1461046f578063c088003d1461048a578063c14bfd29146104a2578063c7dea777146104c6578063cdd7b1fd146104ea578063dc6bfbb514610514575b600080fd5b34801561013f57600080fd5b5061014b600435610529565b604080519115158252519081900360200190f35b34801561016b57600080fd5b506101776004356105fd565b005b34801561018557600080fd5b506101916004356106b8565b60408051918252519081900360200190f35b3480156101af57600080fd5b506101bb60043561078c565b604051808d81526020018c81526020018b81526020018a1515151581526020018915151515815260200188600160a060020a0316600160a060020a031681526020018060200187815260200186815260200185815260200184815260200183600160a060020a0316600160a060020a03168152602001828103825288818151815260200191508051906020019080838360005b8381101561026657818101518382015260200161024e565b50505050905090810190601f1680156102935780820380516001836020036101000a031916815260200191505b509d505050505050505050505050505060405180910390f35b3480156102b857600080fd5b5061014b610832565b3480156102cd57600080fd5b506102d6610877565b60408051600160a060020a039092168252519081900360200190f35b3480156102fe57600080fd5b506101916108c1565b34801561031357600080fd5b5061014b600435600160a060020a0360243516610902565b34801561033757600080fd5b506101916109d6565b34801561034c57600080fd5b506101916004356109dc565b34801561036457600080fd5b5061014b610a11565b34801561037957600080fd5b50610191610a55565b34801561038e57600080fd5b50604080516020601f606435600481810135928301849004840285018401909552818452610177948035946024803595600160a060020a03604435169536956084949301918190840183828082843750949750610a599650505050505050565b3480156103fa57600080fd5b50610191610cbc565b34801561040f57600080fd5b50610191610cfd565b34801561042457600080fd5b5061014b600435610d3e565b34801561043c57600080fd5b50610191610d73565b34801561045157600080fd5b50610177610e13565b34801561046657600080fd5b506102d6610f67565b34801561047b57600080fd5b50610177600435602435610fb1565b34801561049657600080fd5b5061019160043561130a565b3480156104ae57600080fd5b5061014b600435600160a060020a036024351661139c565b3480156104d257600080fd5b5061014b600435600160a060020a036024351661145c565b3480156104f657600080fd5b50610177600435602435604435600160a060020a03606435166115bb565b34801561052057600080fd5b506101916117b1565b60006105336117b1565b8210610541575060006105f8565b61055a600161054e6117b1565b9063ffffffff6117f216565b8214610568575060006105f8565b610570610a55565b61057983611804565b1115610587575060006105f8565b61059082610d3e565b1561059d575060006105f8565b6105a682611896565b156105b3575060006105f8565b6105bc8261196d565b156105c9575060006105f8565b6105d1610832565b156105de575060006105f8565b6105e7826119ff565b156105f4575060006105f8565b5060015b919050565b33610606611a1d565b600160a060020a03166362b46d64826040518263ffffffff1660e060020a0281526004018082600160a060020a0316600160a060020a03168152602001915050602060405180830381600087803b15801561066057600080fd5b505af1158015610674573d6000803e3d6000fd5b505050506040513d602081101561068a57600080fd5b5051151561069757600080fd5b6106a082610529565b15156106ab57600080fd5b6106b482611a95565b5050565b604080516000805160206132e68339815191526020808301919091528183018490527f71756f72756d53746174650000000000000000000000000000000000000000006060808401919091528351808403909101815260809092019283905281516000936002938593909282918401908083835b6020831061074b5780518252601f19909201916020918201910161072c565b51815160209384036101000a600019018019909216911617905260408051929094018290039091208652850195909552929092016000205495945050505050565b600080600080600080606060008060008060006107a88d611d87565b9b506107b38d611804565b9a506107be8d611e19565b99506107c98d611896565b98506107d48d61196d565b97506107df8d611eab565b96506107ea8d611f88565b95506107f58d6120fd565b94506108008d61218f565b935061080b8d612221565b92506108168d6122b3565b91506108218d612345565b905091939597999b5091939597999b565b604080517f6e6f41637469766542616c6c6f744578697374730000000000000000000000008152815190819003601401902060009081526006602052205460ff165b90565b604080517f656d697373696f6e46756e6473000000000000000000000000000000000000008152815190819003600d019020600090815260046020522054600160a060020a031690565b604080517f646973747269627574696f6e5468726573686f6c6400000000000000000000008152815190819003601501902060009081526002602052205490565b600080600080610910611a1d565b600160a060020a0316632d260227866040518263ffffffff1660e060020a0281526004018082600160a060020a0316600160a060020a03168152602001915050602060405180830381600087803b15801561096a57600080fd5b505af115801561097e573d6000803e3d6000fd5b505050506040513d602081101561099457600080fd5b505192506109a286846123d7565b1591506109af868461145c565b1590508180156109c357506109c386610d3e565b80156109cc5750805b9695505050505050565b61038490565b6000610a0b6109ea83612221565b6109ff6109f68561218f565b6109ff866122b3565b9063ffffffff6124be16565b92915050565b604080517f696e697444697361626c656400000000000000000000000000000000000000008152815190819003600c01902060009081526006602052205460ff1690565b4290565b60008060008033610a68611a1d565b600160a060020a03166362b46d64826040518263ffffffff1660e060020a0281526004018082600160a060020a0316600160a060020a03168152602001915050602060405180830381600087803b158015610ac257600080fd5b505af1158015610ad6573d6000803e3d6000fd5b505050506040513d6020811015610aec57600080fd5b50511515610af957600080fd5b600089118015610b095750600088115b1515610b1457600080fd5b610b1c610a55565b94508888118015610b2c57508489115b1515610b3757600080fd5b610b3f610cbc565b9350610b49610d73565b925082851015610b5857600080fd5b610b606108c1565b610b70898563ffffffff6117f216565b1115610b7b57600080fd5b600160a060020a0387161515610b9057600080fd5b610b98610832565b1515610ba357600080fd5b610c4060068a8a896001610bb5611a1d565b600160a060020a0316632d260227336040518263ffffffff1660e060020a0281526004018082600160a060020a0316600160a060020a03168152602001915050602060405180830381600087803b158015610c0f57600080fd5b505af1158015610c23573d6000803e3d6000fd5b505050506040513d6020811015610c3957600080fd5b50516124d4565b9150610c4d826000612595565b610c5882600061266a565b610c638260006126fc565b610c6d828861278e565b610c8882610c79610877565b600160a060020a03163161288b565b610c92600061291d565b610c9c828661296d565b610ca682856129ff565b610cb1826000612a91565b505050505050505050565b604080517f656d697373696f6e52656c6561736554696d65000000000000000000000000008152815190819003601301902060009081526002602052205490565b604080517f656d697373696f6e52656c656173655468726573686f6c6400000000000000008152815190819003601801902060009081526002602052205490565b6000610d48610a55565b610d5183611804565b11158015610a0b5750610d6382611e19565b610d6b610a55565b111592915050565b6000806000806000610d83610a11565b1515610d8e57600080fd5b610d96610cbc565b9350610da0610a55565b925083831115610e0a57610db2610cfd565b9150610dd482610dc8858763ffffffff6117f216565b9063ffffffff612b7216565b90506000811115610e0a57610dff610df2838363ffffffff612b8916565b859063ffffffff6124be16565b9350610e0a84612bb4565b50919392505050565b6000610e22600161054e6117b1565b9050610e2d81611eab565b600160a060020a0316610e3e611a1d565b600160a060020a0316632d260227336040518263ffffffff1660e060020a0281526004018082600160a060020a0316600160a060020a03168152602001915050602060405180830381600087803b158015610e9857600080fd5b505af1158015610eac573d6000803e3d6000fd5b505050506040513d6020811015610ec257600080fd5b5051600160a060020a031614610ed757600080fd5b610ee0816119ff565b1515610eeb57600080fd5b610ef481611896565b15610efe57600080fd5b610f078161196d565b15610f1157600080fd5b610f1c816001612a91565b610f26600161291d565b610f37610f3282612bf4565b612bb4565b604051339082907feb7821930e09b446fdcdb7528c42df382ded62ddcb26a92d5b7970b3a3ea974490600090a350565b604080517f70726f787953746f7261676500000000000000000000000000000000000000008152815190819003600c019020600090815260046020522054600160a060020a031690565b60008033610fbd611a1d565b600160a060020a03166362b46d64826040518263ffffffff1660e060020a0281526004018082600160a060020a0316600160a060020a03168152602001915050602060405180830381600087803b15801561101757600080fd5b505af115801561102b573d6000803e3d6000fd5b505050506040513d602081101561104157600080fd5b5051151561104e57600080fd5b61105785611896565b1561106157600080fd5b61106a8561196d565b1561107457600080fd5b61107e8533610902565b151561108957600080fd5b60018414156110ae576110a9856110a460016109ff896122b3565b612595565b6110ee565b60028414156110ce576110a9856110c960016109ff8961218f565b61266a565b600384141561012e576110a9856110e960016109ff89612221565b6126fc565b6110f6611a1d565b600160a060020a0316632d260227336040518263ffffffff1660e060020a0281526004018082600160a060020a0316600160a060020a03168152602001915050602060405180830381600087803b15801561115057600080fd5b505af1158015611164573d6000803e3d6000fd5b505050506040513d602081101561117a57600080fd5b505192506111888584612c86565b33857f1fad44b452b708aff155b3190058d690f8a0f2e2463fc757b96d1ce1877d0ccc866111b4610a55565b604080519283526020830191909152600160a060020a03881682820152519081900360600190a36111e3610f67565b600160a060020a0316638b8414c46040518163ffffffff1660e060020a028152600401602060405180830381600087803b15801561122057600080fd5b505af1158015611234573d6000803e3d6000fd5b505050506040513d602081101561124a57600080fd5b5051604080517fa87563370000000000000000000000000000000000000000000000000000000081529051600160a060020a039092169163a8756337916004808201926020929091908290030181600087803b1580156112a957600080fd5b505af11580156112bd573d6000803e3d6000fd5b505050506040513d60208110156112d357600080fd5b50519150816112e1866109dc565b101580156112f557506112f3856119ff565b155b156113035761130385611a95565b5050505050565b604080516000805160206132e68339815191526020808301919091528183018490527f6d696e5468726573686f6c644f66566f746572730000000000000000000000006060808401919091528351808403909101815260809092019283905281516000936002938593909282918401908083836020831061074b5780518252601f19909201916020918201910161072c565b600080600160a060020a03831615156113b85760009150611455565b6113c0611a1d565b600160a060020a0316632d260227846040518263ffffffff1660e060020a0281526004018082600160a060020a0316600160a060020a03168152602001915050602060405180830381600087803b15801561141a57600080fd5b505af115801561142e573d6000803e3d6000fd5b505050506040513d602081101561144457600080fd5b5051905061145284826123d7565b91505b5092915050565b6000818180808061146b611a1d565b935083600160a060020a031663b9bdaa076040518163ffffffff1660e060020a028152600401602060405180830381600087803b1580156114ab57600080fd5b505af11580156114bf573d6000803e3d6000fd5b505050506040513d60208110156114d557600080fd5b50519250600091505b828210156115ab5783600160a060020a031663a5a36dee866040518263ffffffff1660e060020a0281526004018082600160a060020a0316600160a060020a03168152602001915050602060405180830381600087803b15801561154157600080fd5b505af1158015611555573d6000803e3d6000fd5b505050506040513d602081101561156b57600080fd5b50519050600160a060020a038116151561158857600095506115b0565b61159288826123d7565b156115a057600195506115b0565b9350600101836114de565b600095505b505050505092915050565b604080517f6f776e65720000000000000000000000000000000000000000000000000000008152815190819003600501902060009081526004602052205433600160a060020a039091161461160f57600080fd5b611617610a11565b1561162157600080fd5b611629610a55565b841161163457600080fd5b6000831161164157600080fd5b6116496109d6565b821161165457600080fd5b81831161166057600080fd5b600160a060020a038116151561167557600080fd5b61167f600161291d565b61168884612bb4565b604080517f656d697373696f6e46756e6473000000000000000000000000000000000000008152815190819003600d0181206000908152600460209081528382208054600160a060020a0390961673ffffffffffffffffffffffffffffffffffffffff19909616959095179094557f656d697373696f6e52656c656173655468726573686f6c6400000000000000008252825191829003601801822081526002808552838220969096557f646973747269627574696f6e5468726573686f6c640000000000000000000000825282519182900360150182208152948352818520939093557f696e697444697361626c656400000000000000000000000000000000000000008352805192839003600c019092208352600690529020805460ff1916600117905550565b604080517f6e65787442616c6c6f74496400000000000000000000000000000000000000008152815190819003600c01902060009081526002602052205490565b6000828211156117fe57fe5b50900390565b604080516000805160206132e68339815191526020808301919091528183018490527f737461727454696d6500000000000000000000000000000000000000000000006060808401919091528351808403909101815260809092019283905281516000936002938593909282918401908083836020831061074b5780518252601f19909201916020918201910161072c565b604080516000805160206132e68339815191526020808301919091528183018490527f697343616e63656c6564000000000000000000000000000000000000000000006060808401919091528351808403909101815260809092019283905281516000936006938593909282918401908083835b602083106119295780518252601f19909201916020918201910161190a565b51815160209384036101000a600019018019909216911617905260408051929094018290039091208652850195909552929092016000205460ff1695945050505050565b604080516000805160206132e68339815191526020808301919091528183018490527f697346696e616c697a6564000000000000000000000000000000000000000000606080840191909152835180840390910181526080909201928390528151600093600693859390928291840190808383602083106119295780518252601f19909201916020918201910161190a565b6000611a096109d6565b610d6b611a1584611d87565b61054e610a55565b6000611a27610f67565b600160a060020a0316639a5737866040518163ffffffff1660e060020a028152600401602060405180830381600087803b158015611a6457600080fd5b505af1158015611a78573d6000803e3d6000fd5b505050506040513d6020811015611a8e57600080fd5b5051905090565b600080600080600080611aa733612d28565b1515611ab257600080fd5b611aba610877565b9550611ac5876120fd565b9450611ad2876001612d2d565b611adc600161291d565b611af2610f32611aea610cfd565b6109ff610cbc565b604051339088907f3b208472607d900e1f689c976139d1147afc463fa00df525e9aff8b0604d298490600090a3611b288761130a565b611b31886109dc565b1015611ba957611b438760045b612dbf565b85600160a060020a03166340b7cd3f866040518263ffffffff1660e060020a02815260040180828152602001915050600060405180830381600087803b158015611b8c57600080fd5b505af1158015611ba0573d6000803e3d6000fd5b50505050611d7e565b611bb2876122b3565b9350611bbd8761218f565b9250611bc887612221565b91506004905082841115611be75781841115611be2575060025b611bfe565b8383118015611bf557508183115b15611bfe575060035b611c0e87826004811115611b3e57fe5b6002816004811115611c1c57fe5b1415611cbf5785600160a060020a0316630cd1812f611c3a89612345565b876040518363ffffffff1660e060020a0281526004018083600160a060020a0316600160a060020a0316815260200182815260200192505050602060405180830381600087803b158015611c8d57600080fd5b505af1158015611ca1573d6000803e3d6000fd5b505050506040513d6020811015611cb757600080fd5b50611d7e9050565b6003816004811115611ccd57fe5b1415611d1c5785600160a060020a0316631995333b866040518263ffffffff1660e060020a02815260040180828152602001915050602060405180830381600087803b158015611c8d57600080fd5b85600160a060020a03166340b7cd3f866040518263ffffffff1660e060020a02815260040180828152602001915050600060405180830381600087803b158015611d6557600080fd5b505af1158015611d79573d6000803e3d6000fd5b505050505b50505050505050565b604080516000805160206132e68339815191526020808301919091528183018490527f6372656174696f6e54696d6500000000000000000000000000000000000000006060808401919091528351808403909101815260809092019283905281516000936002938593909282918401908083836020831061074b5780518252601f19909201916020918201910161072c565b604080516000805160206132e68339815191526020808301919091528183018490527f656e6454696d65000000000000000000000000000000000000000000000000006060808401919091528351808403909101815260809092019283905281516000936002938593909282918401908083836020831061074b5780518252601f19909201916020918201910161072c565b604080516000805160206132e68339815191526020808301919091528183018490527f63726561746f72000000000000000000000000000000000000000000000000006060808401919091528351808403909101815260809092019283905281516000936004938593909282918401908083835b60208310611f3e5780518252601f199092019160209182019101611f1f565b51815160209384036101000a6000190180199092169116179052604080519290940182900390912086528501959095529290920160002054600160a060020a031695945050505050565b604080516000805160206132e68339815191526020808301919091528183018490527f6d656d6f0000000000000000000000000000000000000000000000000000000060608381019190915283518084038201815260809093019384905282519093600393600093909282918401908083835b6020831061201a5780518252601f199092019160209182019101611ffb565b6001836020036101000a0380198251168184511680821785525050505050509050019150506040518091039020600019166000191681526020019081526020016000208054600181600116156101000203166002900480601f0160208091040260200160405190810160405280929190818152602001828054600181600116156101000203166002900480156120f15780601f106120c6576101008083540402835291602001916120f1565b820191906000526020600020905b8154815290600101906020018083116120d457829003601f168201915b50505050509050919050565b604080516000805160206132e68339815191526020808301919091528183018490527f616d6f756e7400000000000000000000000000000000000000000000000000006060808401919091528351808403909101815260809092019283905281516000936002938593909282918401908083836020831061074b5780518252601f19909201916020918201910161072c565b604080516000805160206132e68339815191526020808301919091528183018490527f6275726e566f74657300000000000000000000000000000000000000000000006060808401919091528351808403909101815260809092019283905281516000936002938593909282918401908083836020831061074b5780518252601f19909201916020918201910161072c565b604080516000805160206132e68339815191526020808301919091528183018490527f667265657a65566f7465730000000000000000000000000000000000000000006060808401919091528351808403909101815260809092019283905281516000936002938593909282918401908083836020831061074b5780518252601f19909201916020918201910161072c565b604080516000805160206132e68339815191526020808301919091528183018490527f73656e64566f74657300000000000000000000000000000000000000000000006060808401919091528351808403909101815260809092019283905281516000936002938593909282918401908083836020831061074b5780518252601f19909201916020918201910161072c565b604080516000805160206132e68339815191526020808301919091528183018490527f726563656976657200000000000000000000000000000000000000000000000060608084019190915283518084039091018152608090920192839052815160009360049385939092829184019080838360208310611f3e5780518252601f199092019160209182019101611f1f565b604080516000805160206132e68339815191526020808301919091528183018590527f766f7465727300000000000000000000000000000000000000000000000000006060830152600160a060020a0384166080808401919091528351808403909101815260a09092019283905281516000936006938593909282918401908083835b602083106124795780518252601f19909201916020918201910161245a565b51815160209384036101000a600019018019909216911617905260408051929094018290039091208652850195909552929092016000205460ff169695505050505050565b6000828201838110156124cd57fe5b9392505050565b6000806124df610a11565b15156124ea57600080fd5b6124f26117b1565b905061250d61250882600163ffffffff6124be16565b612e51565b6125178188612e91565b6125218187612f23565b61252c816000612d2d565b6125368185612dbf565b61254781612542612fb5565b612ffc565b612551818461308e565b61255b8186613120565b6040513390899083907fd1ba591c76ef71222e2d30b8277758713cc6eef1de29efaf98a716744ac2420b90600090a4979650505050505050565b604080516000805160206132e68339815191526020808301919091528183018590527f73656e64566f74657300000000000000000000000000000000000000000000006060808401919091528351808403909101815260809092019283905281518493600293600093909282918401908083835b602083106126285780518252601f199092019160209182019101612609565b51815160209384036101000a60001901801990921691161790526040805192909401829003909120865285019590955292909201600020939093555050505050565b604080516000805160206132e68339815191526020808301919091528183018590527f6275726e566f7465730000000000000000000000000000000000000000000000606080840191909152835180840390910181526080909201928390528151849360029360009390928291840190808383602083106126285780518252601f199092019160209182019101612609565b604080516000805160206132e68339815191526020808301919091528183018590527f667265657a65566f746573000000000000000000000000000000000000000000606080840191909152835180840390910181526080909201928390528151849360029360009390928291840190808383602083106126285780518252601f199092019160209182019101612609565b604080516000805160206132e68339815191526020808301919091528183018590527f72656365697665720000000000000000000000000000000000000000000000006060808401919091528351808403909101815260809092019283905281518493600493600093909282918401908083835b602083106128215780518252601f199092019160209182019101612802565b51815160209384036101000a60001901801990921691161790526040805192909401829003909120865285019590955292909201600020805473ffffffffffffffffffffffffffffffffffffffff1916600160a060020a0395909516949094179093555050505050565b604080516000805160206132e68339815191526020808301919091528183018590527f616d6f756e740000000000000000000000000000000000000000000000000000606080840191909152835180840390910181526080909201928390528151849360029360009390928291840190808383602083106126285780518252601f199092019160209182019101612609565b604080517f6e6f41637469766542616c6c6f74457869737473000000000000000000000000815281519081900360140190206000908152600660205220805491151560ff19909216919091179055565b604080516000805160206132e68339815191526020808301919091528183018590527f6372656174696f6e54696d650000000000000000000000000000000000000000606080840191909152835180840390910181526080909201928390528151849360029360009390928291840190808383602083106126285780518252601f199092019160209182019101612609565b604080516000805160206132e68339815191526020808301919091528183018590527f656d697373696f6e52656c6561736554696d65536e617073686f740000000000606080840191909152835180840390910181526080909201928390528151849360029360009390928291840190808383602083106126285780518252601f199092019160209182019101612609565b604080516000805160206132e68339815191526020808301919091528183018590527f697343616e63656c6564000000000000000000000000000000000000000000006060808401919091528351808403909101815260809092019283905281518493600693600093909282918401908083835b60208310612b245780518252601f199092019160209182019101612b05565b51815160209384036101000a60001901801990921691161790526040805192909401829003909120865285019590955292909201600020805460ff1916941515949094179093555050505050565b6000808284811515612b8057fe5b04949350505050565b600080831515612b9c5760009150611455565b50828202828482811515612bac57fe5b04146124cd57fe5b604080517f656d697373696f6e52656c6561736554696d650000000000000000000000000081528151908190036013019020600090815260026020522055565b604080516000805160206132e68339815191526020808301919091528183018490527f656d697373696f6e52656c6561736554696d65536e617073686f7400000000006060808401919091528351808403909101815260809092019283905281516000936002938593909282918401908083836020831061074b5780518252601f19909201916020918201910161072c565b604080516000805160206132e68339815191526020808301919091528183018590527f766f7465727300000000000000000000000000000000000000000000000000006060830152600160a060020a0384166080808401919091528351808403909101815260a09092019283905281516001936006936000939092829184019080838360208310612b245780518252601f199092019160209182019101612b05565b3b1590565b604080516000805160206132e68339815191526020808301919091528183018590527f697346696e616c697a656400000000000000000000000000000000000000000060608084019190915283518084039091018152608090920192839052815184936006936000939092829184019080838360208310612b245780518252601f199092019160209182019101612b05565b604080516000805160206132e68339815191526020808301919091528183018590527f71756f72756d5374617465000000000000000000000000000000000000000000606080840191909152835180840390910181526080909201928390528151849360029360009390928291840190808383602083106126285780518252601f199092019160209182019101612609565b604080517f6e65787442616c6c6f74496400000000000000000000000000000000000000008152815190819003600c019020600090815260026020522055565b604080516000805160206132e68339815191526020808301919091528183018590527f737461727454696d650000000000000000000000000000000000000000000000606080840191909152835180840390910181526080909201928390528151849360029360009390928291840190808383602083106126285780518252601f199092019160209182019101612609565b604080516000805160206132e68339815191526020808301919091528183018590527f656e6454696d6500000000000000000000000000000000000000000000000000606080840191909152835180840390910181526080909201928390528151849360029360009390928291840190808383602083106126285780518252601f199092019160209182019101612609565b6000612fbf613206565b600160a060020a031663eecd10796040518163ffffffff1660e060020a028152600401602060405180830381600087803b158015611a6457600080fd5b604080516000805160206132e68339815191526020808301919091528183018590527f6d696e5468726573686f6c644f66566f74657273000000000000000000000000606080840191909152835180840390910181526080909201928390528151849360029360009390928291840190808383602083106126285780518252601f199092019160209182019101612609565b604080516000805160206132e68339815191526020808301919091528183018590527f63726561746f7200000000000000000000000000000000000000000000000000606080840191909152835180840390910181526080909201928390528151849360049360009390928291840190808383602083106128215780518252601f199092019160209182019101612802565b604080516000805160206132e68339815191526020808301919091528183018590527f6d656d6f000000000000000000000000000000000000000000000000000000006060808401919091528351808403909101815260809092019283905281518493600393600093909282918401908083835b602083106131b35780518252601f199092019160209182019101613194565b51815160001960209485036101000a0190811690199190911617905260408051949092018490039093208652858301969096525092909301600020845161320195919450920191905061324d565b505050565b6000613210610f67565b600160a060020a03166336ee77736040518163ffffffff1660e060020a028152600401602060405180830381600087803b158015611a6457600080fd5b828054600181600116156101000203166002900490600052602060002090601f016020900481019282601f1061328e57805160ff19168380011785556132bb565b828001600101855582156132bb579182015b828111156132bb5782518255916020019190600101906132a0565b506132c79291506132cb565b5090565b61087491905b808211156132c757600081556001016132d15600766f74696e675374617465000000000000000000000000000000000000000000a165627a7a72305820fe76506055d0f6b49c548b3702e4cc58816882322e31e4dfc2c9c0cbc170a9d50029",
  "source": "pragma solidity ^0.4.24;\n\nimport \"./interfaces/IEmissionFunds.sol\";\nimport \"./interfaces/IPoaNetworkConsensus.sol\";\nimport \"./abstracts/VotingTo.sol\";\n\n\ncontract VotingToManageEmissionFunds is VotingTo {\n    bytes32 internal constant DISTRIBUTION_THRESHOLD =\n        keccak256(\"distributionThreshold\");\n    \n    bytes32 internal constant EMISSION_FUNDS =\n        keccak256(\"emissionFunds\");\n    \n    bytes32 internal constant EMISSION_RELEASE_THRESHOLD =\n        keccak256(\"emissionReleaseThreshold\");\n    \n    bytes32 internal constant EMISSION_RELEASE_TIME =\n        keccak256(\"emissionReleaseTime\");\n    \n    bytes32 internal constant NO_ACTIVE_BALLOT_EXISTS =\n        keccak256(\"noActiveBallotExists\");\n\n    bytes32 internal constant AMOUNT = \"amount\";\n    bytes32 internal constant BURN_VOTES = \"burnVotes\";\n    bytes32 internal constant CREATION_TIME = \"creationTime\";\n    bytes32 internal constant EMISSION_RELEASE_TIME_SNAPSHOT = \"emissionReleaseTimeSnapshot\";\n    bytes32 internal constant FREEZE_VOTES = \"freezeVotes\";\n    bytes32 internal constant IS_CANCELED = \"isCanceled\";\n    bytes32 internal constant RECEIVER = \"receiver\";\n    bytes32 internal constant SEND_VOTES = \"sendVotes\";\n\n    event BallotCanceled(\n        uint256 indexed id,\n        address indexed votingKey\n    );\n\n    enum QuorumStates {Invalid, InProgress, Sent, Burnt, Frozen}\n    enum ActionChoice {Invalid, Send, Burn, Freeze}\n\n    function ballotCancelingThreshold() public pure returns(uint256) {\n        return 15 minutes;\n    }\n\n    // solhint-disable code-complexity\n    function canBeFinalizedNow(uint256 _id) public view returns(bool) {\n        if (_id >= nextBallotId()) return false;\n        if (_id != nextBallotId().sub(1)) return false;\n        if (_getStartTime(_id) > getTime()) return false;\n        if (isActive(_id)) return false;\n        if (_getIsCanceled(_id)) return false;\n        if (_getIsFinalized(_id)) return false;\n        if (noActiveBallotExists()) return false;\n        if (_withinCancelingThreshold(_id)) return false;\n        return true;\n    }\n    // solhint-enable code-complexity\n\n    function cancelNewBallot() public {\n        uint256 ballotId = nextBallotId().sub(1);\n        require(_getKeysManager().getMiningKeyByVoting(msg.sender) == _getCreator(ballotId));\n        require(_withinCancelingThreshold(ballotId));\n        require(!_getIsCanceled(ballotId));\n        require(!_getIsFinalized(ballotId));\n        _setIsCanceled(ballotId, true);\n        _setNoActiveBallotExists(true);\n        _setEmissionReleaseTime(_getEmissionReleaseTimeSnapshot(ballotId));\n        emit BallotCanceled(ballotId, msg.sender);\n    }\n\n    function createBallot(\n        uint256 _startTime,\n        uint256 _endTime,\n        address _receiver,\n        string _memo\n    ) public onlyValidVotingKey(msg.sender) {\n        require(_startTime > 0 && _endTime > 0);\n        uint256 currentTime = getTime();\n        require(_endTime > _startTime && _startTime > currentTime);\n        uint256 releaseTimeSnapshot = emissionReleaseTime();\n        uint256 releaseTime = refreshEmissionReleaseTime();\n        require(currentTime >= releaseTime);\n        require(_endTime.sub(releaseTime) <= distributionThreshold());\n        require(_receiver != address(0));\n        require(noActiveBallotExists());\n        uint256 ballotId = super._createBallot(\n            uint256(BallotTypes.ManageEmissionFunds),\n            _startTime,\n            _endTime,\n            _memo,\n            uint256(QuorumStates.InProgress),\n            _getKeysManager().getMiningKeyByVoting(msg.sender)\n        );\n        _setSendVotes(ballotId, 0);\n        _setBurnVotes(ballotId, 0);\n        _setFreezeVotes(ballotId, 0);\n        _setReceiver(ballotId, _receiver);\n        _setAmount(ballotId, emissionFunds().balance);\n        _setNoActiveBallotExists(false);\n        _setCreationTime(ballotId, currentTime);\n        _setEmissionReleaseTimeSnapshot(ballotId, releaseTimeSnapshot);\n        _setIsCanceled(ballotId, false);\n    }\n\n    function distributionThreshold() public view returns(uint256) {\n        return uintStorage[DISTRIBUTION_THRESHOLD];\n    }\n\n    function emissionFunds() public view returns(address) {\n        return addressStorage[EMISSION_FUNDS];\n    }\n\n    function emissionReleaseThreshold() public view returns(uint256) {\n        return uintStorage[EMISSION_RELEASE_THRESHOLD];\n    }\n\n    function emissionReleaseTime() public view returns(uint256) {\n        return uintStorage[EMISSION_RELEASE_TIME];\n    }\n\n    function finalize(uint256 _id) public onlyValidVotingKey(msg.sender) {\n        require(canBeFinalizedNow(_id));\n        _finalize(_id);\n    }\n\n    function getBallotInfo(uint256 _id) public view returns(\n        uint256 creationTime,\n        uint256 startTime,\n        uint256 endTime,\n        bool isCanceled,\n        bool isFinalized,\n        address creator,\n        string memo,\n        uint256 amount,\n        uint256 burnVotes,\n        uint256 freezeVotes,\n        uint256 sendVotes,\n        address receiver\n    ) {\n        creationTime = _getCreationTime(_id);\n        startTime = _getStartTime(_id);\n        endTime = _getEndTime(_id);\n        isCanceled = _getIsCanceled(_id);\n        isFinalized = _getIsFinalized(_id);\n        creator = _getCreator(_id);\n        memo = _getMemo(_id);\n        amount = _getAmount(_id);\n        burnVotes = _getBurnVotes(_id);\n        freezeVotes = _getFreezeVotes(_id);\n        sendVotes = _getSendVotes(_id);\n        receiver = _getReceiver(_id);\n    }\n\n    function getTotalVoters(uint256 _id) public view returns(uint256) {\n        return _getSendVotes(_id).add(_getBurnVotes(_id)).add(_getFreezeVotes(_id));\n    }\n\n    function init(\n        uint256 _emissionReleaseTime, // unix timestamp\n        uint256 _emissionReleaseThreshold, // seconds\n        uint256 _distributionThreshold, // seconds\n        address _emissionFunds\n    ) public onlyOwner {\n        require(!initDisabled());\n        require(_emissionReleaseTime > getTime());\n        require(_emissionReleaseThreshold > 0);\n        require(_distributionThreshold > ballotCancelingThreshold());\n        require(_emissionReleaseThreshold > _distributionThreshold);\n        require(_emissionFunds != address(0));\n        _setNoActiveBallotExists(true);\n        _setEmissionReleaseTime(_emissionReleaseTime);\n        addressStorage[EMISSION_FUNDS] = _emissionFunds;\n        uintStorage[EMISSION_RELEASE_THRESHOLD] = _emissionReleaseThreshold;\n        uintStorage[DISTRIBUTION_THRESHOLD] = _distributionThreshold;\n        boolStorage[INIT_DISABLED] = true;\n    }\n\n    function noActiveBallotExists() public view returns(bool) {\n        return boolStorage[NO_ACTIVE_BALLOT_EXISTS];\n    }\n\n    function refreshEmissionReleaseTime() public returns(uint256) {\n        require(initDisabled());\n        uint256 releaseTime = emissionReleaseTime();\n        uint256 currentTime = getTime();\n        if (currentTime > releaseTime) {\n            uint256 releaseThreshold = emissionReleaseThreshold();\n            uint256 diff = currentTime.sub(releaseTime).div(releaseThreshold);\n            if (diff > 0) {\n                releaseTime = releaseTime.add(releaseThreshold.mul(diff));\n                _setEmissionReleaseTime(releaseTime);\n            }\n        }\n        return releaseTime;\n    }\n\n    function vote(uint256 _id, uint256 _choice) public onlyValidVotingKey(msg.sender) {\n        require(!_getIsCanceled(_id));\n        require(!_getIsFinalized(_id));\n        require(isValidVote(_id, msg.sender));\n        if (_choice == uint(ActionChoice.Send)) {\n            _setSendVotes(_id, _getSendVotes(_id).add(1));\n        } else if (_choice == uint(ActionChoice.Burn)) {\n            _setBurnVotes(_id, _getBurnVotes(_id).add(1));\n        } else if (_choice == uint(ActionChoice.Freeze)) {\n            _setFreezeVotes(_id, _getFreezeVotes(_id).add(1));\n        } else {\n            revert();\n        }\n        address miningKey = _getKeysManager().getMiningKeyByVoting(msg.sender);\n        _votersAdd(_id, miningKey);\n        emit Vote(_id, _choice, msg.sender, getTime(), miningKey);\n\n        uint256 validatorsLength = IPoaNetworkConsensus(\n            IProxyStorage(proxyStorage()).getPoaConsensus()\n        ).getCurrentValidatorsLengthWithoutMoC();\n        \n        if (getTotalVoters(_id) >= validatorsLength && !_withinCancelingThreshold(_id)) {\n            _finalize(_id);\n        }\n    }\n\n    function _finalize(uint256 _id) internal {\n        require(_isEOA(msg.sender));\n\n        IEmissionFunds _emissionFunds = IEmissionFunds(emissionFunds());\n        uint256 amount = _getAmount(_id);\n\n        _setIsFinalized(_id, true);\n        _setNoActiveBallotExists(true);\n        _setEmissionReleaseTime(\n            emissionReleaseTime().add(emissionReleaseThreshold())\n        );\n        \n        emit BallotFinalized(_id, msg.sender);\n        \n        if (getTotalVoters(_id) < getMinThresholdOfVoters(_id)) {\n            _setQuorumState(_id, uint256(QuorumStates.Frozen));\n            _emissionFunds.freezeFunds(amount);\n            return;\n        }\n\n        uint256 sendVotesCount = _getSendVotes(_id);\n        uint256 burnVotesCount = _getBurnVotes(_id);\n        uint256 freezeVotesCount = _getFreezeVotes(_id);\n        QuorumStates quorumState = QuorumStates.Frozen;\n\n        if (sendVotesCount > burnVotesCount) {\n            if (sendVotesCount > freezeVotesCount) {\n                quorumState = QuorumStates.Sent;\n            }\n        } else {\n            if (burnVotesCount > sendVotesCount && burnVotesCount > freezeVotesCount) {\n                quorumState = QuorumStates.Burnt;\n            }\n        }\n\n        _setQuorumState(_id, uint256(quorumState));\n\n        if (quorumState == QuorumStates.Sent) {\n            _emissionFunds.sendFundsTo(_getReceiver(_id), amount);\n        } else if (quorumState == QuorumStates.Burnt) {\n            _emissionFunds.burnFunds(amount);\n        } else {\n            _emissionFunds.freezeFunds(amount);\n        }\n    }\n\n    function _getAmount(uint256 _id) internal view returns(uint256) {\n        return uintStorage[keccak256(abi.encode(VOTING_STATE, _id, AMOUNT))];\n    }\n\n    function _getBurnVotes(uint256 _id) internal view returns(uint256) {\n        return uintStorage[keccak256(abi.encode(VOTING_STATE, _id, BURN_VOTES))];\n    }\n\n    function _getCreationTime(uint256 _ballotId) internal view returns(uint256) {\n        return uintStorage[\n            keccak256(abi.encode(VOTING_STATE, _ballotId, CREATION_TIME))\n        ];\n    }\n\n    function _getEmissionReleaseTimeSnapshot(uint256 _ballotId) internal view returns(uint256) {\n        return uintStorage[\n            keccak256(abi.encode(VOTING_STATE, _ballotId, EMISSION_RELEASE_TIME_SNAPSHOT))\n        ];\n    }\n\n    function _getFreezeVotes(uint256 _id) internal view returns(uint256) {\n        return uintStorage[keccak256(abi.encode(VOTING_STATE, _id, FREEZE_VOTES))];\n    }\n\n    function _getGlobalMinThresholdOfVoters() internal view returns(uint256) {\n        return _getBallotsStorage().getProxyThreshold();\n    }\n\n    function _getIsCanceled(uint256 _ballotId) internal view returns(bool) {\n        return boolStorage[\n            keccak256(abi.encode(VOTING_STATE, _ballotId, IS_CANCELED))\n        ];\n    }\n\n    function _getReceiver(uint256 _id) internal view returns(address) {\n        return addressStorage[keccak256(abi.encode(VOTING_STATE, _id, RECEIVER))];\n    }\n\n    function _getSendVotes(uint256 _id) internal view returns(uint256) {\n        return uintStorage[keccak256(abi.encode(VOTING_STATE, _id, SEND_VOTES))];\n    }\n\n    function _isEOA(address addr) internal view returns (bool) {\n        uint256 size;\n        assembly { size := extcodesize(addr) }\n        return size == 0;\n    }\n\n    function _setAmount(uint256 _ballotId, uint256 _amount) private {\n        uintStorage[\n            keccak256(abi.encode(VOTING_STATE, _ballotId, AMOUNT))\n        ] = _amount;\n    }\n\n    function _setBurnVotes(uint256 _ballotId, uint256 _value) private {\n        uintStorage[\n            keccak256(abi.encode(VOTING_STATE, _ballotId, BURN_VOTES))\n        ] = _value;\n    }\n\n    function _setCreationTime(uint256 _ballotId, uint256 _time) private {\n        uintStorage[\n            keccak256(abi.encode(VOTING_STATE, _ballotId, CREATION_TIME))\n        ] = _time;\n    }\n\n    function _setEmissionReleaseTime(uint256 _time) private {\n        uintStorage[EMISSION_RELEASE_TIME] = _time;\n    }\n\n    function _setEmissionReleaseTimeSnapshot(uint256 _ballotId, uint256 _time) private {\n        uintStorage[\n            keccak256(abi.encode(VOTING_STATE, _ballotId, EMISSION_RELEASE_TIME_SNAPSHOT))\n        ] = _time;\n    }\n\n    function _setFreezeVotes(uint256 _ballotId, uint256 _value) private {\n        uintStorage[\n            keccak256(abi.encode(VOTING_STATE, _ballotId, FREEZE_VOTES))\n        ] = _value;\n    }\n\n    function _setIsCanceled(uint256 _ballotId, bool _canceled) private {\n        boolStorage[\n            keccak256(abi.encode(VOTING_STATE, _ballotId, IS_CANCELED))\n        ] = _canceled;\n    }\n\n    function _setNoActiveBallotExists(bool _finalized) private {\n        boolStorage[NO_ACTIVE_BALLOT_EXISTS] = _finalized;\n    }\n\n    function _setReceiver(uint256 _ballotId, address _value) private {\n        addressStorage[\n            keccak256(abi.encode(VOTING_STATE, _ballotId, RECEIVER))\n        ] = _value;\n    }\n\n    function _setSendVotes(uint256 _ballotId, uint256 _value) private {\n        uintStorage[\n            keccak256(abi.encode(VOTING_STATE, _ballotId, SEND_VOTES))\n        ] = _value;\n    }\n\n    function _withinCancelingThreshold(uint256 _ballotId) private view returns(bool) {\n        return getTime().sub(_getCreationTime(_ballotId)) <= ballotCancelingThreshold();\n    }\n}\n",
  "sourcePath": "/home/moc/poa-network-consensus-contracts/contracts/VotingToManageEmissionFunds.sol",
  "compiler": {
    "name": "solc",
    "version": "0.4.24+commit.e67f0147.Emscripten.clang"
  },
  "schemaVersion": "2.0.1",
  "updatedAt": "2018-11-18T12:51:15.758Z"
}