{
  "contractName": "VotingToChangeKeys",
  "abi": [
    {
      "constant": true,
      "inputs": [
        {
          "name": "_id",
          "type": "uint256"
        }
      ],
      "name": "canBeFinalizedNow",
      "outputs": [
        {
          "name": "",
          "type": "bool"
        }
      ],
      "payable": false,
      "stateMutability": "view",
      "type": "function"
    },
    {
      "constant": true,
      "inputs": [],
      "name": "minBallotDuration",
      "outputs": [
        {
          "name": "",
          "type": "uint256"
        }
      ],
      "payable": false,
      "stateMutability": "view",
      "type": "function"
    },
    {
      "constant": false,
      "inputs": [
        {
          "name": "_id",
          "type": "uint256"
        }
      ],
      "name": "finalize",
      "outputs": [],
      "payable": false,
      "stateMutability": "nonpayable",
      "type": "function"
    },
    {
      "constant": true,
      "inputs": [
        {
          "name": "_id",
          "type": "uint256"
        }
      ],
      "name": "getQuorumState",
      "outputs": [
        {
          "name": "",
          "type": "uint256"
        }
      ],
      "payable": false,
      "stateMutability": "view",
      "type": "function"
    },
    {
      "constant": true,
      "inputs": [
        {
          "name": "_id",
          "type": "uint256"
        },
        {
          "name": "_votingKey",
          "type": "address"
        }
      ],
      "name": "isValidVote",
      "outputs": [
        {
          "name": "",
          "type": "bool"
        }
      ],
      "payable": false,
      "stateMutability": "view",
      "type": "function"
    },
    {
      "constant": true,
      "inputs": [
        {
          "name": "_index",
          "type": "uint256"
        }
      ],
      "name": "activeBallots",
      "outputs": [
        {
          "name": "",
          "type": "uint256"
        }
      ],
      "payable": false,
      "stateMutability": "view",
      "type": "function"
    },
    {
      "constant": true,
      "inputs": [],
      "name": "initDisabled",
      "outputs": [
        {
          "name": "",
          "type": "bool"
        }
      ],
      "payable": false,
      "stateMutability": "view",
      "type": "function"
    },
    {
      "constant": true,
      "inputs": [],
      "name": "getTime",
      "outputs": [
        {
          "name": "",
          "type": "uint256"
        }
      ],
      "payable": false,
      "stateMutability": "view",
      "type": "function"
    },
    {
      "constant": true,
      "inputs": [],
      "name": "activeBallotsLength",
      "outputs": [
        {
          "name": "",
          "type": "uint256"
        }
      ],
      "payable": false,
      "stateMutability": "view",
      "type": "function"
    },
    {
      "constant": true,
      "inputs": [
        {
          "name": "_id",
          "type": "uint256"
        }
      ],
      "name": "isActive",
      "outputs": [
        {
          "name": "",
          "type": "bool"
        }
      ],
      "payable": false,
      "stateMutability": "view",
      "type": "function"
    },
    {
      "constant": true,
      "inputs": [
        {
          "name": "_id",
          "type": "uint256"
        }
      ],
      "name": "getIndex",
      "outputs": [
        {
          "name": "",
          "type": "uint256"
        }
      ],
      "payable": false,
      "stateMutability": "view",
      "type": "function"
    },
    {
      "constant": true,
      "inputs": [],
      "name": "maxBallotDuration",
      "outputs": [
        {
          "name": "",
          "type": "uint256"
        }
      ],
      "payable": false,
      "stateMutability": "pure",
      "type": "function"
    },
    {
      "constant": true,
      "inputs": [],
      "name": "migrateDisabled",
      "outputs": [
        {
          "name": "",
          "type": "bool"
        }
      ],
      "payable": false,
      "stateMutability": "view",
      "type": "function"
    },
    {
      "constant": false,
      "inputs": [],
      "name": "migrateDisable",
      "outputs": [],
      "payable": false,
      "stateMutability": "nonpayable",
      "type": "function"
    },
    {
      "constant": true,
      "inputs": [],
      "name": "proxyStorage",
      "outputs": [
        {
          "name": "",
          "type": "address"
        }
      ],
      "payable": false,
      "stateMutability": "view",
      "type": "function"
    },
    {
      "constant": false,
      "inputs": [
        {
          "name": "_id",
          "type": "uint256"
        },
        {
          "name": "_choice",
          "type": "uint256"
        }
      ],
      "name": "vote",
      "outputs": [],
      "payable": false,
      "stateMutability": "nonpayable",
      "type": "function"
    },
    {
      "constant": true,
      "inputs": [
        {
          "name": "_id",
          "type": "uint256"
        }
      ],
      "name": "getMinThresholdOfVoters",
      "outputs": [
        {
          "name": "",
          "type": "uint256"
        }
      ],
      "payable": false,
      "stateMutability": "view",
      "type": "function"
    },
    {
      "constant": true,
      "inputs": [
        {
          "name": "_id",
          "type": "uint256"
        },
        {
          "name": "_votingKey",
          "type": "address"
        }
      ],
      "name": "hasAlreadyVoted",
      "outputs": [
        {
          "name": "",
          "type": "bool"
        }
      ],
      "payable": false,
      "stateMutability": "view",
      "type": "function"
    },
    {
      "constant": true,
      "inputs": [
        {
          "name": "_id",
          "type": "uint256"
        },
        {
          "name": "_miningKey",
          "type": "address"
        }
      ],
      "name": "areOldMiningKeysVoted",
      "outputs": [
        {
          "name": "",
          "type": "bool"
        }
      ],
      "payable": false,
      "stateMutability": "view",
      "type": "function"
    },
    {
      "constant": true,
      "inputs": [],
      "name": "nextBallotId",
      "outputs": [
        {
          "name": "",
          "type": "uint256"
        }
      ],
      "payable": false,
      "stateMutability": "view",
      "type": "function"
    },
    {
      "constant": true,
      "inputs": [
        {
          "name": "_miningKey",
          "type": "address"
        }
      ],
      "name": "validatorActiveBallots",
      "outputs": [
        {
          "name": "",
          "type": "uint256"
        }
      ],
      "payable": false,
      "stateMutability": "view",
      "type": "function"
    },
    {
      "constant": false,
      "inputs": [
        {
          "name": "_prevVotingToChange",
          "type": "address"
        }
      ],
      "name": "migrateBasicAll",
      "outputs": [],
      "payable": false,
      "stateMutability": "nonpayable",
      "type": "function"
    },
    {
      "anonymous": false,
      "inputs": [
        {
          "indexed": true,
          "name": "id",
          "type": "uint256"
        },
        {
          "indexed": true,
          "name": "ballotType",
          "type": "uint256"
        },
        {
          "indexed": true,
          "name": "creator",
          "type": "address"
        }
      ],
      "name": "BallotCreated",
      "type": "event"
    },
    {
      "anonymous": false,
      "inputs": [
        {
          "indexed": true,
          "name": "id",
          "type": "uint256"
        },
        {
          "indexed": true,
          "name": "voter",
          "type": "address"
        }
      ],
      "name": "BallotFinalized",
      "type": "event"
    },
    {
      "anonymous": false,
      "inputs": [
        {
          "indexed": true,
          "name": "id",
          "type": "uint256"
        },
        {
          "indexed": false,
          "name": "decision",
          "type": "uint256"
        },
        {
          "indexed": true,
          "name": "voter",
          "type": "address"
        },
        {
          "indexed": false,
          "name": "time",
          "type": "uint256"
        },
        {
          "indexed": false,
          "name": "voterMiningKey",
          "type": "address"
        }
      ],
      "name": "Vote",
      "type": "event"
    },
    {
      "constant": false,
      "inputs": [
        {
          "name": "_startTime",
          "type": "uint256"
        },
        {
          "name": "_endTime",
          "type": "uint256"
        },
        {
          "name": "_ballotType",
          "type": "uint256"
        },
        {
          "name": "_affectedKeyType",
          "type": "uint256"
        },
        {
          "name": "_memo",
          "type": "string"
        },
        {
          "name": "_affectedKey",
          "type": "address"
        },
        {
          "name": "_miningKey",
          "type": "address"
        }
      ],
      "name": "createBallot",
      "outputs": [
        {
          "name": "",
          "type": "uint256"
        }
      ],
      "payable": false,
      "stateMutability": "nonpayable",
      "type": "function"
    },
    {
      "constant": false,
      "inputs": [
        {
          "name": "_startTime",
          "type": "uint256"
        },
        {
          "name": "_endTime",
          "type": "uint256"
        },
        {
          "name": "_memo",
          "type": "string"
        },
        {
          "name": "_newMiningKey",
          "type": "address"
        },
        {
          "name": "_newVotingKey",
          "type": "address"
        },
        {
          "name": "_newPayoutKey",
          "type": "address"
        }
      ],
      "name": "createBallotToAddNewValidator",
      "outputs": [
        {
          "name": "",
          "type": "uint256"
        }
      ],
      "payable": false,
      "stateMutability": "nonpayable",
      "type": "function"
    },
    {
      "constant": true,
      "inputs": [
        {
          "name": "_id",
          "type": "uint256"
        }
      ],
      "name": "getBallotInfo",
      "outputs": [
        {
          "name": "startTime",
          "type": "uint256"
        },
        {
          "name": "endTime",
          "type": "uint256"
        },
        {
          "name": "affectedKey",
          "type": "address"
        },
        {
          "name": "affectedKeyType",
          "type": "uint256"
        },
        {
          "name": "newVotingKey",
          "type": "address"
        },
        {
          "name": "newPayoutKey",
          "type": "address"
        },
        {
          "name": "miningKey",
          "type": "address"
        },
        {
          "name": "totalVoters",
          "type": "uint256"
        },
        {
          "name": "progress",
          "type": "int256"
        },
        {
          "name": "isFinalized",
          "type": "bool"
        },
        {
          "name": "ballotType",
          "type": "uint256"
        },
        {
          "name": "creator",
          "type": "address"
        },
        {
          "name": "memo",
          "type": "string"
        },
        {
          "name": "canBeFinalizedNow",
          "type": "bool"
        }
      ],
      "payable": false,
      "stateMutability": "view",
      "type": "function"
    },
    {
      "constant": false,
      "inputs": [
        {
          "name": "_minBallotDuration",
          "type": "uint256"
        }
      ],
      "name": "init",
      "outputs": [],
      "payable": false,
      "stateMutability": "nonpayable",
      "type": "function"
    },
    {
      "constant": false,
      "inputs": [
        {
          "name": "_id",
          "type": "uint256"
        },
        {
          "name": "_prevVotingToChange",
          "type": "address"
        },
        {
          "name": "_voters",
          "type": "address[]"
        }
      ],
      "name": "migrateBasicOne",
      "outputs": [],
      "payable": false,
      "stateMutability": "nonpayable",
      "type": "function"
    }
  ],
  "bytecode": "0x608060405234801561001057600080fd5b50614dd5806100206000396000f3006080604052600436106101445763ffffffff60e060020a6000350416629b38fa811461014957806302a99b9d1461017557806305261aea1461019c57806308dbb18e146101b6578063141bd92a146101ce578063288fa7391461031b5780633bf05e951461033f57806347e82f311461035757806352a36938146103d1578063557ed1ba146103e65780636ccc0234146103fb57806373ece1001461041057806382afd23b146104775780638e7cb6e11461048f57806396bc6ef0146104a75780639fc18d4b146104bc578063a3ac1eb1146104d1578063a896f64b146104e6578063ae4b1b5b14610567578063b384abef14610598578063b7b0422d146105b3578063c088003d146105cb578063c14bfd29146105e3578063c7dea77714610607578063dc6bfbb51461062b578063f49774ee14610640578063f71de2ed14610661575b600080fd5b34801561015557600080fd5b50610161600435610682565b604080519115158252519081900360200190f35b34801561018157600080fd5b5061018a610693565b60408051918252519081900360200190f35b3480156101a857600080fd5b506101b46004356106d5565b005b3480156101c257600080fd5b5061018a600435610790565b3480156101da57600080fd5b506101e6600435610864565b604051808f81526020018e81526020018d600160a060020a0316600160a060020a031681526020018c81526020018b600160a060020a0316600160a060020a031681526020018a600160a060020a0316600160a060020a0316815260200189600160a060020a0316600160a060020a031681526020018881526020018781526020018615151515815260200185815260200184600160a060020a0316600160a060020a031681526020018060200183151515158152602001828103825284818151815260200191508051906020019080838360005b838110156102d35781810151838201526020016102bb565b50505050905090810190601f1680156103005780820380516001836020036101000a031916815260200191505b509f5050505050505050505050505050505060405180910390f35b34801561032757600080fd5b50610161600435600160a060020a0360243516610925565b34801561034b57600080fd5b5061018a6004356109f9565b34801561036357600080fd5b50604080516020600460443581810135601f810184900484028501840190955284845261018a94823594602480359536959460649492019190819084018382808284375094975050600160a060020a03853581169650602086013581169560400135169350610a4492505050565b3480156103dd57600080fd5b50610161610c3f565b3480156103f257600080fd5b5061018a610c83565b34801561040757600080fd5b5061018a610c87565b34801561041c57600080fd5b5060408051602060046044358181013583810280860185019096528085526101b49583359560248035600160a060020a031696369695606495939492019291829185019084908082843750949750610cb69650505050505050565b34801561048357600080fd5b5061016160043561153a565b34801561049b57600080fd5b5061018a60043561156f565b3480156104b357600080fd5b5061018a611601565b3480156104c857600080fd5b50610161611608565b3480156104dd57600080fd5b506101b461164c565b3480156104f257600080fd5b50604080516020601f60843560048181013592830184900484028501840190955281845261018a948035946024803595604435956064359536959460a494909391019190819084018382808284375094975050600160a060020a0385358116965060209095013590941693506116fd92505050565b34801561057357600080fd5b5061057c6117f1565b60408051600160a060020a039092168252519081900360200190f35b3480156105a457600080fd5b506101b460043560243561183b565b3480156105bf57600080fd5b506101b4600435611a69565b3480156105d757600080fd5b5061018a600435611a75565b3480156105ef57600080fd5b50610161600435600160a060020a0360243516611b07565b34801561061357600080fd5b50610161600435600160a060020a0360243516611bc7565b34801561063757600080fd5b5061018a611d26565b34801561064c57600080fd5b5061018a600160a060020a0360043516611d67565b34801561066d57600080fd5b506101b4600160a060020a0360043516611de8565b600061068d82612225565b92915050565b604080517f6d696e42616c6c6f744475726174696f6e000000000000000000000000000000815281519081900360110190206000908152600260205220545b90565b336106de6123ed565b600160a060020a03166362b46d64826040518263ffffffff1660e060020a0281526004018082600160a060020a0316600160a060020a03168152602001915050602060405180830381600087803b15801561073857600080fd5b505af115801561074c573d6000803e3d6000fd5b505050506040513d602081101561076257600080fd5b5051151561076f57600080fd5b61077882612225565b151561078357600080fd5b61078c82612465565b5050565b60408051600080516020614d6a8339815191526020808301919091528183018490527f71756f72756d53746174650000000000000000000000000000000000000000006060808401919091528351808403909101815260809092019283905281516000936002938593909282918401908083835b602083106108235780518252601f199092019160209182019101610804565b51815160209384036101000a600019018019909216911617905260408051929094018290039091208652850195909552929092016000205495945050505050565b600080600080600080600080600080600080606060006108838f61252b565b9d5061088e8f6125bd565b9c506108998f61264f565b9b506108a48f61272c565b9a506108af8f6127be565b99506108ba8f612850565b98506108c58f6128e2565b97506108d08f612974565b96506108db8f612a06565b95506108e68f612a98565b94506108f18f612b6f565b93506108fc8f612c01565b92506109078f612c93565b91506109128f612225565b905091939597999b9d5091939597999b9d565b6000806000806109336123ed565b600160a060020a0316632d260227866040518263ffffffff1660e060020a0281526004018082600160a060020a0316600160a060020a03168152602001915050602060405180830381600087803b15801561098d57600080fd5b505af11580156109a1573d6000803e3d6000fd5b505050506040513d60208110156109b757600080fd5b505192506109c58684612e08565b1591506109d28684611bc7565b1590508180156109e657506109e68661153a565b80156109ef5750805b9695505050505050565b60408051600080516020614d4a8339815191528152815190819003600d01902060009081526009602052908120805483908110610a3257fe5b90600052602060002001549050919050565b6000806000610a516123ed565b91506000600160a060020a031682600160a060020a031663fa46eacd876040518263ffffffff1660e060020a0281526004018082600160a060020a0316600160a060020a03168152602001915050602060405180830381600087803b158015610ab957600080fd5b505af1158015610acd573d6000803e3d6000fd5b505050506040513d6020811015610ae357600080fd5b5051600160a060020a031614610af857600080fd5b604080517fc04455b5000000000000000000000000000000000000000000000000000000008152600160a060020a038681166004830152915160009285169163c04455b591602480830192602092919082900301818787803b158015610b5d57600080fd5b505af1158015610b71573d6000803e3d6000fd5b505050506040513d6020811015610b8757600080fd5b5051600160a060020a031614610b9c57600080fd5b600160a060020a038581169087161415610bb557600080fd5b600160a060020a038481169087161415610bce57600080fd5b600160a060020a03851615801590610bee5750600160a060020a03841615155b15610c0c57600160a060020a038581169085161415610c0c57600080fd5b610c1d89896001808b8b60006116fd565b9050610c298186612eef565b610c338185612fec565b98975050505050505050565b604080517f696e697444697361626c656400000000000000000000000000000000000000008152815190819003600c01902060009081526006602052205460ff1690565b4290565b60408051600080516020614d4a8339815191528152815190819003600d01902060009081526009602052205490565b60408051600080516020614d8a833981519152815281519081900360050190206000908152600460205290812054819081908190819081906060908290819033600160a060020a0390911614610d0b57600080fd5b600160a060020a038b161515610d2057600080fd5b610d28610c3f565b1515610d3357600080fd5b610d3b611608565b15610d4557600080fd5b8a9850895189600160a060020a03166343d3a4c18e6040518263ffffffff1660e060020a02815260040180828152602001915050602060405180830381600087803b158015610d9357600080fd5b505af1158015610da7573d6000803e3d6000fd5b505050506040513d6020811015610dbd57600080fd5b505114610dc957600080fd5b88600160a060020a0316639067b6778d6040518263ffffffff1660e060020a02815260040180828152602001915050602060405180830381600087803b158015610e1257600080fd5b505af1158015610e26573d6000803e3d6000fd5b505050506040513d6020811015610e3c57600080fd5b50518a51909850610e4e908d9061307e565b610ecc8c8a600160a060020a03166323e1a0a88f6040518263ffffffff1660e060020a02815260040180828152602001915050602060405180830381600087803b158015610e9b57600080fd5b505af1158015610eaf573d6000803e3d6000fd5b505050506040513d6020811015610ec557600080fd5b5051613153565b610f4a8c8a600160a060020a031663c088003d8f6040518263ffffffff1660e060020a02815260040180828152602001915050602060405180830381600087803b158015610f1957600080fd5b505af1158015610f2d573d6000803e3d6000fd5b505050506040513d6020811015610f4357600080fd5b5051613234565b610fc88c8a600160a060020a031663bc2be1be8f6040518263ffffffff1660e060020a02815260040180828152602001915050602060405180830381600087803b158015610f9757600080fd5b505af1158015610fab573d6000803e3d6000fd5b505050506040513d6020811015610fc157600080fd5b50516132c6565b610fd28c89613358565b88600160a060020a031663ff84c45f8d6040518263ffffffff1660e060020a02815260040180828152602001915050600060405180830381600087803b15801561101b57600080fd5b505af115801561102f573d6000803e3d6000fd5b505050506040513d6000823e601f3d908101601f191682016040526101c081101561105957600080fd5b8151602083015160408401516060850151608086015160a087015160c088015160e08901516101008a01516101208b01516101408c01516101608d01516101808e01516101a08f0180519d9f9c9e9b9d9a9c999b989a979996989597949693959294919392830192916401000000008111156110d457600080fd5b820160208101848111156110e757600080fd5b815164010000000081118282018710171561110157600080fd5b50509291905050509f509f50509e50509d50509c505050505050506111268c886133ea565b6111338c8760ff1661347c565b61113d8c8661350e565b6111478c856135a0565b6111518c84613632565b6111cf8c8a600160a060020a031663ce21986b8f6040518263ffffffff1660e060020a02815260040180828152602001915050602060405180830381600087803b15801561119e57600080fd5b505af11580156111b2573d6000803e3d6000fd5b505050506040513d60208110156111c857600080fd5b5051613718565b61124d8c8a600160a060020a031663905f5ce88f6040518263ffffffff1660e060020a02815260040180828152602001915050602060405180830381600087803b15801561121c57600080fd5b505af1158015611230573d6000803e3d6000fd5b505050506040513d602081101561124657600080fd5b50516137aa565b6112cb8c8a600160a060020a0316635dfbf9e98f6040518263ffffffff1660e060020a02815260040180828152602001915050602060405180830381600087803b15801561129a57600080fd5b505af11580156112ae573d6000803e3d6000fd5b505050506040513d60208110156112c457600080fd5b505161383c565b6113498c8a600160a060020a0316632d23bced8f6040518263ffffffff1660e060020a02815260040180828152602001915050602060405180830381600087803b15801561131857600080fd5b505af115801561132c573d6000803e3d6000fd5b505050506040513d602081101561134257600080fd5b50516138ce565b88600160a060020a0316639a5737866040518163ffffffff1660e060020a028152600401602060405180830381600087803b15801561138757600080fd5b505af115801561139b573d6000803e3d6000fd5b505050506040513d60208110156113b157600080fd5b50519150600090505b895181101561152c57876113cc610c83565b116115035788600160a060020a031663c14bfd298d84600160a060020a0316632befe2e18e868151811015156113fe57fe5b906020019060200201516040518263ffffffff1660e060020a0281526004018082600160a060020a0316600160a060020a03168152602001915050602060405180830381600087803b15801561145357600080fd5b505af1158015611467573d6000803e3d6000fd5b505050506040513d602081101561147d57600080fd5b50516040805160e060020a63ffffffff86160281526004810193909352600160a060020a0390911660248301525160448083019260209291908290030181600087803b1580156114cc57600080fd5b505af11580156114e0573d6000803e3d6000fd5b505050506040513d60208110156114f657600080fd5b5051151561150357600080fd5b6115248c8b8381518110151561151557fe5b90602001906020020151613960565b6001016113ba565b505050505050505050505050565b6000611544610c83565b61154d8361252b565b1115801561068d575061155f826125bd565b611567610c83565b111592915050565b60408051600080516020614d6a8339815191526020808301919091528183018490527f696e646578000000000000000000000000000000000000000000000000000000606080840191909152835180840390910181526080909201928390528151600093600293859390928291840190808383602083106108235780518252601f199092019160209182019101610804565b6212750090565b604080517f6d69677261746544697361626c656400000000000000000000000000000000008152815190819003600f01902060009081526006602052205460ff1690565b60408051600080516020614d8a8339815191528152815190819003600501902060009081526004602052205433600160a060020a039091161461168e57600080fd5b611696610c3f565b15156116a157600080fd5b6116a9611608565b156116b357600080fd5b604080517f6d69677261746544697361626c656400000000000000000000000000000000008152815190819003600f0190206000908152600660205220805460ff19166001179055565b600080611708613a02565b604080517f3fd626d4000000000000000000000000000000000000000000000000000000008152600481018a905260248101899052600160a060020a038781166044830152868116606483015291519290911691633fd626d4916084808201926020929091908290030181600087803b15801561178457600080fd5b505af1158015611798573d6000803e3d6000fd5b505050506040513d60208110156117ae57600080fd5b505115156117bb57600080fd5b6117c7878a8a88613a49565b90506117d381856137aa565b6117dd818761383c565b6117e781846138ce565b610c338188613718565b604080517f70726f787953746f7261676500000000000000000000000000000000000000008152815190819003600c019020600090815260046020522054600160a060020a031690565b6000336118466123ed565b600160a060020a03166362b46d64826040518263ffffffff1660e060020a0281526004018082600160a060020a0316600160a060020a03168152602001915050602060405180830381600087803b1580156118a057600080fd5b505af11580156118b4573d6000803e3d6000fd5b505050506040513d60208110156118ca57600080fd5b505115156118d757600080fd5b6118df611608565b15156118ea57600080fd5b6118f384612a98565b156118fd57600080fd5b6119056123ed565b600160a060020a0316632d260227336040518263ffffffff1660e060020a0281526004018082600160a060020a0316600160a060020a03168152602001915050602060405180830381600087803b15801561195f57600080fd5b505af1158015611973573d6000803e3d6000fd5b505050506040513d602081101561198957600080fd5b505191506119978433610925565b15156119a257600080fd5b60018314156119c5576119c0846119b886612a06565b6001016133ea565b6119e3565b6002831415610144576119c08460016119dd87612a06565b036133ea565b6119ed8483613960565b611a1084611a0b60016119ff88612974565b9063ffffffff613c6f16565b61307e565b33847f1fad44b452b708aff155b3190058d690f8a0f2e2463fc757b96d1ce1877d0ccc85611a3c610c83565b604080519283526020830191909152600160a060020a03871682820152519081900360600190a350505050565b611a7281613c85565b50565b60408051600080516020614d6a8339815191526020808301919091528183018490527f6d696e5468726573686f6c644f66566f74657273000000000000000000000000606080840191909152835180840390910181526080909201928390528151600093600293859390928291840190808383602083106108235780518252601f199092019160209182019101610804565b600080600160a060020a0383161515611b235760009150611bc0565b611b2b6123ed565b600160a060020a0316632d260227846040518263ffffffff1660e060020a0281526004018082600160a060020a0316600160a060020a03168152602001915050602060405180830381600087803b158015611b8557600080fd5b505af1158015611b99573d6000803e3d6000fd5b505050506040513d6020811015611baf57600080fd5b50519050611bbd8482612e08565b91505b5092915050565b60008181808080611bd66123ed565b935083600160a060020a031663b9bdaa076040518163ffffffff1660e060020a028152600401602060405180830381600087803b158015611c1657600080fd5b505af1158015611c2a573d6000803e3d6000fd5b505050506040513d6020811015611c4057600080fd5b50519250600091505b82821015611d165783600160a060020a031663a5a36dee866040518263ffffffff1660e060020a0281526004018082600160a060020a0316600160a060020a03168152602001915050602060405180830381600087803b158015611cac57600080fd5b505af1158015611cc0573d6000803e3d6000fd5b505050506040513d6020811015611cd657600080fd5b50519050600160a060020a0381161515611cf35760009550611d1b565b611cfd8882612e08565b15611d0b5760019550611d1b565b935060010183611c49565b600095505b505050505092915050565b604080517f6e65787442616c6c6f74496400000000000000000000000000000000000000008152815190819003600c01902060009081526002602052205490565b604080517f76616c696461746f7241637469766542616c6c6f747300000000000000000000602080830191909152600160a060020a038416828401528251808303840181526060909201928390528151600093600293859390928291840190808383602083106108235780518252601f199092019160209182019101610804565b60408051600080516020614d8a83398151915281528151908190036005019020600090815260046020529081205481908190819081908190819033600160a060020a0390911614611e3857600080fd5b600160a060020a0388161515611e4d57600080fd5b611e55610c3f565b1515611e6057600080fd5b611e68611608565b15611e7257600080fd5b879650611e7d6117f1565b600160a060020a0316638b8414c46040518163ffffffff1660e060020a028152600401602060405180830381600087803b158015611eba57600080fd5b505af1158015611ece573d6000803e3d6000fd5b505050506040513d6020811015611ee457600080fd5b5051604080517fdc6bfbb50000000000000000000000000000000000000000000000000000000081529051919750611f7991600160a060020a038a169163dc6bfbb59160048083019260209291908290030181600087803b158015611f4857600080fd5b505af1158015611f5c573d6000803e3d6000fd5b505050506040513d6020811015611f7257600080fd5b5051613d88565b86600160a060020a0316636ccc02346040518163ffffffff1660e060020a028152600401602060405180830381600087803b158015611fb757600080fd5b505af1158015611fcb573d6000803e3d6000fd5b505050506040513d6020811015611fe157600080fd5b50519350611fed613dc8565b600094505b838510156120825761207787600160a060020a0316633bf05e95876040518263ffffffff1660e060020a02815260040180828152602001915050602060405180830381600087803b15801561204657600080fd5b505af115801561205a573d6000803e3d6000fd5b505050506040513d602081101561207057600080fd5b5051613e00565b600190940193611ff2565b85600160a060020a0316630eaba26a6040518163ffffffff1660e060020a028152600401602060405180830381600087803b1580156120c057600080fd5b505af11580156120d4573d6000803e3d6000fd5b505050506040513d60208110156120ea57600080fd5b50516000955092505b8285101561221b5785600160a060020a031663900eb5a8866040518263ffffffff1660e060020a02815260040180828152602001915050602060405180830381600087803b15801561214457600080fd5b505af1158015612158573d6000803e3d6000fd5b505050506040513d602081101561216e57600080fd5b5051604080517ff49774ee000000000000000000000000000000000000000000000000000000008152600160a060020a03808416600483015291519294509089169163f49774ee916024808201926020929091908290030181600087803b1580156121d857600080fd5b505af11580156121ec573d6000803e3d6000fd5b505050506040513d602081101561220257600080fd5b505190506122108282613e41565b6001909401936120f3565b5050505050505050565b6000806000806000612235611608565b151561224457600094506123e4565b61224c610c83565b93506122578661252b565b9250612261611d26565b861061227057600094506123e4565b8383111561228157600094506123e4565b61228a86612a98565b1561229857600094506123e4565b6122a06117f1565b600160a060020a0316638b8414c46040518163ffffffff1660e060020a028152600401602060405180830381600087803b1580156122dd57600080fd5b505af11580156122f1573d6000803e3d6000fd5b505050506040513d602081101561230757600080fd5b5051604080517fa87563370000000000000000000000000000000000000000000000000000000081529051600160a060020a039092169163a8756337916004808201926020929091908290030181600087803b15801561236657600080fd5b505af115801561237a573d6000803e3d6000fd5b505050506040513d602081101561239057600080fd5b505191508115156123a457600094506123e4565b816123ae87612974565b10156123c5576123bd8661153a565b1594506123e4565b6123d5848463ffffffff613ec216565b90506123df610693565b811194505b50505050919050565b60006123f76117f1565b600160a060020a0316639a5737866040518163ffffffff1660e060020a028152600401602060405180830381600087803b15801561243457600080fd5b505af1158015612448573d6000803e3d6000fd5b505050506040513d602081101561245e57600080fd5b5051905090565b61246e81613ed4565b15156124865761247d81613f4d565b61248681613f7c565b600061249182612a06565b1380156124ae57506124a281611a75565b6124ab82612974565b10155b156124dc576124bc81614044565b156124d2576124cd8160025b61347c565b6124d7565b611a72565b6124e7565b6124e78160036124c8565b6124f08161409a565b6124fb816001613153565b604051339082907f3b208472607d900e1f689c976139d1147afc463fa00df525e9aff8b0604d298490600090a350565b60408051600080516020614d6a8339815191526020808301919091528183018490527f737461727454696d650000000000000000000000000000000000000000000000606080840191909152835180840390910181526080909201928390528151600093600293859390928291840190808383602083106108235780518252601f199092019160209182019101610804565b60408051600080516020614d6a8339815191526020808301919091528183018490527f656e6454696d6500000000000000000000000000000000000000000000000000606080840191909152835180840390910181526080909201928390528151600093600293859390928291840190808383602083106108235780518252601f199092019160209182019101610804565b60408051600080516020614d6a8339815191526020808301919091528183018490527f61666665637465644b65790000000000000000000000000000000000000000006060808401919091528351808403909101815260809092019283905281516000936004938593909282918401908083835b602083106126e25780518252601f1990920191602091820191016126c3565b51815160209384036101000a6000190180199092169116179052604080519290940182900390912086528501959095529290920160002054600160a060020a031695945050505050565b60408051600080516020614d6a8339815191526020808301919091528183018490527f61666665637465644b6579547970650000000000000000000000000000000000606080840191909152835180840390910181526080909201928390528151600093600293859390928291840190808383602083106108235780518252601f199092019160209182019101610804565b60408051600080516020614d6a8339815191526020808301919091528183018490527f6e6577566f74696e674b65790000000000000000000000000000000000000000606080840191909152835180840390910181526080909201928390528151600093600493859390928291840190808383602083106126e25780518252601f1990920191602091820191016126c3565b60408051600080516020614d6a8339815191526020808301919091528183018490527f6e65775061796f75744b65790000000000000000000000000000000000000000606080840191909152835180840390910181526080909201928390528151600093600493859390928291840190808383602083106126e25780518252601f1990920191602091820191016126c3565b60408051600080516020614d6a8339815191526020808301919091528183018490527f6d696e696e674b65790000000000000000000000000000000000000000000000606080840191909152835180840390910181526080909201928390528151600093600493859390928291840190808383602083106126e25780518252601f1990920191602091820191016126c3565b60408051600080516020614d6a8339815191526020808301919091528183018490527f746f74616c566f74657273000000000000000000000000000000000000000000606080840191909152835180840390910181526080909201928390528151600093600293859390928291840190808383602083106108235780518252601f199092019160209182019101610804565b60408051600080516020614d6a8339815191526020808301919091528183018490527f70726f6772657373000000000000000000000000000000000000000000000000606080840191909152835180840390910181526080909201928390528151600093600793859390928291840190808383602083106108235780518252601f199092019160209182019101610804565b60408051600080516020614d6a8339815191526020808301919091528183018490527f697346696e616c697a65640000000000000000000000000000000000000000006060808401919091528351808403909101815260809092019283905281516000936006938593909282918401908083835b60208310612b2b5780518252601f199092019160209182019101612b0c565b51815160209384036101000a600019018019909216911617905260408051929094018290039091208652850195909552929092016000205460ff1695945050505050565b60408051600080516020614d6a8339815191526020808301919091528183018490527f62616c6c6f745479706500000000000000000000000000000000000000000000606080840191909152835180840390910181526080909201928390528151600093600293859390928291840190808383602083106108235780518252601f199092019160209182019101610804565b60408051600080516020614d6a8339815191526020808301919091528183018490527f63726561746f7200000000000000000000000000000000000000000000000000606080840191909152835180840390910181526080909201928390528151600093600493859390928291840190808383602083106126e25780518252601f1990920191602091820191016126c3565b60408051600080516020614d6a8339815191526020808301919091528183018490527f6d656d6f0000000000000000000000000000000000000000000000000000000060608381019190915283518084038201815260809093019384905282519093600393600093909282918401908083835b60208310612d255780518252601f199092019160209182019101612d06565b6001836020036101000a0380198251168184511680821785525050505050509050019150506040518091039020600019166000191681526020019081526020016000208054600181600116156101000203166002900480601f016020809104026020016040519081016040528092919081815260200182805460018160011615610100020316600290048015612dfc5780601f10612dd157610100808354040283529160200191612dfc565b820191906000526020600020905b815481529060010190602001808311612ddf57829003601f168201915b50505050509050919050565b60408051600080516020614d6a8339815191526020808301919091528183018590527f766f7465727300000000000000000000000000000000000000000000000000006060830152600160a060020a0384166080808401919091528351808403909101815260a09092019283905281516000936006938593909282918401908083835b60208310612eaa5780518252601f199092019160209182019101612e8b565b51815160209384036101000a600019018019909216911617905260408051929094018290039091208652850195909552929092016000205460ff169695505050505050565b60408051600080516020614d6a8339815191526020808301919091528183018590527f6e6577566f74696e674b657900000000000000000000000000000000000000006060808401919091528351808403909101815260809092019283905281518493600493600093909282918401908083835b60208310612f825780518252601f199092019160209182019101612f63565b51815160209384036101000a60001901801990921691161790526040805192909401829003909120865285019590955292909201600020805473ffffffffffffffffffffffffffffffffffffffff1916600160a060020a0395909516949094179093555050505050565b60408051600080516020614d6a8339815191526020808301919091528183018590527f6e65775061796f75744b6579000000000000000000000000000000000000000060608084019190915283518084039091018152608090920192839052815184936004936000939092829184019080838360208310612f825780518252601f199092019160209182019101612f63565b60408051600080516020614d6a8339815191526020808301919091528183018590527f746f74616c566f746572730000000000000000000000000000000000000000006060808401919091528351808403909101815260809092019283905281518493600293600093909282918401908083835b602083106131115780518252601f1990920191602091820191016130f2565b51815160209384036101000a60001901801990921691161790526040805192909401829003909120865285019590955292909201600020939093555050505050565b60408051600080516020614d6a8339815191526020808301919091528183018590527f697346696e616c697a65640000000000000000000000000000000000000000006060808401919091528351808403909101815260809092019283905281518493600693600093909282918401908083835b602083106131e65780518252601f1990920191602091820191016131c7565b51815160209384036101000a60001901801990921691161790526040805192909401829003909120865285019590955292909201600020805460ff1916941515949094179093555050505050565b60408051600080516020614d6a8339815191526020808301919091528183018590527f6d696e5468726573686f6c644f66566f74657273000000000000000000000000606080840191909152835180840390910181526080909201928390528151849360029360009390928291840190808383602083106131115780518252601f1990920191602091820191016130f2565b60408051600080516020614d6a8339815191526020808301919091528183018590527f737461727454696d650000000000000000000000000000000000000000000000606080840191909152835180840390910181526080909201928390528151849360029360009390928291840190808383602083106131115780518252601f1990920191602091820191016130f2565b60408051600080516020614d6a8339815191526020808301919091528183018590527f656e6454696d6500000000000000000000000000000000000000000000000000606080840191909152835180840390910181526080909201928390528151849360029360009390928291840190808383602083106131115780518252601f1990920191602091820191016130f2565b60408051600080516020614d6a8339815191526020808301919091528183018590527f70726f6772657373000000000000000000000000000000000000000000000000606080840191909152835180840390910181526080909201928390528151849360079360009390928291840190808383602083106131115780518252601f1990920191602091820191016130f2565b60408051600080516020614d6a8339815191526020808301919091528183018590527f71756f72756d5374617465000000000000000000000000000000000000000000606080840191909152835180840390910181526080909201928390528151849360029360009390928291840190808383602083106131115780518252601f1990920191602091820191016130f2565b60408051600080516020614d6a8339815191526020808301919091528183018590527f696e646578000000000000000000000000000000000000000000000000000000606080840191909152835180840390910181526080909201928390528151849360029360009390928291840190808383602083106131115780518252601f1990920191602091820191016130f2565b60408051600080516020614d6a8339815191526020808301919091528183018590527f63726561746f720000000000000000000000000000000000000000000000000060608084019190915283518084039091018152608090920192839052815184936004936000939092829184019080838360208310612f825780518252601f199092019160209182019101612f63565b60408051600080516020614d6a8339815191526020808301919091528183018590527f6d656d6f000000000000000000000000000000000000000000000000000000006060808401919091528351808403909101815260809092019283905281518493600393600093909282918401908083835b602083106136c55780518252601f1990920191602091820191016136a6565b51815160001960209485036101000a01908116901991909116179052604080519490920184900390932086528583019690965250929093016000208451613713959194509201919050614c73565b505050565b60408051600080516020614d6a8339815191526020808301919091528183018590527f62616c6c6f745479706500000000000000000000000000000000000000000000606080840191909152835180840390910181526080909201928390528151849360029360009390928291840190808383602083106131115780518252601f1990920191602091820191016130f2565b60408051600080516020614d6a8339815191526020808301919091528183018590527f61666665637465644b657900000000000000000000000000000000000000000060608084019190915283518084039091018152608090920192839052815184936004936000939092829184019080838360208310612f825780518252601f199092019160209182019101612f63565b60408051600080516020614d6a8339815191526020808301919091528183018590527f61666665637465644b6579547970650000000000000000000000000000000000606080840191909152835180840390910181526080909201928390528151849360029360009390928291840190808383602083106131115780518252601f1990920191602091820191016130f2565b60408051600080516020614d6a8339815191526020808301919091528183018590527f6d696e696e674b6579000000000000000000000000000000000000000000000060608084019190915283518084039091018152608090920192839052815184936004936000939092829184019080838360208310612f825780518252601f199092019160209182019101612f63565b60408051600080516020614d6a8339815191526020808301919091528183018590527f766f7465727300000000000000000000000000000000000000000000000000006060830152600160a060020a0384166080808401919091528351808403909101815260a090920192839052815160019360069360009390928291840190808383602083106131e65780518252601f1990920191602091820191016131c7565b6000613a0c6117f1565b600160a060020a03166336ee77736040518163ffffffff1660e060020a028152600401602060405180830381600087803b15801561243457600080fd5b600080600033613a576123ed565b600160a060020a03166362b46d64826040518263ffffffff1660e060020a0281526004018082600160a060020a0316600160a060020a03168152602001915050602060405180830381600087803b158015613ab157600080fd5b505af1158015613ac5573d6000803e3d6000fd5b505050506040513d6020811015613adb57600080fd5b50511515613ae857600080fd5b868660008083118015613afb5750600082115b1515613b0657600080fd5b8282118015613b1b5750613b18610c83565b83115b1515613b2657600080fd5b613b36828463ffffffff613ec216565b9050613b40610693565b8111613b4b57600080fd5b613b53611601565b811115613b5f57600080fd5b613b67611608565b1515613b7257600080fd5b613b7a6123ed565b600160a060020a0316632d260227336040518263ffffffff1660e060020a0281526004018082600160a060020a0316600160a060020a03168152602001915050602060405180830381600087803b158015613bd457600080fd5b505af1158015613be8573d6000803e3d6000fd5b505050506040513d6020811015613bfe57600080fd5b50519550613c0b866140ef565b1515613c1657600080fd5b613c258b8b8b8b60018b614109565b9450613c3285600061307e565b613c3d8560006133ea565b613c4e85613c49610c87565b61350e565b613c5785613e00565b613c60866141ca565b50929998505050505050505050565b600082820183811015613c7e57fe5b9392505050565b60408051600080516020614d8a8339815191528152815190819003600501902060009081526004602052205433600160a060020a0390911614613cc757600080fd5b613ccf610c3f565b15613cd957600080fd5b613ce1611608565b15613ceb57600080fd5b613cf3611601565b8110613cfe57600080fd5b604080517f6d696e42616c6c6f744475726174696f6e00000000000000000000000000000081528151908190036011018120600090815260026020908152838220949094557f696e697444697361626c656400000000000000000000000000000000000000008252825191829003600c01909120815260069092529020805460ff19166001179055565b604080517f6e65787442616c6c6f74496400000000000000000000000000000000000000008152815190819003600c019020600090815260026020522055565b60408051600080516020614d4a8339815191528152815190819003600d01902060009081526009602052908120613dfe91614cf1565b565b60408051600080516020614d4a8339815191528152815190819003600d01902060009081526009602090815291812080546001810182559082529190200155565b604080517f76616c696461746f7241637469766542616c6c6f747300000000000000000000602080830191909152600160a060020a038516828401528251808303840181526060909201928390528151849360029360009390928291840190808383602083106131115780518252601f1990920191602091820191016130f2565b600082821115613ece57fe5b50900390565b604080517f66696e616c697a6543616c6c6564000000000000000000000000000000000000602080830191909152818301849052825180830384018152606090920192839052815160009360069385939092829184019080838360208310612b2b5780518252601f199092019160209182019101612b0c565b600080613f5983612c01565b9150613f6482611d67565b90506000811115613713576137138260018303613e41565b604080517f66696e616c697a6543616c6c65640000000000000000000000000000000000006020808301919091528183018490528251808303840181526060909201928390528151600193600693600093909282918401908083835b60208310613ff75780518252601f199092019160209182019101613fd8565b51815160209384036101000a60001901801990921691161790526040805192909401829003909120865285019590955292909201600020805460ff19169415159490941790935550505050565b60008061405083612b6f565b9050600181141561406b57614064836141e1565b9150614094565b600281141561407d57614064836147a6565b600381141561408f57614064836148ad565b600091505b50919050565b60008060006140a88461156f565b925060016140b4610c87565b0391506140c0826109f9565b90506140cc8382614b43565b6140d6818461350e565b6140e1826000614b43565b6140e9614b8d565b50505050565b60006140f9614bd9565b61410283611d67565b1092915050565b600080614114610c3f565b151561411f57600080fd5b614127611d26565b905061414261413d82600163ffffffff613c6f16565b613d88565b61414c81886132c6565b6141568187613358565b614161816000613153565b61416b818561347c565b61417c81614177614c20565b613234565b61418681846135a0565b6141908186613632565b6040513390899083907fd1ba591c76ef71222e2d30b8277758713cc6eef1de29efaf98a716744ac2420b90600090a4979650505050505050565b611a72816141dc60016119ff85611d67565b613e41565b6000806000806000806141f26123ed565b94506141fd8761264f565b93506142088761272c565b9250600183141561456c5761421c876127be565b91506000600160a060020a031685600160a060020a031663fa46eacd846040518263ffffffff1660e060020a0281526004018082600160a060020a0316600160a060020a03168152602001915050602060405180830381600087803b15801561428457600080fd5b505af1158015614298573d6000803e3d6000fd5b505050506040513d60208110156142ae57600080fd5b5051600160a060020a0316146142c7576000955061479c565b6142d087612850565b90506000600160a060020a031685600160a060020a031663c04455b5836040518263ffffffff1660e060020a0281526004018082600160a060020a0316600160a060020a03168152602001915050602060405180830381600087803b15801561433857600080fd5b505af115801561434c573d6000803e3d6000fd5b505050506040513d602081101561436257600080fd5b5051600160a060020a03161461437b576000955061479c565b84600160a060020a03166338949514856040518263ffffffff1660e060020a0281526004018082600160a060020a0316600160a060020a03168152602001915050602060405180830381600087803b1580156143d657600080fd5b505af11580156143ea573d6000803e3d6000fd5b505050506040513d602081101561440057600080fd5b50511515614411576000955061479c565b600160a060020a038216156144ba57604080517f9503ab72000000000000000000000000000000000000000000000000000000008152600160a060020a0384811660048301528681166024830152915191871691639503ab72916044808201926020929091908290030181600087803b15801561448d57600080fd5b505af11580156144a1573d6000803e3d6000fd5b505050506040513d60208110156144b757600080fd5b50505b600160a060020a0381161561456357604080517f651ebb5f000000000000000000000000000000000000000000000000000000008152600160a060020a038381166004830152868116602483015291519187169163651ebb5f916044808201926020929091908290030181600087803b15801561453657600080fd5b505af115801561454a573d6000803e3d6000fd5b505050506040513d602081101561456057600080fd5b50505b6001955061479c565b60028314156146cd57604080517ffa46eacd000000000000000000000000000000000000000000000000000000008152600160a060020a038681166004830152915160009288169163fa46eacd91602480830192602092919082900301818787803b1580156145da57600080fd5b505af11580156145ee573d6000803e3d6000fd5b505050506040513d602081101561460457600080fd5b5051600160a060020a03161461461d576000955061479c565b84600160a060020a0316639503ab72856146368a6128e2565b6040518363ffffffff1660e060020a0281526004018083600160a060020a0316600160a060020a0316815260200182600160a060020a0316600160a060020a0316815260200192505050602060405180830381600087803b15801561469a57600080fd5b505af11580156146ae573d6000803e3d6000fd5b505050506040513d60208110156146c457600080fd5b5051955061479c565b600383141561479757604080517fc04455b5000000000000000000000000000000000000000000000000000000008152600160a060020a038681166004830152915160009288169163c04455b591602480830192602092919082900301818787803b15801561473b57600080fd5b505af115801561474f573d6000803e3d6000fd5b505050506040513d602081101561476557600080fd5b5051600160a060020a03161461477e576000955061479c565b84600160a060020a031663651ebb5f856146368a6128e2565b600095505b5050505050919050565b60008060006147b36123ed565b91506147be8461272c565b9050600181141561485f5781600160a060020a0316637ebf43fc6147e18661264f565b6040518263ffffffff1660e060020a0281526004018082600160a060020a0316600160a060020a03168152602001915050602060405180830381600087803b15801561482c57600080fd5b505af1158015614840573d6000803e3d6000fd5b505050506040513d602081101561485657600080fd5b505192506148a6565b60028114156148805781600160a060020a0316632a968f496147e1866128e2565b60038114156148a15781600160a060020a0316631e534e716147e1866128e2565b600092505b5050919050565b60008060008060006148bd6123ed565b93506148c88661272c565b9250600183141561498b5783600160a060020a031663d44379cf6148eb8861264f565b6148f4896128e2565b6040518363ffffffff1660e060020a0281526004018083600160a060020a0316600160a060020a0316815260200182600160a060020a0316600160a060020a0316815260200192505050602060405180830381600087803b15801561495857600080fd5b505af115801561496c573d6000803e3d6000fd5b505050506040513d602081101561498257600080fd5b505194506123e4565b6002831415614a615761499d8661264f565b91506000600160a060020a031684600160a060020a031663fa46eacd846040518263ffffffff1660e060020a0281526004018082600160a060020a0316600160a060020a03168152602001915050602060405180830381600087803b158015614a0557600080fd5b505af1158015614a19573d6000803e3d6000fd5b505050506040513d6020811015614a2f57600080fd5b5051600160a060020a031614614a4857600094506123e4565b83600160a060020a031663d33eb5ae836148f4896128e2565b6003831415614b3757614a738661264f565b90506000600160a060020a031684600160a060020a031663c04455b5836040518263ffffffff1660e060020a0281526004018082600160a060020a0316600160a060020a03168152602001915050602060405180830381600087803b158015614adb57600080fd5b505af1158015614aef573d6000803e3d6000fd5b505050506040513d6020811015614b0557600080fd5b5051600160a060020a031614614b1e57600094506123e4565b83600160a060020a031663771ae299826148f4896128e2565b50600095945050505050565b60408051600080516020614d4a8339815191528152815190819003600d0190206000908152600960205220805482919084908110614b7d57fe5b6000918252602090912001555050565b6000614b97610c87565b1115613dfe5760408051600080516020614d4a8339815191528152815190819003600d0190206000908152600960205220805490611a72906000198301614d0f565b6000614be3613a02565b600160a060020a031663fcff021c6040518163ffffffff1660e060020a028152600401602060405180830381600087803b15801561243457600080fd5b6000614c2a613a02565b600160a060020a03166345e23b5360016040518263ffffffff1660e060020a02815260040180828152602001915050602060405180830381600087803b15801561243457600080fd5b828054600181600116156101000203166002900490600052602060002090601f016020900481019282601f10614cb457805160ff1916838001178555614ce1565b82800160010185558215614ce1579182015b82811115614ce1578251825591602001919060010190614cc6565b50614ced929150614d2f565b5090565b5080546000825590600052602060002090810190611a729190614d2f565b815481835581811115613713576000838152602090206137139181019083015b6106d291905b80821115614ced5760008155600101614d35560061637469766542616c6c6f747300000000000000000000000000000000000000766f74696e6753746174650000000000000000000000000000000000000000006f776e6572000000000000000000000000000000000000000000000000000000a165627a7a72305820800253e70a66817f7fb5ccb51e4ef321692fd0806919890ba83dcf9ccbd4edcc0029",
  "source": "pragma solidity ^0.4.24;\n\nimport \"./interfaces/IKeysManager.sol\";\nimport \"./interfaces/IVotingToChangeKeysPrev.sol\";\nimport \"./abstracts/VotingToChange.sol\";\nimport \"./abstracts/EnumKeyTypes.sol\";\n\n\ncontract VotingToChangeKeys is VotingToChange, EnumKeyTypes {\n    bytes32 internal constant AFFECTED_KEY = \"affectedKey\";\n    bytes32 internal constant AFFECTED_KEY_TYPE = \"affectedKeyType\";\n    bytes32 internal constant BALLOT_TYPE = \"ballotType\";\n    bytes32 internal constant MINING_KEY = \"miningKey\";\n    bytes32 internal constant NEW_PAYOUT_KEY = \"newPayoutKey\";\n    bytes32 internal constant NEW_VOTING_KEY = \"newVotingKey\";\n\n    function createBallot(\n        uint256 _startTime,\n        uint256 _endTime,\n        uint256 _ballotType,\n        uint256 _affectedKeyType,\n        string _memo,\n        address _affectedKey,\n        address _miningKey\n    ) public returns(uint256) {\n        require(_getBallotsStorage().areKeysBallotParamsValid(\n            _ballotType,\n            _affectedKeyType,\n            _affectedKey,\n            _miningKey\n        ));\n        uint256 ballotId = super._createBallot(_ballotType, _startTime, _endTime, _memo);\n        _setAffectedKey(ballotId, _affectedKey);\n        _setAffectedKeyType(ballotId, _affectedKeyType);\n        _setMiningKey(ballotId, _miningKey);\n        _setBallotType(ballotId, _ballotType);\n        return ballotId;\n    }\n\n    function createBallotToAddNewValidator(\n        uint256 _startTime,\n        uint256 _endTime,\n        string _memo,\n        address _newMiningKey,\n        address _newVotingKey,\n        address _newPayoutKey\n    ) public returns(uint256) {\n        IKeysManager keysManager = _getKeysManager();\n        require(keysManager.miningKeyByVoting(_newVotingKey) == address(0));\n        require(keysManager.miningKeyByPayout(_newPayoutKey) == address(0));\n        require(_newVotingKey != _newMiningKey);\n        require(_newPayoutKey != _newMiningKey);\n        if (_newVotingKey != address(0) && _newPayoutKey != address(0)) {\n            require(_newVotingKey != _newPayoutKey);\n        }\n        uint256 ballotId = createBallot(\n            _startTime,\n            _endTime,\n            uint256(BallotTypes.KeyAdding), // _ballotType\n            uint256(KeyTypes.MiningKey), // _affectedKeyType\n            _memo,\n            _newMiningKey, // _affectedKey\n            address(0) // _miningKey\n        );\n        _setNewVotingKey(ballotId, _newVotingKey);\n        _setNewPayoutKey(ballotId, _newPayoutKey);\n        return ballotId;\n    }\n\n    function getBallotInfo(uint256 _id) public view returns(\n        uint256 startTime,\n        uint256 endTime,\n        address affectedKey,\n        uint256 affectedKeyType,\n        address newVotingKey,\n        address newPayoutKey,\n        address miningKey,\n        uint256 totalVoters,\n        int256 progress,\n        bool isFinalized,\n        uint256 ballotType,\n        address creator,\n        string memo,\n        bool canBeFinalizedNow\n    ) {\n        startTime = _getStartTime(_id);\n        endTime = _getEndTime(_id);\n        affectedKey = _getAffectedKey(_id);\n        affectedKeyType = _getAffectedKeyType(_id);\n        newVotingKey = _getNewVotingKey(_id);\n        newPayoutKey = _getNewPayoutKey(_id);\n        miningKey = _getMiningKey(_id);\n        totalVoters = _getTotalVoters(_id);\n        progress = _getProgress(_id);\n        isFinalized = _getIsFinalized(_id);\n        ballotType = _getBallotType(_id);\n        creator = _getCreator(_id);\n        memo = _getMemo(_id);\n        canBeFinalizedNow = _canBeFinalizedNow(_id);\n    }\n\n    function init(uint256 _minBallotDuration) public {\n        _init(_minBallotDuration);\n    }\n\n    function migrateBasicOne(\n        uint256 _id,\n        address _prevVotingToChange,\n        address[] _voters\n    ) public onlyOwner {\n        require(_prevVotingToChange != address(0));\n        require(initDisabled());\n        require(!migrateDisabled());\n        IVotingToChangeKeysPrev prev = IVotingToChangeKeysPrev(_prevVotingToChange);\n        require(prev.getTotalVoters(_id) == _voters.length);\n\n        uint256 endTime = prev.getEndTime(_id);\n\n        _setTotalVoters(_id, _voters.length);\n        _setIsFinalized(_id, prev.getIsFinalized(_id));\n        _setMinThresholdOfVoters(_id, prev.getMinThresholdOfVoters(_id));\n        _setStartTime(_id, prev.getStartTime(_id));\n        _setEndTime(_id, endTime);\n\n        // solhint-disable indent\n        (\n            , , , , , ,\n            int progress, ,\n            uint8 quorumState, ,\n            uint256 index, ,\n            address creator,\n            string memory memo\n        ) = prev.votingState(_id);\n        // solhint-enable indent\n        _setProgress(_id, progress);\n        _setQuorumState(_id, quorumState);\n        _setIndex(_id, index);\n        _setCreator(_id, creator);\n        _setMemo(_id, memo);\n\n        _setBallotType(_id, prev.getBallotType(_id));\n        _setAffectedKey(_id, prev.getAffectedKey(_id));\n        _setAffectedKeyType(_id, prev.getAffectedKeyType(_id));\n        _setMiningKey(_id, prev.getMiningKey(_id));\n        //_setNewVotingKey(_id, prev.getNewVotingKey(_id));\n        //_setNewPayoutKey(_id, prev.getNewPayoutKey(_id));\n\n        IKeysManager prevKeysManager = IKeysManager(prev.getKeysManager());\n        for (uint256 i = 0; i < _voters.length; i++) {\n            if (getTime() <= endTime) {\n                require(prev.hasAlreadyVoted(_id, prevKeysManager.getVotingByMining(_voters[i])));\n            }\n            _votersAdd(_id, _voters[i]);\n        }\n    }\n\n    // solhint-disable code-complexity\n    function _finalizeAdding(uint256 _id) internal returns(bool) {\n        IKeysManager keysManager = _getKeysManager();\n\n        address affectedKey = _getAffectedKey(_id);\n        uint256 affectedKeyType = _getAffectedKeyType(_id);\n        \n        if (affectedKeyType == uint256(KeyTypes.MiningKey)) {\n            address newVotingKey = _getNewVotingKey(_id);\n            if (keysManager.miningKeyByVoting(newVotingKey) != address(0)) {\n                return false;\n            }\n\n            address newPayoutKey = _getNewPayoutKey(_id);\n            if (keysManager.miningKeyByPayout(newPayoutKey) != address(0)) {\n                return false;\n            }\n\n            if (!keysManager.addMiningKey(affectedKey)) {\n                return false;\n            }\n\n            if (newVotingKey != address(0)) {\n                keysManager.addVotingKey(newVotingKey, affectedKey);\n            }\n\n            if (newPayoutKey != address(0)) {\n                keysManager.addPayoutKey(newPayoutKey, affectedKey);\n            }\n\n            return true;\n        } else if (affectedKeyType == uint256(KeyTypes.VotingKey)) {\n            if (keysManager.miningKeyByVoting(affectedKey) != address(0)) {\n                return false;\n            }\n            return keysManager.addVotingKey(affectedKey, _getMiningKey(_id));\n        } else if (affectedKeyType == uint256(KeyTypes.PayoutKey)) {\n            if (keysManager.miningKeyByPayout(affectedKey) != address(0)) {\n                return false;\n            }\n            return keysManager.addPayoutKey(affectedKey, _getMiningKey(_id));\n        }\n        return false;\n    }\n    // solhint-enable code-complexity\n\n    function _finalizeBallotInner(uint256 _id) internal returns(bool) {\n        uint256 ballotType = _getBallotType(_id);\n        if (ballotType == uint256(BallotTypes.KeyAdding)) {\n            return _finalizeAdding(_id);\n        } else if (ballotType == uint256(BallotTypes.KeyRemoval)) {\n            return _finalizeRemoval(_id);\n        } else if (ballotType == uint256(BallotTypes.KeySwap)) {\n            return _finalizeSwap(_id);\n        }\n        return false;\n    }\n\n    function _finalizeRemoval(uint256 _id) internal returns(bool) {\n        IKeysManager keysManager = _getKeysManager();\n        uint256 affectedKeyType = _getAffectedKeyType(_id);\n        if (affectedKeyType == uint256(KeyTypes.MiningKey)) {\n            return keysManager.removeMiningKey(_getAffectedKey(_id));\n        } else if (affectedKeyType == uint256(KeyTypes.VotingKey)) {\n            return keysManager.removeVotingKey(_getMiningKey(_id));\n        } else if (affectedKeyType == uint256(KeyTypes.PayoutKey)) {\n            return keysManager.removePayoutKey(_getMiningKey(_id));\n        }\n        return false;\n    }\n\n    function _finalizeSwap(uint256 _id) internal returns(bool) {\n        IKeysManager keysManager = _getKeysManager();\n        uint256 affectedKeyType = _getAffectedKeyType(_id);\n        if (affectedKeyType == uint256(KeyTypes.MiningKey)) {\n            return keysManager.swapMiningKey(_getAffectedKey(_id), _getMiningKey(_id));\n        } else if (affectedKeyType == uint256(KeyTypes.VotingKey)) {\n            address newVotingKey = _getAffectedKey(_id);\n            if (keysManager.miningKeyByVoting(newVotingKey) != address(0)) {\n                return false;\n            }\n            return keysManager.swapVotingKey(newVotingKey, _getMiningKey(_id));\n        } else if (affectedKeyType == uint256(KeyTypes.PayoutKey)) {\n            address newPayoutKey = _getAffectedKey(_id);\n            if (keysManager.miningKeyByPayout(newPayoutKey) != address(0)) {\n                return false;\n            }\n            return keysManager.swapPayoutKey(newPayoutKey, _getMiningKey(_id));\n        }\n        return false;\n    }\n\n    function _getAffectedKey(uint256 _id) internal view returns(address) {\n        return addressStorage[\n            keccak256(abi.encode(VOTING_STATE, _id, AFFECTED_KEY))\n        ];\n    }\n\n    function _getAffectedKeyType(uint256 _id) internal view returns(uint256) {\n        return uintStorage[\n            keccak256(abi.encode(VOTING_STATE, _id, AFFECTED_KEY_TYPE))\n        ];\n    }\n\n    function _getBallotType(uint256 _id) internal view returns(uint256) {\n        return uintStorage[\n            keccak256(abi.encode(VOTING_STATE, _id, BALLOT_TYPE))\n        ];\n    }\n\n    function _getMiningKey(uint256 _id) internal view returns(address) {\n        return addressStorage[\n            keccak256(abi.encode(VOTING_STATE, _id, MINING_KEY))\n        ];\n    }\n\n    function _getNewPayoutKey(uint256 _id) internal view returns(address) {\n        return addressStorage[\n            keccak256(abi.encode(VOTING_STATE, _id, NEW_PAYOUT_KEY))\n        ];\n    }\n\n    function _getNewVotingKey(uint256 _id) internal view returns(address) {\n        return addressStorage[\n            keccak256(abi.encode(VOTING_STATE, _id, NEW_VOTING_KEY))\n        ];\n    }\n\n    function _setAffectedKey(uint256 _ballotId, address _value) internal {\n        addressStorage[\n            keccak256(abi.encode(VOTING_STATE, _ballotId, AFFECTED_KEY))\n        ] = _value;\n    }\n\n    function _setAffectedKeyType(uint256 _ballotId, uint256 _value) internal {\n        uintStorage[\n            keccak256(abi.encode(VOTING_STATE, _ballotId, AFFECTED_KEY_TYPE))\n        ] = _value;\n    }\n\n    function _setBallotType(uint256 _ballotId, uint256 _value) internal {\n        uintStorage[\n            keccak256(abi.encode(VOTING_STATE, _ballotId, BALLOT_TYPE))\n        ] = _value;\n    }\n\n    function _setMiningKey(uint256 _ballotId, address _value) internal {\n        addressStorage[\n            keccak256(abi.encode(VOTING_STATE, _ballotId, MINING_KEY))\n        ] = _value;\n    }\n\n    function _setNewPayoutKey(uint256 _ballotId, address _value) internal {\n        addressStorage[\n            keccak256(abi.encode(VOTING_STATE, _ballotId, NEW_PAYOUT_KEY))\n        ] = _value;\n    }\n\n    function _setNewVotingKey(uint256 _ballotId, address _value) internal {\n        addressStorage[\n            keccak256(abi.encode(VOTING_STATE, _ballotId, NEW_VOTING_KEY))\n        ] = _value;\n    }\n\n}\n",
  "sourcePath": "/home/moc/poa-network-consensus-contracts/contracts/VotingToChangeKeys.sol",
  "compiler": {
    "name": "solc",
    "version": "0.4.24+commit.e67f0147.Emscripten.clang"
  },
  "schemaVersion": "2.0.1",
  "updatedAt": "2018-11-18T12:51:15.775Z"
}