{
  "contractName": "VotingToChangeProxyAddress",
  "abi": [
    {
      "constant": true,
      "inputs": [
        {
          "name": "_id",
          "type": "uint256"
        }
      ],
      "name": "canBeFinalizedNow",
      "outputs": [
        {
          "name": "",
          "type": "bool"
        }
      ],
      "payable": false,
      "stateMutability": "view",
      "type": "function"
    },
    {
      "constant": true,
      "inputs": [],
      "name": "minBallotDuration",
      "outputs": [
        {
          "name": "",
          "type": "uint256"
        }
      ],
      "payable": false,
      "stateMutability": "view",
      "type": "function"
    },
    {
      "constant": false,
      "inputs": [
        {
          "name": "_id",
          "type": "uint256"
        }
      ],
      "name": "finalize",
      "outputs": [],
      "payable": false,
      "stateMutability": "nonpayable",
      "type": "function"
    },
    {
      "constant": true,
      "inputs": [
        {
          "name": "_id",
          "type": "uint256"
        }
      ],
      "name": "getQuorumState",
      "outputs": [
        {
          "name": "",
          "type": "uint256"
        }
      ],
      "payable": false,
      "stateMutability": "view",
      "type": "function"
    },
    {
      "constant": true,
      "inputs": [
        {
          "name": "_id",
          "type": "uint256"
        },
        {
          "name": "_votingKey",
          "type": "address"
        }
      ],
      "name": "isValidVote",
      "outputs": [
        {
          "name": "",
          "type": "bool"
        }
      ],
      "payable": false,
      "stateMutability": "view",
      "type": "function"
    },
    {
      "constant": true,
      "inputs": [
        {
          "name": "_index",
          "type": "uint256"
        }
      ],
      "name": "activeBallots",
      "outputs": [
        {
          "name": "",
          "type": "uint256"
        }
      ],
      "payable": false,
      "stateMutability": "view",
      "type": "function"
    },
    {
      "constant": true,
      "inputs": [],
      "name": "initDisabled",
      "outputs": [
        {
          "name": "",
          "type": "bool"
        }
      ],
      "payable": false,
      "stateMutability": "view",
      "type": "function"
    },
    {
      "constant": true,
      "inputs": [],
      "name": "getTime",
      "outputs": [
        {
          "name": "",
          "type": "uint256"
        }
      ],
      "payable": false,
      "stateMutability": "view",
      "type": "function"
    },
    {
      "constant": true,
      "inputs": [],
      "name": "activeBallotsLength",
      "outputs": [
        {
          "name": "",
          "type": "uint256"
        }
      ],
      "payable": false,
      "stateMutability": "view",
      "type": "function"
    },
    {
      "constant": true,
      "inputs": [
        {
          "name": "_id",
          "type": "uint256"
        }
      ],
      "name": "isActive",
      "outputs": [
        {
          "name": "",
          "type": "bool"
        }
      ],
      "payable": false,
      "stateMutability": "view",
      "type": "function"
    },
    {
      "constant": true,
      "inputs": [
        {
          "name": "_id",
          "type": "uint256"
        }
      ],
      "name": "getIndex",
      "outputs": [
        {
          "name": "",
          "type": "uint256"
        }
      ],
      "payable": false,
      "stateMutability": "view",
      "type": "function"
    },
    {
      "constant": true,
      "inputs": [],
      "name": "maxBallotDuration",
      "outputs": [
        {
          "name": "",
          "type": "uint256"
        }
      ],
      "payable": false,
      "stateMutability": "pure",
      "type": "function"
    },
    {
      "constant": true,
      "inputs": [],
      "name": "migrateDisabled",
      "outputs": [
        {
          "name": "",
          "type": "bool"
        }
      ],
      "payable": false,
      "stateMutability": "view",
      "type": "function"
    },
    {
      "constant": false,
      "inputs": [],
      "name": "migrateDisable",
      "outputs": [],
      "payable": false,
      "stateMutability": "nonpayable",
      "type": "function"
    },
    {
      "constant": true,
      "inputs": [],
      "name": "proxyStorage",
      "outputs": [
        {
          "name": "",
          "type": "address"
        }
      ],
      "payable": false,
      "stateMutability": "view",
      "type": "function"
    },
    {
      "constant": false,
      "inputs": [
        {
          "name": "_id",
          "type": "uint256"
        },
        {
          "name": "_choice",
          "type": "uint256"
        }
      ],
      "name": "vote",
      "outputs": [],
      "payable": false,
      "stateMutability": "nonpayable",
      "type": "function"
    },
    {
      "constant": true,
      "inputs": [
        {
          "name": "_id",
          "type": "uint256"
        }
      ],
      "name": "getMinThresholdOfVoters",
      "outputs": [
        {
          "name": "",
          "type": "uint256"
        }
      ],
      "payable": false,
      "stateMutability": "view",
      "type": "function"
    },
    {
      "constant": true,
      "inputs": [
        {
          "name": "_id",
          "type": "uint256"
        },
        {
          "name": "_votingKey",
          "type": "address"
        }
      ],
      "name": "hasAlreadyVoted",
      "outputs": [
        {
          "name": "",
          "type": "bool"
        }
      ],
      "payable": false,
      "stateMutability": "view",
      "type": "function"
    },
    {
      "constant": true,
      "inputs": [
        {
          "name": "_id",
          "type": "uint256"
        },
        {
          "name": "_miningKey",
          "type": "address"
        }
      ],
      "name": "areOldMiningKeysVoted",
      "outputs": [
        {
          "name": "",
          "type": "bool"
        }
      ],
      "payable": false,
      "stateMutability": "view",
      "type": "function"
    },
    {
      "constant": true,
      "inputs": [],
      "name": "nextBallotId",
      "outputs": [
        {
          "name": "",
          "type": "uint256"
        }
      ],
      "payable": false,
      "stateMutability": "view",
      "type": "function"
    },
    {
      "constant": true,
      "inputs": [
        {
          "name": "_miningKey",
          "type": "address"
        }
      ],
      "name": "validatorActiveBallots",
      "outputs": [
        {
          "name": "",
          "type": "uint256"
        }
      ],
      "payable": false,
      "stateMutability": "view",
      "type": "function"
    },
    {
      "constant": false,
      "inputs": [
        {
          "name": "_prevVotingToChange",
          "type": "address"
        }
      ],
      "name": "migrateBasicAll",
      "outputs": [],
      "payable": false,
      "stateMutability": "nonpayable",
      "type": "function"
    },
    {
      "anonymous": false,
      "inputs": [
        {
          "indexed": true,
          "name": "id",
          "type": "uint256"
        },
        {
          "indexed": true,
          "name": "ballotType",
          "type": "uint256"
        },
        {
          "indexed": true,
          "name": "creator",
          "type": "address"
        }
      ],
      "name": "BallotCreated",
      "type": "event"
    },
    {
      "anonymous": false,
      "inputs": [
        {
          "indexed": true,
          "name": "id",
          "type": "uint256"
        },
        {
          "indexed": true,
          "name": "voter",
          "type": "address"
        }
      ],
      "name": "BallotFinalized",
      "type": "event"
    },
    {
      "anonymous": false,
      "inputs": [
        {
          "indexed": true,
          "name": "id",
          "type": "uint256"
        },
        {
          "indexed": false,
          "name": "decision",
          "type": "uint256"
        },
        {
          "indexed": true,
          "name": "voter",
          "type": "address"
        },
        {
          "indexed": false,
          "name": "time",
          "type": "uint256"
        },
        {
          "indexed": false,
          "name": "voterMiningKey",
          "type": "address"
        }
      ],
      "name": "Vote",
      "type": "event"
    },
    {
      "constant": false,
      "inputs": [
        {
          "name": "_startTime",
          "type": "uint256"
        },
        {
          "name": "_endTime",
          "type": "uint256"
        },
        {
          "name": "_contractType",
          "type": "uint256"
        },
        {
          "name": "_memo",
          "type": "string"
        },
        {
          "name": "_proposedValue",
          "type": "address"
        }
      ],
      "name": "createBallot",
      "outputs": [],
      "payable": false,
      "stateMutability": "nonpayable",
      "type": "function"
    },
    {
      "constant": true,
      "inputs": [
        {
          "name": "_id",
          "type": "uint256"
        },
        {
          "name": "_votingKey",
          "type": "address"
        }
      ],
      "name": "getBallotInfo",
      "outputs": [
        {
          "name": "startTime",
          "type": "uint256"
        },
        {
          "name": "endTime",
          "type": "uint256"
        },
        {
          "name": "totalVoters",
          "type": "uint256"
        },
        {
          "name": "progress",
          "type": "int256"
        },
        {
          "name": "isFinalized",
          "type": "bool"
        },
        {
          "name": "proposedValue",
          "type": "address"
        },
        {
          "name": "contractType",
          "type": "uint256"
        },
        {
          "name": "creator",
          "type": "address"
        },
        {
          "name": "memo",
          "type": "string"
        },
        {
          "name": "canBeFinalizedNow",
          "type": "bool"
        },
        {
          "name": "alreadyVoted",
          "type": "bool"
        }
      ],
      "payable": false,
      "stateMutability": "view",
      "type": "function"
    },
    {
      "constant": false,
      "inputs": [
        {
          "name": "_minBallotDuration",
          "type": "uint256"
        }
      ],
      "name": "init",
      "outputs": [],
      "payable": false,
      "stateMutability": "nonpayable",
      "type": "function"
    },
    {
      "constant": false,
      "inputs": [
        {
          "name": "_id",
          "type": "uint256"
        },
        {
          "name": "_prevVotingToChange",
          "type": "address"
        },
        {
          "name": "_voters",
          "type": "address[]"
        }
      ],
      "name": "migrateBasicOne",
      "outputs": [],
      "payable": false,
      "stateMutability": "nonpayable",
      "type": "function"
    }
  ],
  "bytecode": "0x608060405234801561001057600080fd5b50613b65806100206000396000f3006080604052600436106101395763ffffffff60e060020a6000350416629b38fa811461013e57806302a99b9d1461016a57806305261aea1461019157806308dbb18e146101ab578063288fa739146101c35780633bf05e95146101e757806352a36938146101ff578063557ed1ba146102145780635908c674146102295780636ccc02341461029757806373ece100146102ac57806382afd23b146103135780638c64a20d1461032b5780638e7cb6e11461042957806396bc6ef0146104415780639fc18d4b14610456578063a3ac1eb11461046b578063ae4b1b5b14610480578063b384abef146104b1578063b7b0422d146104cc578063c088003d146104e4578063c14bfd29146104fc578063c7dea77714610520578063dc6bfbb514610544578063f49774ee14610559578063f71de2ed1461057a575b600080fd5b34801561014a57600080fd5b5061015660043561059b565b604080519115158252519081900360200190f35b34801561017657600080fd5b5061017f6105ac565b60408051918252519081900360200190f35b34801561019d57600080fd5b506101a96004356105ee565b005b3480156101b757600080fd5b5061017f6004356106a9565b3480156101cf57600080fd5b50610156600435600160a060020a036024351661077d565b3480156101f357600080fd5b5061017f600435610851565b34801561020b57600080fd5b5061015661089c565b34801561022057600080fd5b5061017f6108e0565b34801561023557600080fd5b50604080516020601f6064356004818101359283018490048402850184019095528184526101a9948035946024803595604435953695608494930191819084018382808284375094975050509235600160a060020a031693506108e492505050565b3480156102a357600080fd5b5061017f610926565b3480156102b857600080fd5b5060408051602060046044358181013583810280860185019096528085526101a99583359560248035600160a060020a0316963696956064959394920192918291850190849080828437509497506109559650505050505050565b34801561031f57600080fd5b506101566004356110c9565b34801561033757600080fd5b5061034f600435600160a060020a03602435166110fe565b604080518c815260208082018d90529181018b9052606081018a90528815156080820152600160a060020a0380891660a083015260c08201889052861660e0820152831515610120820152821515610140820152610160610100820181815286519183019190915285519192909161018084019187019080838360005b838110156103e45781810151838201526020016103cc565b50505050905090810190601f1680156104115780820380516001836020036101000a031916815260200191505b509c5050505050505050505050505060405180910390f35b34801561043557600080fd5b5061017f600435611199565b34801561044d57600080fd5b5061017f61122b565b34801561046257600080fd5b50610156611232565b34801561047757600080fd5b506101a9611276565b34801561048c57600080fd5b50610495611327565b60408051600160a060020a039092168252519081900360200190f35b3480156104bd57600080fd5b506101a9600435602435611371565b3480156104d857600080fd5b506101a960043561159f565b3480156104f057600080fd5b5061017f6004356115ab565b34801561050857600080fd5b50610156600435600160a060020a036024351661163d565b34801561052c57600080fd5b50610156600435600160a060020a03602435166116fd565b34801561055057600080fd5b5061017f61185c565b34801561056557600080fd5b5061017f600160a060020a036004351661189d565b34801561058657600080fd5b506101a9600160a060020a036004351661191e565b60006105a682611d5b565b92915050565b604080517f6d696e42616c6c6f744475726174696f6e000000000000000000000000000000815281519081900360110190206000908152600260205220545b90565b336105f7611f23565b600160a060020a03166362b46d64826040518263ffffffff1660e060020a0281526004018082600160a060020a0316600160a060020a03168152602001915050602060405180830381600087803b15801561065157600080fd5b505af1158015610665573d6000803e3d6000fd5b505050506040513d602081101561067b57600080fd5b5051151561068857600080fd5b61069182611d5b565b151561069c57600080fd5b6106a582611f9b565b5050565b60408051600080516020613afa8339815191526020808301919091528183018490527f71756f72756d53746174650000000000000000000000000000000000000000006060808401919091528351808403909101815260809092019283905281516000936002938593909282918401908083835b6020831061073c5780518252601f19909201916020918201910161071d565b51815160209384036101000a600019018019909216911617905260408051929094018290039091208652850195909552929092016000205495945050505050565b60008060008061078b611f23565b600160a060020a0316632d260227866040518263ffffffff1660e060020a0281526004018082600160a060020a0316600160a060020a03168152602001915050602060405180830381600087803b1580156107e557600080fd5b505af11580156107f9573d6000803e3d6000fd5b505050506040513d602081101561080f57600080fd5b5051925061081d8684612061565b15915061082a86846116fd565b15905081801561083e575061083e866110c9565b80156108475750805b9695505050505050565b60408051600080516020613ada8339815191528152815190819003600d0190206000908152600960205290812080548390811061088a57fe5b90600052602060002001549050919050565b604080517f696e697444697361626c656400000000000000000000000000000000000000008152815190819003600c01902060009081526006602052205460ff1690565b4290565b6000600160a060020a03821615156108fb57600080fd5b6109086005878786612148565b9050610914818361236e565b61091e818561246b565b505050505050565b60408051600080516020613ada8339815191528152815190819003600d01902060009081526009602052205490565b60408051600080516020613b1a833981519152815281519081900360050190206000908152600460205290812054819081908190819081906060908290819033600160a060020a03909116146109aa57600080fd5b600160a060020a038b1615156109bf57600080fd5b6109c761089c565b15156109d257600080fd5b6109da611232565b156109e457600080fd5b8a9850895189600160a060020a03166343d3a4c18e6040518263ffffffff1660e060020a02815260040180828152602001915050602060405180830381600087803b158015610a3257600080fd5b505af1158015610a46573d6000803e3d6000fd5b505050506040513d6020811015610a5c57600080fd5b505114610a6857600080fd5b88600160a060020a0316639067b6778d6040518263ffffffff1660e060020a02815260040180828152602001915050602060405180830381600087803b158015610ab157600080fd5b505af1158015610ac5573d6000803e3d6000fd5b505050506040513d6020811015610adb57600080fd5b50518a51909850610aed908d90612540565b610b6b8c8a600160a060020a03166323e1a0a88f6040518263ffffffff1660e060020a02815260040180828152602001915050602060405180830381600087803b158015610b3a57600080fd5b505af1158015610b4e573d6000803e3d6000fd5b505050506040513d6020811015610b6457600080fd5b50516125d2565b610be98c8a600160a060020a031663c088003d8f6040518263ffffffff1660e060020a02815260040180828152602001915050602060405180830381600087803b158015610bb857600080fd5b505af1158015610bcc573d6000803e3d6000fd5b505050506040513d6020811015610be257600080fd5b50516126b3565b610c678c8a600160a060020a031663bc2be1be8f6040518263ffffffff1660e060020a02815260040180828152602001915050602060405180830381600087803b158015610c3657600080fd5b505af1158015610c4a573d6000803e3d6000fd5b505050506040513d6020811015610c6057600080fd5b5051612745565b610c718c896127d7565b88600160a060020a031663ff84c45f8d6040518263ffffffff1660e060020a02815260040180828152602001915050600060405180830381600087803b158015610cba57600080fd5b505af1158015610cce573d6000803e3d6000fd5b505050506040513d6000823e601f3d908101601f19168201604052610180811015610cf857600080fd5b8151602083015160408401516060850151608086015160a087015160c088015160e08901516101008a01516101208b01516101408c01516101608d0180519b9d9a9c999b989a9799969895979496939592949193820192640100000000811115610d6157600080fd5b82016020810184811115610d7457600080fd5b8151640100000000811182820187101715610d8e57600080fd5b50509291905050509d509d505050509a509a50509950505050610db18c88612869565b610dbe8c8760ff166128fb565b610dc88c8661298d565b610dd28c85612a1f565b610ddc8c84612ab1565b610e5a8c8a600160a060020a031663d6edcb388f6040518263ffffffff1660e060020a02815260040180828152602001915050602060405180830381600087803b158015610e2957600080fd5b505af1158015610e3d573d6000803e3d6000fd5b505050506040513d6020811015610e5357600080fd5b505161236e565b610ed88c8a600160a060020a031663bdd4ae558f6040518263ffffffff1660e060020a02815260040180828152602001915050602060405180830381600087803b158015610ea757600080fd5b505af1158015610ebb573d6000803e3d6000fd5b505050506040513d6020811015610ed157600080fd5b505161246b565b88600160a060020a0316639a5737866040518163ffffffff1660e060020a028152600401602060405180830381600087803b158015610f1657600080fd5b505af1158015610f2a573d6000803e3d6000fd5b505050506040513d6020811015610f4057600080fd5b50519150600090505b89518110156110bb5787610f5b6108e0565b116110925788600160a060020a031663c14bfd298d84600160a060020a0316632befe2e18e86815181101515610f8d57fe5b906020019060200201516040518263ffffffff1660e060020a0281526004018082600160a060020a0316600160a060020a03168152602001915050602060405180830381600087803b158015610fe257600080fd5b505af1158015610ff6573d6000803e3d6000fd5b505050506040513d602081101561100c57600080fd5b50516040805160e060020a63ffffffff86160281526004810193909352600160a060020a0390911660248301525160448083019260209291908290030181600087803b15801561105b57600080fd5b505af115801561106f573d6000803e3d6000fd5b505050506040513d602081101561108557600080fd5b5051151561109257600080fd5b6110b38c8b838151811015156110a457fe5b90602001906020020151612b97565b600101610f49565b505050505050505050505050565b60006110d36108e0565b6110dc83612c39565b111580156105a657506110ee82612ccb565b6110f66108e0565b111592915050565b60008060008060008060008060606000806111188d612c39565b9a506111238d612ccb565b995061112e8d612d5d565b98506111398d612def565b97506111448d612e81565b965061114f8d612f58565b955061115a8d613035565b94506111658d6130c7565b93506111708d613159565b925061117b8d611d5b565b91506111878d8d61163d565b90509295989b509295989b9093969950565b60408051600080516020613afa8339815191526020808301919091528183018490527f696e6465780000000000000000000000000000000000000000000000000000006060808401919091528351808403909101815260809092019283905281516000936002938593909282918401908083836020831061073c5780518252601f19909201916020918201910161071d565b6212750090565b604080517f6d69677261746544697361626c656400000000000000000000000000000000008152815190819003600f01902060009081526006602052205460ff1690565b60408051600080516020613b1a8339815191528152815190819003600501902060009081526004602052205433600160a060020a03909116146112b857600080fd5b6112c061089c565b15156112cb57600080fd5b6112d3611232565b156112dd57600080fd5b604080517f6d69677261746544697361626c656400000000000000000000000000000000008152815190819003600f0190206000908152600660205220805460ff19166001179055565b604080517f70726f787953746f7261676500000000000000000000000000000000000000008152815190819003600c019020600090815260046020522054600160a060020a031690565b60003361137c611f23565b600160a060020a03166362b46d64826040518263ffffffff1660e060020a0281526004018082600160a060020a0316600160a060020a03168152602001915050602060405180830381600087803b1580156113d657600080fd5b505af11580156113ea573d6000803e3d6000fd5b505050506040513d602081101561140057600080fd5b5051151561140d57600080fd5b611415611232565b151561142057600080fd5b61142984612e81565b1561143357600080fd5b61143b611f23565b600160a060020a0316632d260227336040518263ffffffff1660e060020a0281526004018082600160a060020a0316600160a060020a03168152602001915050602060405180830381600087803b15801561149557600080fd5b505af11580156114a9573d6000803e3d6000fd5b505050506040513d60208110156114bf57600080fd5b505191506114cd843361077d565b15156114d857600080fd5b60018314156114fb576114f6846114ee86612def565b600101612869565b611519565b6002831415610139576114f684600161151387612def565b03612869565b6115238483612b97565b61154684611541600161153588612d5d565b9063ffffffff6132ce16565b612540565b33847f1fad44b452b708aff155b3190058d690f8a0f2e2463fc757b96d1ce1877d0ccc856115726108e0565b604080519283526020830191909152600160a060020a03871682820152519081900360600190a350505050565b6115a8816132e4565b50565b60408051600080516020613afa8339815191526020808301919091528183018490527f6d696e5468726573686f6c644f66566f746572730000000000000000000000006060808401919091528351808403909101815260809092019283905281516000936002938593909282918401908083836020831061073c5780518252601f19909201916020918201910161071d565b600080600160a060020a038316151561165957600091506116f6565b611661611f23565b600160a060020a0316632d260227846040518263ffffffff1660e060020a0281526004018082600160a060020a0316600160a060020a03168152602001915050602060405180830381600087803b1580156116bb57600080fd5b505af11580156116cf573d6000803e3d6000fd5b505050506040513d60208110156116e557600080fd5b505190506116f38482612061565b91505b5092915050565b6000818180808061170c611f23565b935083600160a060020a031663b9bdaa076040518163ffffffff1660e060020a028152600401602060405180830381600087803b15801561174c57600080fd5b505af1158015611760573d6000803e3d6000fd5b505050506040513d602081101561177657600080fd5b50519250600091505b8282101561184c5783600160a060020a031663a5a36dee866040518263ffffffff1660e060020a0281526004018082600160a060020a0316600160a060020a03168152602001915050602060405180830381600087803b1580156117e257600080fd5b505af11580156117f6573d6000803e3d6000fd5b505050506040513d602081101561180c57600080fd5b50519050600160a060020a03811615156118295760009550611851565b6118338882612061565b156118415760019550611851565b93506001018361177f565b600095505b505050505092915050565b604080517f6e65787442616c6c6f74496400000000000000000000000000000000000000008152815190819003600c01902060009081526002602052205490565b604080517f76616c696461746f7241637469766542616c6c6f747300000000000000000000602080830191909152600160a060020a0384168284015282518083038401815260609092019283905281516000936002938593909282918401908083836020831061073c5780518252601f19909201916020918201910161071d565b60408051600080516020613b1a83398151915281528151908190036005019020600090815260046020529081205481908190819081908190819033600160a060020a039091161461196e57600080fd5b600160a060020a038816151561198357600080fd5b61198b61089c565b151561199657600080fd5b61199e611232565b156119a857600080fd5b8796506119b3611327565b600160a060020a0316638b8414c46040518163ffffffff1660e060020a028152600401602060405180830381600087803b1580156119f057600080fd5b505af1158015611a04573d6000803e3d6000fd5b505050506040513d6020811015611a1a57600080fd5b5051604080517fdc6bfbb50000000000000000000000000000000000000000000000000000000081529051919750611aaf91600160a060020a038a169163dc6bfbb59160048083019260209291908290030181600087803b158015611a7e57600080fd5b505af1158015611a92573d6000803e3d6000fd5b505050506040513d6020811015611aa857600080fd5b50516133e7565b86600160a060020a0316636ccc02346040518163ffffffff1660e060020a028152600401602060405180830381600087803b158015611aed57600080fd5b505af1158015611b01573d6000803e3d6000fd5b505050506040513d6020811015611b1757600080fd5b50519350611b23613427565b600094505b83851015611bb857611bad87600160a060020a0316633bf05e95876040518263ffffffff1660e060020a02815260040180828152602001915050602060405180830381600087803b158015611b7c57600080fd5b505af1158015611b90573d6000803e3d6000fd5b505050506040513d6020811015611ba657600080fd5b505161345f565b600190940193611b28565b85600160a060020a0316630eaba26a6040518163ffffffff1660e060020a028152600401602060405180830381600087803b158015611bf657600080fd5b505af1158015611c0a573d6000803e3d6000fd5b505050506040513d6020811015611c2057600080fd5b50516000955092505b82851015611d515785600160a060020a031663900eb5a8866040518263ffffffff1660e060020a02815260040180828152602001915050602060405180830381600087803b158015611c7a57600080fd5b505af1158015611c8e573d6000803e3d6000fd5b505050506040513d6020811015611ca457600080fd5b5051604080517ff49774ee000000000000000000000000000000000000000000000000000000008152600160a060020a03808416600483015291519294509089169163f49774ee916024808201926020929091908290030181600087803b158015611d0e57600080fd5b505af1158015611d22573d6000803e3d6000fd5b505050506040513d6020811015611d3857600080fd5b50519050611d4682826134a0565b600190940193611c29565b5050505050505050565b6000806000806000611d6b611232565b1515611d7a5760009450611f1a565b611d826108e0565b9350611d8d86612c39565b9250611d9761185c565b8610611da65760009450611f1a565b83831115611db75760009450611f1a565b611dc086612e81565b15611dce5760009450611f1a565b611dd6611327565b600160a060020a0316638b8414c46040518163ffffffff1660e060020a028152600401602060405180830381600087803b158015611e1357600080fd5b505af1158015611e27573d6000803e3d6000fd5b505050506040513d6020811015611e3d57600080fd5b5051604080517fa87563370000000000000000000000000000000000000000000000000000000081529051600160a060020a039092169163a8756337916004808201926020929091908290030181600087803b158015611e9c57600080fd5b505af1158015611eb0573d6000803e3d6000fd5b505050506040513d6020811015611ec657600080fd5b50519150811515611eda5760009450611f1a565b81611ee487612d5d565b1015611efb57611ef3866110c9565b159450611f1a565b611f0b848463ffffffff61352116565b9050611f156105ac565b811194505b50505050919050565b6000611f2d611327565b600160a060020a0316639a5737866040518163ffffffff1660e060020a028152600401602060405180830381600087803b158015611f6a57600080fd5b505af1158015611f7e573d6000803e3d6000fd5b505050506040513d6020811015611f9457600080fd5b5051905090565b611fa481613533565b1515611fbc57611fb3816135ac565b611fbc816135db565b6000611fc782612def565b138015611fe45750611fd8816115ab565b611fe182612d5d565b10155b1561201257611ff2816136a3565b15612008576120038160025b6128fb565b61200d565b6115a8565b61201d565b61201d816003611ffe565b61202681613751565b6120318160016125d2565b604051339082907f3b208472607d900e1f689c976139d1147afc463fa00df525e9aff8b0604d298490600090a350565b60408051600080516020613afa8339815191526020808301919091528183018590527f766f7465727300000000000000000000000000000000000000000000000000006060830152600160a060020a0384166080808401919091528351808403909101815260a09092019283905281516000936006938593909282918401908083835b602083106121035780518252601f1990920191602091820191016120e4565b51815160209384036101000a600019018019909216911617905260408051929094018290039091208652850195909552929092016000205460ff169695505050505050565b600080600033612156611f23565b600160a060020a03166362b46d64826040518263ffffffff1660e060020a0281526004018082600160a060020a0316600160a060020a03168152602001915050602060405180830381600087803b1580156121b057600080fd5b505af11580156121c4573d6000803e3d6000fd5b505050506040513d60208110156121da57600080fd5b505115156121e757600080fd5b8686600080831180156121fa5750600082115b151561220557600080fd5b828211801561221a57506122176108e0565b83115b151561222557600080fd5b612235828463ffffffff61352116565b905061223f6105ac565b811161224a57600080fd5b61225261122b565b81111561225e57600080fd5b612266611232565b151561227157600080fd5b612279611f23565b600160a060020a0316632d260227336040518263ffffffff1660e060020a0281526004018082600160a060020a0316600160a060020a03168152602001915050602060405180830381600087803b1580156122d357600080fd5b505af11580156122e7573d6000803e3d6000fd5b505050506040513d60208110156122fd57600080fd5b5051955061230a866137a6565b151561231557600080fd5b6123248b8b8b8b60018b6137c0565b9450612331856000612540565b61233c856000612869565b61234d85612348610926565b61298d565b6123568561345f565b61235f86613881565b50929998505050505050505050565b60408051600080516020613afa8339815191526020808301919091528183018590527f70726f706f73656456616c7565000000000000000000000000000000000000006060808401919091528351808403909101815260809092019283905281518493600493600093909282918401908083835b602083106124015780518252601f1990920191602091820191016123e2565b51815160209384036101000a60001901801990921691161790526040805192909401829003909120865285019590955292909201600020805473ffffffffffffffffffffffffffffffffffffffff1916600160a060020a0395909516949094179093555050505050565b60408051600080516020613afa8339815191526020808301919091528183018590527f636f6e74726163745479706500000000000000000000000000000000000000006060808401919091528351808403909101815260809092019283905281518493600293600093909282918401908083835b602083106124fe5780518252601f1990920191602091820191016124df565b51815160209384036101000a60001901801990921691161790526040805192909401829003909120865285019590955292909201600020939093555050505050565b60408051600080516020613afa8339815191526020808301919091528183018590527f746f74616c566f74657273000000000000000000000000000000000000000000606080840191909152835180840390910181526080909201928390528151849360029360009390928291840190808383602083106124fe5780518252601f1990920191602091820191016124df565b60408051600080516020613afa8339815191526020808301919091528183018590527f697346696e616c697a65640000000000000000000000000000000000000000006060808401919091528351808403909101815260809092019283905281518493600693600093909282918401908083835b602083106126655780518252601f199092019160209182019101612646565b51815160209384036101000a60001901801990921691161790526040805192909401829003909120865285019590955292909201600020805460ff1916941515949094179093555050505050565b60408051600080516020613afa8339815191526020808301919091528183018590527f6d696e5468726573686f6c644f66566f74657273000000000000000000000000606080840191909152835180840390910181526080909201928390528151849360029360009390928291840190808383602083106124fe5780518252601f1990920191602091820191016124df565b60408051600080516020613afa8339815191526020808301919091528183018590527f737461727454696d650000000000000000000000000000000000000000000000606080840191909152835180840390910181526080909201928390528151849360029360009390928291840190808383602083106124fe5780518252601f1990920191602091820191016124df565b60408051600080516020613afa8339815191526020808301919091528183018590527f656e6454696d6500000000000000000000000000000000000000000000000000606080840191909152835180840390910181526080909201928390528151849360029360009390928291840190808383602083106124fe5780518252601f1990920191602091820191016124df565b60408051600080516020613afa8339815191526020808301919091528183018590527f70726f6772657373000000000000000000000000000000000000000000000000606080840191909152835180840390910181526080909201928390528151849360079360009390928291840190808383602083106124fe5780518252601f1990920191602091820191016124df565b60408051600080516020613afa8339815191526020808301919091528183018590527f71756f72756d5374617465000000000000000000000000000000000000000000606080840191909152835180840390910181526080909201928390528151849360029360009390928291840190808383602083106124fe5780518252601f1990920191602091820191016124df565b60408051600080516020613afa8339815191526020808301919091528183018590527f696e646578000000000000000000000000000000000000000000000000000000606080840191909152835180840390910181526080909201928390528151849360029360009390928291840190808383602083106124fe5780518252601f1990920191602091820191016124df565b60408051600080516020613afa8339815191526020808301919091528183018590527f63726561746f7200000000000000000000000000000000000000000000000000606080840191909152835180840390910181526080909201928390528151849360049360009390928291840190808383602083106124015780518252601f1990920191602091820191016123e2565b60408051600080516020613afa8339815191526020808301919091528183018590527f6d656d6f000000000000000000000000000000000000000000000000000000006060808401919091528351808403909101815260809092019283905281518493600393600093909282918401908083835b60208310612b445780518252601f199092019160209182019101612b25565b51815160001960209485036101000a01908116901991909116179052604080519490920184900390932086528583019690965250929093016000208451612b92959194509201919050613a03565b505050565b60408051600080516020613afa8339815191526020808301919091528183018590527f766f7465727300000000000000000000000000000000000000000000000000006060830152600160a060020a0384166080808401919091528351808403909101815260a090920192839052815160019360069360009390928291840190808383602083106126655780518252601f199092019160209182019101612646565b60408051600080516020613afa8339815191526020808301919091528183018490527f737461727454696d6500000000000000000000000000000000000000000000006060808401919091528351808403909101815260809092019283905281516000936002938593909282918401908083836020831061073c5780518252601f19909201916020918201910161071d565b60408051600080516020613afa8339815191526020808301919091528183018490527f656e6454696d65000000000000000000000000000000000000000000000000006060808401919091528351808403909101815260809092019283905281516000936002938593909282918401908083836020831061073c5780518252601f19909201916020918201910161071d565b60408051600080516020613afa8339815191526020808301919091528183018490527f746f74616c566f746572730000000000000000000000000000000000000000006060808401919091528351808403909101815260809092019283905281516000936002938593909282918401908083836020831061073c5780518252601f19909201916020918201910161071d565b60408051600080516020613afa8339815191526020808301919091528183018490527f70726f67726573730000000000000000000000000000000000000000000000006060808401919091528351808403909101815260809092019283905281516000936007938593909282918401908083836020831061073c5780518252601f19909201916020918201910161071d565b60408051600080516020613afa8339815191526020808301919091528183018490527f697346696e616c697a65640000000000000000000000000000000000000000006060808401919091528351808403909101815260809092019283905281516000936006938593909282918401908083835b60208310612f145780518252601f199092019160209182019101612ef5565b51815160209384036101000a600019018019909216911617905260408051929094018290039091208652850195909552929092016000205460ff1695945050505050565b60408051600080516020613afa8339815191526020808301919091528183018490527f70726f706f73656456616c7565000000000000000000000000000000000000006060808401919091528351808403909101815260809092019283905281516000936004938593909282918401908083835b60208310612feb5780518252601f199092019160209182019101612fcc565b51815160209384036101000a6000190180199092169116179052604080519290940182900390912086528501959095529290920160002054600160a060020a031695945050505050565b60408051600080516020613afa8339815191526020808301919091528183018490527f636f6e74726163745479706500000000000000000000000000000000000000006060808401919091528351808403909101815260809092019283905281516000936002938593909282918401908083836020831061073c5780518252601f19909201916020918201910161071d565b60408051600080516020613afa8339815191526020808301919091528183018490527f63726561746f720000000000000000000000000000000000000000000000000060608084019190915283518084039091018152608090920192839052815160009360049385939092829184019080838360208310612feb5780518252601f199092019160209182019101612fcc565b60408051600080516020613afa8339815191526020808301919091528183018490527f6d656d6f0000000000000000000000000000000000000000000000000000000060608381019190915283518084038201815260809093019384905282519093600393600093909282918401908083835b602083106131eb5780518252601f1990920191602091820191016131cc565b6001836020036101000a0380198251168184511680821785525050505050509050019150506040518091039020600019166000191681526020019081526020016000208054600181600116156101000203166002900480601f0160208091040260200160405190810160405280929190818152602001828054600181600116156101000203166002900480156132c25780601f10613297576101008083540402835291602001916132c2565b820191906000526020600020905b8154815290600101906020018083116132a557829003601f168201915b50505050509050919050565b6000828201838110156132dd57fe5b9392505050565b60408051600080516020613b1a8339815191528152815190819003600501902060009081526004602052205433600160a060020a039091161461332657600080fd5b61332e61089c565b1561333857600080fd5b613340611232565b1561334a57600080fd5b61335261122b565b811061335d57600080fd5b604080517f6d696e42616c6c6f744475726174696f6e00000000000000000000000000000081528151908190036011018120600090815260026020908152838220949094557f696e697444697361626c656400000000000000000000000000000000000000008252825191829003600c01909120815260069092529020805460ff19166001179055565b604080517f6e65787442616c6c6f74496400000000000000000000000000000000000000008152815190819003600c019020600090815260026020522055565b60408051600080516020613ada8339815191528152815190819003600d0190206000908152600960205290812061345d91613a81565b565b60408051600080516020613ada8339815191528152815190819003600d01902060009081526009602090815291812080546001810182559082529190200155565b604080517f76616c696461746f7241637469766542616c6c6f747300000000000000000000602080830191909152600160a060020a038516828401528251808303840181526060909201928390528151849360029360009390928291840190808383602083106124fe5780518252601f1990920191602091820191016124df565b60008282111561352d57fe5b50900390565b604080517f66696e616c697a6543616c6c6564000000000000000000000000000000000000602080830191909152818301849052825180830384018152606090920192839052815160009360069385939092829184019080838360208310612f145780518252601f199092019160209182019101612ef5565b6000806135b8836130c7565b91506135c38261189d565b90506000811115612b9257612b9282600183036134a0565b604080517f66696e616c697a6543616c6c65640000000000000000000000000000000000006020808301919091528183018490528251808303840181526060909201928390528151600193600693600093909282918401908083835b602083106136565780518252601f199092019160209182019101613637565b51815160209384036101000a60001901801990921691161790526040805192909401829003909120865285019590955292909201600020805460ff19169415159490941790935550505050565b60006136ad611327565b600160a060020a031663bb0165b16136c484613035565b6136cd85612f58565b6040518363ffffffff1660e060020a0281526004018083815260200182600160a060020a0316600160a060020a0316815260200192505050602060405180830381600087803b15801561371f57600080fd5b505af1158015613733573d6000803e3d6000fd5b505050506040513d602081101561374957600080fd5b505192915050565b600080600061375f84611199565b9250600161376b610926565b03915061377782610851565b90506137838382613898565b61378d818461298d565b613798826000613898565b6137a06138e2565b50505050565b60006137b061392e565b6137b98361189d565b1092915050565b6000806137cb61089c565b15156137d657600080fd5b6137de61185c565b90506137f96137f482600163ffffffff6132ce16565b6133e7565b6138038188612745565b61380d81876127d7565b6138188160006125d2565b61382281856128fb565b6138338161382e613975565b6126b3565b61383d8184612a1f565b6138478186612ab1565b6040513390899083907fd1ba591c76ef71222e2d30b8277758713cc6eef1de29efaf98a716744ac2420b90600090a4979650505050505050565b6115a88161389360016115358561189d565b6134a0565b60408051600080516020613ada8339815191528152815190819003600d01902060009081526009602052208054829190849081106138d257fe5b6000918252602090912001555050565b60006138ec610926565b111561345d5760408051600080516020613ada8339815191528152815190819003600d01902060009081526009602052208054906115a8906000198301613a9f565b60006139386139bc565b600160a060020a031663fcff021c6040518163ffffffff1660e060020a028152600401602060405180830381600087803b158015611f6a57600080fd5b600061397f6139bc565b600160a060020a031663eecd10796040518163ffffffff1660e060020a028152600401602060405180830381600087803b158015611f6a57600080fd5b60006139c6611327565b600160a060020a03166336ee77736040518163ffffffff1660e060020a028152600401602060405180830381600087803b158015611f6a57600080fd5b828054600181600116156101000203166002900490600052602060002090601f016020900481019282601f10613a4457805160ff1916838001178555613a71565b82800160010185558215613a71579182015b82811115613a71578251825591602001919060010190613a56565b50613a7d929150613abf565b5090565b50805460008255906000526020600020908101906115a89190613abf565b815481835581811115612b9257600083815260209020612b929181019083015b6105eb91905b80821115613a7d5760008155600101613ac5560061637469766542616c6c6f747300000000000000000000000000000000000000766f74696e6753746174650000000000000000000000000000000000000000006f776e6572000000000000000000000000000000000000000000000000000000a165627a7a723058209050c703f906b9532261ee59c6ff12ee3083f3b3e004267ebec3925df38399960029",
  "source": "pragma solidity ^0.4.24;\n\nimport \"./interfaces/IProxyStorage.sol\";\nimport \"./interfaces/IVotingToChangeProxyAddressPrev.sol\";\nimport \"./abstracts/VotingToChange.sol\";\n\n\ncontract VotingToChangeProxyAddress is VotingToChange {\n    bytes32 internal constant CONTRACT_TYPE = \"contractType\";\n    bytes32 internal constant PROPOSED_VALUE = \"proposedValue\";\n\n    function createBallot(\n        uint256 _startTime,\n        uint256 _endTime,\n        uint256 _contractType,\n        string _memo,\n        address _proposedValue\n    ) public {\n        require(_proposedValue != address(0));\n        uint256 ballotId = super._createBallot(\n            uint256(BallotTypes.ProxyAddress),\n            _startTime,\n            _endTime,\n            _memo\n        );\n        _setProposedValue(ballotId, _proposedValue);\n        _setContractType(ballotId, _contractType);\n    }\n\n    function getBallotInfo(uint256 _id, address _votingKey) public view returns(\n        uint256 startTime,\n        uint256 endTime,\n        uint256 totalVoters,\n        int256 progress,\n        bool isFinalized,\n        address proposedValue,\n        uint256 contractType,\n        address creator,\n        string memo,\n        bool canBeFinalizedNow,\n        bool alreadyVoted\n    ) {\n        startTime = _getStartTime(_id);\n        endTime = _getEndTime(_id);\n        totalVoters = _getTotalVoters(_id);\n        progress = _getProgress(_id);\n        isFinalized = _getIsFinalized(_id);\n        proposedValue = _getProposedValue(_id);\n        contractType = _getContractType(_id);\n        creator = _getCreator(_id);\n        memo = _getMemo(_id);\n        canBeFinalizedNow = _canBeFinalizedNow(_id);\n        alreadyVoted = hasAlreadyVoted(_id, _votingKey);\n    }\n\n    function init(uint256 _minBallotDuration) public {\n        _init(_minBallotDuration);\n    }\n\n    function migrateBasicOne(\n        uint256 _id,\n        address _prevVotingToChange,\n        address[] _voters\n    ) public onlyOwner {\n        require(_prevVotingToChange != address(0));\n        require(initDisabled());\n        require(!migrateDisabled());\n        IVotingToChangeProxyAddressPrev prev =\n            IVotingToChangeProxyAddressPrev(_prevVotingToChange);\n        require(prev.getTotalVoters(_id) == _voters.length);\n\n        uint256 endTime = prev.getEndTime(_id);\n\n        _setTotalVoters(_id, _voters.length);\n        _setIsFinalized(_id, prev.getIsFinalized(_id));\n        _setMinThresholdOfVoters(_id, prev.getMinThresholdOfVoters(_id));\n        _setStartTime(_id, prev.getStartTime(_id));\n        _setEndTime(_id, endTime);\n\n        // solhint-disable indent\n        (\n            , , ,\n            int progress, ,\n            uint8 quorumState,\n            uint256 index, , , ,\n            address creator,\n            string memory memo\n        ) = prev.votingState(_id);\n        // solhint-enable indent\n        _setProgress(_id, progress);\n        _setQuorumState(_id, quorumState);\n        _setIndex(_id, index);\n        _setCreator(_id, creator);\n        _setMemo(_id, memo);\n        \n        _setProposedValue(_id, prev.getProposedValue(_id));\n        _setContractType(_id, prev.getContractType(_id));\n\n        IKeysManager prevKeysManager = IKeysManager(prev.getKeysManager());\n        for (uint256 i = 0; i < _voters.length; i++) {\n            if (getTime() <= endTime) {\n                require(prev.hasAlreadyVoted(_id, prevKeysManager.getVotingByMining(_voters[i])));\n            }\n            _votersAdd(_id, _voters[i]);\n        }\n    }\n\n    function _finalizeBallotInner(uint256 _id) internal returns(bool) {\n        return IProxyStorage(proxyStorage()).setContractAddress(\n            _getContractType(_id),\n            _getProposedValue(_id)\n        );\n    }\n\n    function _getContractType(uint256 _id) internal view returns(uint256) {\n        return uintStorage[\n            keccak256(abi.encode(VOTING_STATE, _id, CONTRACT_TYPE))\n        ];\n    }\n\n    function _getGlobalMinThresholdOfVoters() internal view returns(uint256) {\n        return _getBallotsStorage().getProxyThreshold();\n    }\n\n    function _getProposedValue(uint256 _id) internal view returns(address) {\n        return addressStorage[\n            keccak256(abi.encode(VOTING_STATE, _id, PROPOSED_VALUE))\n        ];\n    }\n\n    function _setContractType(uint256 _ballotId, uint256 _value) private {\n        uintStorage[\n            keccak256(abi.encode(VOTING_STATE, _ballotId, CONTRACT_TYPE))\n        ] = _value;\n    }\n\n    function _setProposedValue(uint256 _ballotId, address _value) private {\n        addressStorage[\n            keccak256(abi.encode(VOTING_STATE, _ballotId, PROPOSED_VALUE))\n        ] = _value;\n    }\n\n}\n",
  "sourcePath": "/home/moc/poa-network-consensus-contracts/contracts/VotingToChangeProxyAddress.sol",
  "compiler": {
    "name": "solc",
    "version": "0.4.24+commit.e67f0147.Emscripten.clang"
  },
  "schemaVersion": "2.0.1",
  "updatedAt": "2018-11-18T12:51:15.684Z"
}